{"abi":[{"type":"constructor","inputs":[{"name":"_platformFactory","type":"address","internalType":"address"}],"stateMutability":"nonpayable"},{"type":"function","name":"FAILURE_PENALTY","inputs":[],"outputs":[{"name":"","type":"uint256","internalType":"uint256"}],"stateMutability":"view"},{"type":"function","name":"INITIAL_REPUTATION","inputs":[],"outputs":[{"name":"","type":"uint256","internalType":"uint256"}],"stateMutability":"view"},{"type":"function","name":"MAX_REPUTATION","inputs":[],"outputs":[{"name":"","type":"uint256","internalType":"uint256"}],"stateMutability":"view"},{"type":"function","name":"MIN_REPUTATION","inputs":[],"outputs":[{"name":"","type":"uint256","internalType":"uint256"}],"stateMutability":"view"},{"type":"function","name":"SUCCESS_BONUS","inputs":[],"outputs":[{"name":"","type":"uint256","internalType":"uint256"}],"stateMutability":"view"},{"type":"function","name":"addBadge","inputs":[{"name":"organizer","type":"address","internalType":"address"},{"name":"badge","type":"string","internalType":"string"}],"outputs":[],"stateMutability":"nonpayable"},{"type":"function","name":"badgeRequirements","inputs":[{"name":"","type":"string","internalType":"string"}],"outputs":[{"name":"","type":"uint256","internalType":"uint256"}],"stateMutability":"view"},{"type":"function","name":"calculateLevel","inputs":[{"name":"score","type":"uint256","internalType":"uint256"}],"outputs":[{"name":"","type":"string","internalType":"string"}],"stateMutability":"pure"},{"type":"function","name":"compareStrings","inputs":[{"name":"a","type":"string","internalType":"string"},{"name":"b","type":"string","internalType":"string"}],"outputs":[{"name":"","type":"bool","internalType":"bool"}],"stateMutability":"pure"},{"type":"function","name":"getOrganizerBadges","inputs":[{"name":"organizer","type":"address","internalType":"address"}],"outputs":[{"name":"","type":"string[]","internalType":"string[]"}],"stateMutability":"view"},{"type":"function","name":"getReputationInfo","inputs":[{"name":"organizer","type":"address","internalType":"address"}],"outputs":[{"name":"","type":"tuple","internalType":"struct ProjectTypes.ReputationInfo","components":[{"name":"score","type":"uint256","internalType":"uint256"},{"name":"level","type":"string","internalType":"string"},{"name":"totalProjects","type":"uint256","internalType":"uint256"},{"name":"successfulProjects","type":"uint256","internalType":"uint256"},{"name":"failedProjects","type":"uint256","internalType":"uint256"},{"name":"badgeCount","type":"uint256","internalType":"uint256"},{"name":"lastUpdated","type":"uint256","internalType":"uint256"}]}],"stateMutability":"view"},{"type":"function","name":"getReputationLevel","inputs":[{"name":"organizer","type":"address","internalType":"address"}],"outputs":[{"name":"","type":"string","internalType":"string"}],"stateMutability":"view"},{"type":"function","name":"getReputationScore","inputs":[{"name":"organizer","type":"address","internalType":"address"}],"outputs":[{"name":"","type":"uint256","internalType":"uint256"}],"stateMutability":"view"},{"type":"function","name":"hasBadge","inputs":[{"name":"organizer","type":"address","internalType":"address"},{"name":"badge","type":"string","internalType":"string"}],"outputs":[{"name":"","type":"bool","internalType":"bool"}],"stateMutability":"view"},{"type":"function","name":"max","inputs":[{"name":"a","type":"uint256","internalType":"uint256"},{"name":"b","type":"uint256","internalType":"uint256"}],"outputs":[{"name":"","type":"uint256","internalType":"uint256"}],"stateMutability":"pure"},{"type":"function","name":"min","inputs":[{"name":"a","type":"uint256","internalType":"uint256"},{"name":"b","type":"uint256","internalType":"uint256"}],"outputs":[{"name":"","type":"uint256","internalType":"uint256"}],"stateMutability":"pure"},{"type":"function","name":"organizerBadges","inputs":[{"name":"","type":"address","internalType":"address"},{"name":"","type":"uint256","internalType":"uint256"}],"outputs":[{"name":"","type":"string","internalType":"string"}],"stateMutability":"view"},{"type":"function","name":"owner","inputs":[],"outputs":[{"name":"","type":"address","internalType":"address"}],"stateMutability":"view"},{"type":"function","name":"paused","inputs":[],"outputs":[{"name":"","type":"bool","internalType":"bool"}],"stateMutability":"view"},{"type":"function","name":"platformFactory","inputs":[],"outputs":[{"name":"","type":"address","internalType":"address"}],"stateMutability":"view"},{"type":"function","name":"removeBadge","inputs":[{"name":"organizer","type":"address","internalType":"address"},{"name":"badge","type":"string","internalType":"string"}],"outputs":[],"stateMutability":"nonpayable"},{"type":"function","name":"renounceOwnership","inputs":[],"outputs":[],"stateMutability":"nonpayable"},{"type":"function","name":"reputationInfo","inputs":[{"name":"","type":"address","internalType":"address"}],"outputs":[{"name":"score","type":"uint256","internalType":"uint256"},{"name":"level","type":"string","internalType":"string"},{"name":"totalProjects","type":"uint256","internalType":"uint256"},{"name":"successfulProjects","type":"uint256","internalType":"uint256"},{"name":"failedProjects","type":"uint256","internalType":"uint256"},{"name":"badgeCount","type":"uint256","internalType":"uint256"},{"name":"lastUpdated","type":"uint256","internalType":"uint256"}],"stateMutability":"view"},{"type":"function","name":"setBadgeRequirement","inputs":[{"name":"badge","type":"string","internalType":"string"},{"name":"requirement","type":"uint256","internalType":"uint256"}],"outputs":[],"stateMutability":"nonpayable"},{"type":"function","name":"setStakingContract","inputs":[{"name":"_stakingContract","type":"address","internalType":"address"}],"outputs":[],"stateMutability":"nonpayable"},{"type":"function","name":"stakingContract","inputs":[],"outputs":[{"name":"","type":"address","internalType":"address"}],"stateMutability":"view"},{"type":"function","name":"transferOwnership","inputs":[{"name":"newOwner","type":"address","internalType":"address"}],"outputs":[],"stateMutability":"nonpayable"},{"type":"function","name":"updateReputation","inputs":[{"name":"organizer","type":"address","internalType":"address"},{"name":"projectId","type":"uint256","internalType":"uint256"},{"name":"success","type":"bool","internalType":"bool"}],"outputs":[],"stateMutability":"nonpayable"},{"type":"event","name":"BadgeAdded","inputs":[{"name":"organizer","type":"address","indexed":true,"internalType":"address"},{"name":"badge","type":"string","indexed":false,"internalType":"string"}],"anonymous":false},{"type":"event","name":"BadgeRemoved","inputs":[{"name":"organizer","type":"address","indexed":true,"internalType":"address"},{"name":"badge","type":"string","indexed":false,"internalType":"string"}],"anonymous":false},{"type":"event","name":"OwnershipTransferred","inputs":[{"name":"previousOwner","type":"address","indexed":true,"internalType":"address"},{"name":"newOwner","type":"address","indexed":true,"internalType":"address"}],"anonymous":false},{"type":"event","name":"Paused","inputs":[{"name":"account","type":"address","indexed":false,"internalType":"address"}],"anonymous":false},{"type":"event","name":"ReputationUpdated","inputs":[{"name":"organizer","type":"address","indexed":true,"internalType":"address"},{"name":"newScore","type":"uint256","indexed":false,"internalType":"uint256"}],"anonymous":false},{"type":"event","name":"Unpaused","inputs":[{"name":"account","type":"address","indexed":false,"internalType":"address"}],"anonymous":false},{"type":"error","name":"OwnableInvalidOwner","inputs":[{"name":"owner","type":"address","internalType":"address"}]},{"type":"error","name":"OwnableUnauthorizedAccount","inputs":[{"name":"account","type":"address","internalType":"address"}]}],"bytecode":{"object":"0x60803461016c57601f6119b838819003918201601f19168301916001600160401b038311848410176101705780849260209460405283398101031261016c57516001600160a01b0381169081900361016c57331561015957602861012c915f5490604051913360018060a01b0382167f8be0079c531659141344cd1fd0a4f28419497f9722a3daafe3b4186f6b6457e05f80a360ff60a01b1933169060018060a81b031916175f5560018060a01b031960015416176001556715995c9a599a595960c21b8152600560088201522055610258602760405166151c9d5cdd195960ca1b8152600560078201522055610320602560405164456c69746560d81b81526005808201522055610384602c6040516b2a37b82832b93337b936b2b960a11b81526005600c82015220556103b66029604051684c6567656e6461727960b81b815260056009820152205560405161183390816101858239f35b631e4fbdf760e01b5f525f60045260245ffd5b5f80fd5b634e487b7160e01b5f52604160045260245ffdfe60806040526004361015610011575f80fd5b5f3560e01c8063107b70fa1461106f5780632c771a9e14610e605780635bc66f3a14610e0b5780635c975abb14610de757806366e2a7c914610cdc578063697c604514610cc25780636d5433e614610ca1578063715018a614610c4a57806375a67d5c14610c125780637ae2b5c714610be95780637b05725814610bcd5780637eb312b114610bb25780638da5cb5b14610b8b57806391e2d42514610b505780639dd373b914610b005780639f0972c414610ad8578063b0779d11146108aa578063bed34bba14610845578063cff5820b1461082a578063d213c0f21461080e578063d3b8f9d51461077c578063dce3dc1f14610745578063e69a322c146106e2578063ec604e4614610355578063ee99205c1461032d578063eea8a8ae1461022b578063f0b011f3146101d65763f2fde38b1461014d575f80fd5b346101d25760203660031901126101d257610166611095565b61016e6117c6565b6001600160a01b031680156101bf575f80546001600160a01b03198116831782556001600160a01b0316907f8be0079c531659141344cd1fd0a4f28419497f9722a3daafe3b4186f6b6457e09080a3005b631e4fbdf760e01b5f525f60045260245ffd5b5f80fd5b346101d25760203660031901126101d2576004356001600160401b0381116101d25760208061020a819336906004016112d7565b604051928184925191829101835e8101600581520301902054604051908152f35b346101d25760203660031901126101d2576001600160a01b0361024c611095565b165f52600460205260405f208054906001600160401b038211610319576040519161027d60208260051b0184611197565b8083526020830180925f5260205f205f915b8383106102fc57848660405191829160208301906020845251809152604083019060408160051b85010192915f905b8282106102cd57505050500390f35b919360019193955060206102ec8192603f198a82030186528851611258565b96019201920185949391926102be565b60016020819261030b856111b8565b81520192019201919061028f565b634e487b7160e01b5f52604160045260245ffd5b346101d2575f3660031901126101d2576002546040516001600160a01b039091168152602090f35b346101d25760603660031901126101d25761036e611095565b6044359081151582036101d2576002546001600160a01b031633036106a55760018060a01b03811691825f52600360205260405f20906002820190815415610654575b156106215781546032810180911161060d576103e8811015610604575b8255600382016103de8154611499565b90555b6103eb8154611499565b90554260068201556104096104008254611554565b60018301611662565b805460405160a081018181106001600160401b038211176103195760405260409384516104368682611197565b600881526715995c9a599a595960c21b6020820152825284516104598682611197565b6007815266151c9d5cdd195960ca1b6020820152602083015261047a611531565b85830152845161048a8682611197565b600c81526b2a37b82832b93337b936b2b960a11b602082015260608301526104b061150a565b60808301525f5b600581106104ee57867ffc577563f1b9a0461e24abef1e1fcc0d33d3d881f20b5df6dda59de4aae2c82160208888549051908152a2005b6020806104fb83866117ec565b518851928184925191829101835e8101600581520301902054841015806105e9575b61052a575b6001016104b7565b865f526004602052855f209061054081856117ec565b51918054600160401b8110156103195761055f9160018201815561111b565b6105d65760019261056f91611662565b875f5260036020526005875f20016105878154611499565b9055877f795aa5beaf1b13eb60d1289641e3c56299954d5896cacf556a6a1a41f00b4ba16105cc6105b884886117ec565b518a51918291602083526020830190611258565b0390a29050610522565b634e487b7160e01b5f525f60045260245ffd5b506105fe6105f782856117ec565b518361171a565b1561051d565b506103e86103ce565b634e487b7160e01b5f52601160045260245ffd5b8154606319810190811161060d57801561064d575b8255600482016106468154611499565b90556103e1565b505f610636565b6101f48355600183016106678154611144565b601f8111610685575b50600c654e6f7669636560d01b0190556103b1565b61069f90825f52601f60205f20910160051c810190611339565b86610670565b60405162461bcd60e51b815260206004820152601560248201527413db9b1e481cdd185ada5b99c818dbdb9d1c9858dd605a1b6044820152606490fd5b346101d25760403660031901126101d2576004356001600160401b0381116101d2576107129036906004016110ab565b61072760018060a01b036001541633146112f5565b80604051928337810190600582526020816024359303019020555f80f35b346101d25760203660031901126101d257610778610764600435611554565b604051918291602083526020830190611258565b0390f35b346101d25760203660031901126101d2576001600160a01b0361079d611095565b165f52600360205260405f2080546107b7600183016111b8565b91600281015490600381015490600481015460066005830154920154926107f0604051978897885260e0602089015260e0880190611258565b9460408701526060860152608085015260a084015260c08301520390f35b346101d2575f3660031901126101d25760206040516103e88152f35b346101d2575f3660031901126101d257602060405160648152f35b346101d25760403660031901126101d2576004356001600160401b0381116101d2576108759036906004016112d7565b6024356001600160401b0381116101d25760209161089a6108a09236906004016112d7565b906114a7565b6040519015158152f35b346101d2576108b8366110d8565b90916108cf60018060a01b036001541633146112f5565b8115610a9e576108e96108e3368486611292565b8261171a565b610a5a576001600160a01b03165f8181526004602052604090208054919291600160401b811015610319576109239160018201815561111b565b9390936105d6576001600160401b0382116103195761094c826109468654611144565b8661134f565b5f93601f83116001146109d85761099b83807f795aa5beaf1b13eb60d1289641e3c56299954d5896cacf556a6a1a41f00b4ba196975f916109cd575b508160011b915f199060031b1c19161790565b90555b835f526003602052600560405f20016109b78154611499565b90556109c860405192839283611472565b0390a2005b905084013588610988565b601f19831694815f5260205f20905f5b878110610a425750847f795aa5beaf1b13eb60d1289641e3c56299954d5896cacf556a6a1a41f00b4ba1969710610a29575b5050600183811b01905561099e565b8301355f19600386901b60f8161c191690558580610a1a565b909160206001819285880135815501930191016109e8565b606460405162461bcd60e51b815260206004820152602060248201527f4f7267616e697a657220616c72656164792068617320746869732062616467656044820152fd5b60405162461bcd60e51b8152602060048201526012602482015271496e76616c6964206261646765206e616d6560701b6044820152606490fd5b346101d2575f3660031901126101d2576001546040516001600160a01b039091168152602090f35b346101d25760203660031901126101d257610b19611095565b610b2e60018060a01b036001541633146112f5565b600280546001600160a01b0319166001600160a01b0392909216919091179055005b346101d25760203660031901126101d2576001600160a01b03610b71611095565b165f526003602052610778610764600160405f20016111b8565b346101d2575f3660031901126101d2575f546040516001600160a01b039091168152602090f35b346101d2575f3660031901126101d257602060405160328152f35b346101d2575f3660031901126101d25760206040516101f48152f35b346101d2576020610bf93661127c565b80821015610c0b57505b604051908152f35b9050610c03565b346101d25760203660031901126101d2576001600160a01b03610c33611095565b165f526003602052602060405f2054604051908152f35b346101d2575f3660031901126101d257610c626117c6565b5f80546001600160a01b0319811682556001600160a01b03167f8be0079c531659141344cd1fd0a4f28419497f9722a3daafe3b4186f6b6457e08280a3005b346101d2576020610cb13661127c565b80821115610c0b5750604051908152f35b346101d2575f3660031901126101d25760206040515f8152f35b346101d25760203660031901126101d257610cf5611095565b5f60c0604051610d048161117c565b828152606060208201528260408201528260608201528260808201528260a0820152015260018060a01b03165f52600360205260405f20604051610d478161117c565b81548152610d57600183016111b8565b91602082019283526002810154906040830191825260038101549060608401918252600481015460808501908152600660058301549260a0870193845201549260c08601938452610dc4604051978897602089525160208901525160e06040890152610100880190611258565b945160608701525160808601525160a08501525160c08401525160e08301520390f35b346101d2575f3660031901126101d257602060ff5f5460a01c166040519015158152f35b346101d25760403660031901126101d257610e24611095565b6001600160a01b03165f9081526004602052604090208054602435908110156101d257610e509161111b565b6105d657610764610778916111b8565b346101d257610e6e366110d8565b9091610e8560018060a01b036001541633146112f5565b610e936108e3368486611292565b15611020576001600160a01b03165f81815260046020526040812091939192905b835480821015610ff557610edf610ed4610ece848861111b565b506111b8565b61089a368688611292565b610eec5750600101610eb4565b929391925f19810190811161060d57610f08610f10918461111b565b50918361111b565b9190916105d657610f2091611392565b80548015610fe1575f190190610f36828261111b565b6105d657610f448154611144565b9081610f9e575b505055825f526003602052600560405f200191825492831561060d577ff9c283b78e1fdeb6736568b457ccfa112bd3ea4cbeae7dc18e239846762d3f12935f190190555b6109c860405192839283611472565b81601f5f9311600114610fb55750555b8580610f4b565b81835260208320610fd191601f0160051c810190600101611339565b8082528160208120915555610fae565b634e487b7160e01b5f52603160045260245ffd5b5050907ff9c283b78e1fdeb6736568b457ccfa112bd3ea4cbeae7dc18e239846762d3f129250610f8f565b60405162461bcd60e51b815260206004820152602160248201527f4f7267616e697a657220646f65736e27742068617665207468697320626164676044820152606560f81b6064820152608490fd5b346101d25760206108a061108f611085366110d8565b9291923691611292565b9061171a565b600435906001600160a01b03821682036101d257565b9181601f840112156101d2578235916001600160401b0383116101d257602083818601950101116101d257565b9060406003198301126101d2576004356001600160a01b03811681036101d25791602435906001600160401b0382116101d257611117916004016110ab565b9091565b8054821015611130575f5260205f2001905f90565b634e487b7160e01b5f52603260045260245ffd5b90600182811c92168015611172575b602083101461115e57565b634e487b7160e01b5f52602260045260245ffd5b91607f1691611153565b60e081019081106001600160401b0382111761031957604052565b90601f801991011681019081106001600160401b0382111761031957604052565b9060405191825f8254926111cb84611144565b808452936001811690811561123657506001146111f2575b506111f092500383611197565b565b90505f9291925260205f20905f915b81831061121a5750509060206111f0928201015f6111e3565b6020919350806001915483858901015201910190918492611201565b9050602092506111f094915060ff191682840152151560051b8201015f6111e3565b805180835260209291819084018484015e5f828201840152601f01601f1916010190565b60409060031901126101d2576004359060243590565b9291926001600160401b03821161031957604051916112bb601f8201601f191660200184611197565b8294818452818301116101d2578281602093845f960137010152565b9080601f830112156101d2578160206112f293359101611292565b90565b156112fc57565b60405162461bcd60e51b81526020600482015260156024820152744f6e6c7920706c6174666f726d20666163746f727960581b6044820152606490fd5b818110611344575050565b5f8155600101611339565b9190601f811161135e57505050565b6111f0925f5260205f20906020601f840160051c83019310611388575b601f0160051c0190611339565b909150819061137b565b91909182811461146d576113a68354611144565b6001600160401b038111610319576113c8816113c28454611144565b8461134f565b5f93601f8211600114611407576113f892939482915f926113fc575b50508160011b915f199060031b1c19161790565b9055565b015490505f806113e4565b601f198216905f5260205f2094835f5260205f20915f5b8181106114555750958360019596971061143d575b505050811b019055565b01545f1960f88460031b161c191690555f8080611433565b9192600180602092868b01548155019401920161141e565b509050565b90918060409360208452816020850152848401375f828201840152601f01601f1916010190565b5f19811461060d5760010190565b6040516114d36020828180820195805191829101875e81015f838201520301601f198101835282611197565b519020906040516115036020828180820195805191829101875e81015f838201520301601f198101835282611197565b5190201490565b60405190611519604083611197565b60098252684c6567656e6461727960b81b6020830152565b60405190611540604083611197565b6005825264456c69746560d81b6020830152565b61038481101561165957610320811015611650576102bc81101561162b57610258811015611604576101f48110156115d95761012c11156115b35760405161159d604082611197565b60068152654e6f7669636560d01b602082015290565b6040516115c1604082611197565b60088152672132b3b4b73732b960c11b602082015290565b506040516115e8604082611197565b600c81526b496e7465726d65646961746560a01b602082015290565b50604051611613604082611197565b600881526710591d985b98d95960c21b602082015290565b5060405161163a604082611197565b6006815265115e1c195c9d60d21b602082015290565b506112f2611531565b506112f261150a565b91909182516001600160401b03811161031957611683816113c28454611144565b6020601f82116001146116bd5781906113f89394955f926116b25750508160011b915f199060031b1c19161790565b015190505f806113e4565b601f19821690835f52805f20915f5b818110611702575095836001959697106116ea57505050811b019055565b01515f1960f88460031b161c191690555f8080611433565b9192602060018192868b0151815501940192016116cc565b6001600160a01b03165f90815260046020526040902080546001600160401b038111610319576040519161175460208360051b0184611197565b81835260208301905f5260205f205f915b8383106117a957505050505f5b81518110156117a25761178e8360208360051b850101516114a7565b61179a57600101611772565b505050600190565b5050505f90565b6001602081926117b8856111b8565b815201920192019190611765565b5f546001600160a01b031633036117d957565b63118cdaa760e01b5f523360045260245ffd5b9060058110156111305760051b019056fea264697066735822122046d595cdfd83a7eaac8b049097147bdc2ed4f031d8a079cee8253e5555acc9c764736f6c634300081e0033","linkReferences":{}},"methodIdentifiers":{"FAILURE_PENALTY()":"cff5820b","INITIAL_REPUTATION()":"7b057258","MAX_REPUTATION()":"d213c0f2","MIN_REPUTATION()":"697c6045","SUCCESS_BONUS()":"7eb312b1","addBadge(address,string)":"b0779d11","badgeRequirements(string)":"f0b011f3","calculateLevel(uint256)":"dce3dc1f","compareStrings(string,string)":"bed34bba","getOrganizerBadges(address)":"eea8a8ae","getReputationInfo(address)":"66e2a7c9","getReputationLevel(address)":"91e2d425","getReputationScore(address)":"75a67d5c","hasBadge(address,string)":"107b70fa","max(uint256,uint256)":"6d5433e6","min(uint256,uint256)":"7ae2b5c7","organizerBadges(address,uint256)":"5bc66f3a","owner()":"8da5cb5b","paused()":"5c975abb","platformFactory()":"9f0972c4","removeBadge(address,string)":"2c771a9e","renounceOwnership()":"715018a6","reputationInfo(address)":"d3b8f9d5","setBadgeRequirement(string,uint256)":"e69a322c","setStakingContract(address)":"9dd373b9","stakingContract()":"ee99205c","transferOwnership(address)":"f2fde38b","updateReputation(address,uint256,bool)":"ec604e46"},"id":61}