{"abi":[{"type":"constructor","inputs":[],"stateMutability":"nonpayable"},{"type":"function","name":"admin","inputs":[],"outputs":[{"name":"","type":"address","internalType":"address"}],"stateMutability":"view"},{"type":"function","name":"categoryParams","inputs":[{"name":"","type":"uint8","internalType":"enum ProjectTypes.ProjectCategory"}],"outputs":[{"name":"riskLevel","type":"uint8","internalType":"enum ProjectTypes.RiskLevel"},{"name":"minStakingPercentage","type":"uint256","internalType":"uint256"},{"name":"maxFundingTarget","type":"uint256","internalType":"uint256"},{"name":"platformFee","type":"uint256","internalType":"uint256"},{"name":"minDuration","type":"uint256","internalType":"uint256"},{"name":"maxDuration","type":"uint256","internalType":"uint256"}],"stateMutability":"view"},{"type":"function","name":"createProject","inputs":[{"name":"name","type":"string","internalType":"string"},{"name":"description","type":"string","internalType":"string"},{"name":"category","type":"uint8","internalType":"enum ProjectTypes.ProjectCategory"},{"name":"productName","type":"string","internalType":"string"},{"name":"targetAmount","type":"uint256","internalType":"uint256"},{"name":"projectedROI","type":"uint256","internalType":"uint256"},{"name":"duration","type":"uint256","internalType":"uint256"},{"name":"marketAnalysis","type":"string","internalType":"string"},{"name":"supplierInfo","type":"string","internalType":"string"},{"name":"logisticsPlan","type":"string","internalType":"string"}],"outputs":[{"name":"","type":"address","internalType":"address"}],"stateMutability":"nonpayable"},{"type":"function","name":"getProjectsDetails","inputs":[{"name":"projectIds","type":"uint256[]","internalType":"uint256[]"}],"outputs":[{"name":"projectAddresses","type":"address[]","internalType":"address[]"},{"name":"statuses","type":"uint8[]","internalType":"enum ProjectTypes.ProjectStatus[]"},{"name":"currentAmounts","type":"uint256[]","internalType":"uint256[]"}],"stateMutability":"view"},{"type":"function","name":"getUserProjects","inputs":[{"name":"user","type":"address","internalType":"address"}],"outputs":[{"name":"","type":"uint256[]","internalType":"uint256[]"}],"stateMutability":"view"},{"type":"function","name":"owner","inputs":[],"outputs":[{"name":"","type":"address","internalType":"address"}],"stateMutability":"view"},{"type":"function","name":"paused","inputs":[],"outputs":[{"name":"","type":"bool","internalType":"bool"}],"stateMutability":"view"},{"type":"function","name":"projects","inputs":[{"name":"","type":"uint256","internalType":"uint256"}],"outputs":[{"name":"","type":"address","internalType":"address"}],"stateMutability":"view"},{"type":"function","name":"recoverETH","inputs":[{"name":"amount","type":"uint256","internalType":"uint256"}],"outputs":[],"stateMutability":"nonpayable"},{"type":"function","name":"renounceOwnership","inputs":[],"outputs":[],"stateMutability":"nonpayable"},{"type":"function","name":"revenueContract","inputs":[],"outputs":[{"name":"","type":"address","internalType":"address"}],"stateMutability":"view"},{"type":"function","name":"setExternalContracts","inputs":[{"name":"_stakingContract","type":"address","internalType":"address"},{"name":"_revenueContract","type":"address","internalType":"address"}],"outputs":[],"stateMutability":"nonpayable"},{"type":"function","name":"setPaused","inputs":[{"name":"paused","type":"bool","internalType":"bool"}],"outputs":[],"stateMutability":"nonpayable"},{"type":"function","name":"stakingContract","inputs":[],"outputs":[{"name":"","type":"address","internalType":"address"}],"stateMutability":"view"},{"type":"function","name":"totalInvestments","inputs":[],"outputs":[{"name":"","type":"uint256","internalType":"uint256"}],"stateMutability":"view"},{"type":"function","name":"totalProjects","inputs":[],"outputs":[{"name":"","type":"uint256","internalType":"uint256"}],"stateMutability":"view"},{"type":"function","name":"totalVolume","inputs":[],"outputs":[{"name":"","type":"uint256","internalType":"uint256"}],"stateMutability":"view"},{"type":"function","name":"transferAdmin","inputs":[{"name":"newAdmin","type":"address","internalType":"address"}],"outputs":[],"stateMutability":"nonpayable"},{"type":"function","name":"transferOwnership","inputs":[{"name":"newOwner","type":"address","internalType":"address"}],"outputs":[],"stateMutability":"nonpayable"},{"type":"function","name":"updateCategoryParams","inputs":[{"name":"category","type":"uint8","internalType":"enum ProjectTypes.ProjectCategory"},{"name":"minStakingPercentage","type":"uint256","internalType":"uint256"},{"name":"maxFundingTarget","type":"uint256","internalType":"uint256"},{"name":"platformFee","type":"uint256","internalType":"uint256"},{"name":"minDuration","type":"uint256","internalType":"uint256"},{"name":"maxDuration","type":"uint256","internalType":"uint256"},{"name":"requiredDocuments","type":"string[]","internalType":"string[]"}],"outputs":[],"stateMutability":"nonpayable"},{"type":"function","name":"userProjects","inputs":[{"name":"","type":"address","internalType":"address"},{"name":"","type":"uint256","internalType":"uint256"}],"outputs":[{"name":"","type":"uint256","internalType":"uint256"}],"stateMutability":"view"},{"type":"event","name":"CategoryParamsUpdated","inputs":[{"name":"category","type":"uint8","indexed":false,"internalType":"enum ProjectTypes.ProjectCategory"},{"name":"minStakingPercentage","type":"uint256","indexed":false,"internalType":"uint256"},{"name":"maxFundingTarget","type":"uint256","indexed":false,"internalType":"uint256"},{"name":"platformFee","type":"uint256","indexed":false,"internalType":"uint256"}],"anonymous":false},{"type":"event","name":"ContractsUpdated","inputs":[{"name":"stakingContract","type":"address","indexed":true,"internalType":"address"},{"name":"revenueContract","type":"address","indexed":true,"internalType":"address"}],"anonymous":false},{"type":"event","name":"OwnershipTransferred","inputs":[{"name":"previousOwner","type":"address","indexed":true,"internalType":"address"},{"name":"newOwner","type":"address","indexed":true,"internalType":"address"}],"anonymous":false},{"type":"event","name":"Paused","inputs":[{"name":"account","type":"address","indexed":false,"internalType":"address"}],"anonymous":false},{"type":"event","name":"ProjectCreated","inputs":[{"name":"projectId","type":"uint256","indexed":true,"internalType":"uint256"},{"name":"projectAddress","type":"address","indexed":true,"internalType":"address"},{"name":"organizer","type":"address","indexed":true,"internalType":"address"},{"name":"category","type":"uint8","indexed":false,"internalType":"enum ProjectTypes.ProjectCategory"},{"name":"targetAmount","type":"uint256","indexed":false,"internalType":"uint256"}],"anonymous":false},{"type":"event","name":"Unpaused","inputs":[{"name":"account","type":"address","indexed":false,"internalType":"address"}],"anonymous":false},{"type":"error","name":"OwnableInvalidOwner","inputs":[{"name":"owner","type":"address","internalType":"address"}]},{"type":"error","name":"OwnableUnauthorizedAccount","inputs":[{"name":"account","type":"address","internalType":"address"}]}],"bytecode":{"object":"0x608060405234610c8b573315610c78575f543360018060a01b0382167f8be0079c531659141344cd1fd0a4f28419497f9722a3daafe3b4186f6b6457e05f80a36001600160a81b0319163360ff60a01b198116919091175f5560018055600280546001600160a01b0319169091179055610077610cd3565b61007f610c8f565b600281526020810190610bb882526040810168056bc75e2d631000008152606082016101f48152608083019062278d00825260a08401926276a700845260c085019687525f8052600a60205260405f2094519560038710156106585760069660ff801988541691161786555160018601555160028501555160038401555160048301555160058201550190518051906801000000000000000082116105cd578254828455808310610c01575b50602001915f5260205f20915f905b828210610af157610149610d08565b610151610c8f565b6001815260208101906107d08252604081016802b5e3af16b18800008152606082016101908152608083019062278d00825260a0840192624f1a00845260c0850196875260015f52600a60205260405f2094519560038710156106585760069660ff801988541691161786555160018601555160028501555160038401555160048301555160058201550190518051906801000000000000000082116105cd578254828455808310610a7a575b50602001915f5260205f20915f905b82821061097557608061021f81610cae565b6003815290601f19015f5b818110610964578261023a610c8f565b6001815260208101906109c4825260408101680410d586a20a4c00008152606082016101c281526080830190623b5380825260a08401926276a700845260c0850196875260025f52600a60205260405f2094519560038710156106585760069660ff801988541691161786555160018601555160028501555160038401555160048301555160058201550190518051906801000000000000000082116105cd5782548284558083106108ed575b50602001915f5260205f20915f905b8282106107e857610305610d08565b61030d610c8f565b5f815260208101906105dc8252604081016801a055690d9db8000081526060820161012c8152608083019062278d00825260a0840192624f1a00845260c0850196875260035f52600a60205260405f2094519560038710156106585760069660ff801988541691161786555160018601555160028501555160038401555160048301555160058201550190518051906801000000000000000082116105cd578254828455808310610771575b50602001915f5260205f20915f905b82821061066c576103d7610cd3565b6103df610c8f565b6001815260208101906107d082526040810168022b1c8c1227a000008152606082016101908152608083019062278d00825260a08401926276a700845260c0850196875260075f52600a60205260405f2094519560038710156106585760069660ff801988541691161786555160018601555160028501555160038401555160048301555160058201550190518051906801000000000000000082116105cd5782548284558083106105e1575b50602001915f5260205f20915f905b8282106104b1576040516146be9081610d8c8239f35b80518051906001600160401b0382116105cd576104ce8654610d3d565b601f8111610592575b50602090601f8311600114610529579261050f836001959460209487965f9261051e575b50508160011b915f199060031b1c19161790565b87555b0194019101909261049b565b015190508a806104fb565b90601f19831691875f52815f20925f5b81811061057a5750936020936001969387969383889510610562575b505050811b018755610512565b01515f1960f88460031b161c19169055898080610555565b92936020600181928786015181550195019301610539565b6105bd90875f5260205f20601f850160051c810191602086106105c3575b601f0160051c0190610d75565b866104d7565b90915081906105b0565b634e487b7160e01b5f52604160045260245ffd5b835f528260205f2091820191015b8181106105fc575061048c565b8061060960019254610d3d565b80610616575b50016105ef565b601f8111831461062b57505f81555b8661060f565b61064790825f5283601f60205f20920160051c82019101610d75565b805f525f6020812081835555610625565b634e487b7160e01b5f52602160045260245ffd5b80518051906001600160401b0382116105cd576106898654610d3d565b601f8111610741575b50602090601f83116001146106d857926106c9836001959460209487965f9261051e5750508160011b915f199060031b1c19161790565b87555b019401910190926103c8565b90601f19831691875f52815f20925f5b8181106107295750936020936001969387969383889510610711575b505050811b0187556106cc565b01515f1960f88460031b161c19169055898080610704565b929360206001819287860151815501950193016106e8565b61076b90875f5260205f20601f850160051c810191602086106105c357601f0160051c0190610d75565b86610692565b835f528260205f2091820191015b81811061078c57506103b9565b8061079960019254610d3d565b806107a6575b500161077f565b601f811183146107bb57505f81555b8661079f565b6107d790825f5283601f60205f20920160051c82019101610d75565b805f525f60208120818355556107b5565b80518051906001600160401b0382116105cd576108058654610d3d565b601f81116108bd575b50602090601f83116001146108545792610845836001959460209487965f9261051e5750508160011b915f199060031b1c19161790565b87555b019401910190926102f6565b90601f19831691875f52815f20925f5b8181106108a5575093602093600196938796938388951061088d575b505050811b018755610848565b01515f1960f88460031b161c19169055898080610880565b92936020600181928786015181550195019301610864565b6108e790875f5260205f20601f850160051c810191602086106105c357601f0160051c0190610d75565b8661080e565b835f528260205f2091820191015b81811061090857506102e7565b8061091560019254610d3d565b80610922575b50016108fb565b601f8111831461093757505f81555b8661091b565b61095390825f5283601f60205f20920160051c82019101610d75565b805f525f6020812081835555610931565b80606060208093860101520161022a565b80518051906001600160401b0382116105cd576109928654610d3d565b601f8111610a4a575b50602090601f83116001146109e157926109d2836001959460209487965f9261051e5750508160011b915f199060031b1c19161790565b87555b0194019101909261020d565b90601f19831691875f52815f20925f5b818110610a325750936020936001969387969383889510610a1a575b505050811b0187556109d5565b01515f1960f88460031b161c19169055898080610a0d565b929360206001819287860151815501950193016109f1565b610a7490875f5260205f20601f850160051c810191602086106105c357601f0160051c0190610d75565b8661099b565b835f528260205f2091820191015b818110610a9557506101fe565b80610aa260019254610d3d565b80610aaf575b5001610a88565b601f81118314610ac457505f81555b86610aa8565b610ae090825f5283601f60205f20920160051c82019101610d75565b805f525f6020812081835555610abe565b80518051906001600160401b0382116105cd57610b0e8654610d3d565b601f8111610bd1575b50602090601f8311600114610b685792610b4e836001959460209487965f92610b5d5750508160011b915f199060031b1c19161790565b87555b0194019101909261013a565b015190505f806104fb565b90601f19831691875f52815f20925f5b818110610bb95750936020936001969387969383889510610ba1575b505050811b018755610b51565b01515f1960f88460031b161c191690555f8080610b94565b92936020600181928786015181550195019301610b78565b610bfb90875f5260205f20601f850160051c810191602086106105c357601f0160051c0190610d75565b5f610b17565b835f528260205f2091820191015b818110610c1c575061012b565b80610c2960019254610d3d565b80610c36575b5001610c0f565b601f81118314610c4b57505f81555b5f610c2f565b610c6790825f5283601f60205f20920160051c82019101610d75565b805f525f6020812081835555610c45565b631e4fbdf760e01b5f525f60045260245ffd5b5f80fd5b6040519060e082016001600160401b038111838210176105cd57604052565b6040519190601f01601f191682016001600160401b038111838210176105cd57604052565b606090610cdf82610cae565b6002815291601f1901825f5b828110610cf757505050565b806060602080938501015201610ceb565b604090610d1482610cae565b6001815291601f1901825f5b828110610d2c57505050565b806060602080938501015201610d20565b90600182811c92168015610d6b575b6020831014610d5757565b634e487b7160e01b5f52602260045260245ffd5b91607f1691610d4c565b818110610d80575050565b5f8155600101610d7556fe6080806040526004361015610012575f80fd5b5f905f3560e01c908163107046bd146116d75750806316c38b3c146115d05780632fa9c0071461157857806358d0df1914610f085780635bba7f5a14610dd15780635c975abb14610dac5780635f81a57c14610d8e57806370fd37cf14610d70578063715018a614610d1657806375829def14610c8657806386a1120914610c0f5780638da5cb5b14610be85780639c361e4e14610bca578063a81eff1c146106db578063c884d21e146106b2578063d33355531461065d578063d83073ce14610269578063e32e723c146101df578063ee99205c146101b6578063f2fde38b146101305763f851a44014610105575f80fd5b3461012d578060031936011261012d576002546040516001600160a01b039091168152602090f35b80fd5b503461012d57602036600319011261012d5761014a611705565b6101526119b3565b6001600160a01b031680156101a25781546001600160a01b03198116821783556001600160a01b03167f8be0079c531659141344cd1fd0a4f28419497f9722a3daafe3b4186f6b6457e08380a380f35b631e4fbdf760e01b82526004829052602482fd5b503461012d578060031936011261012d576003546040516001600160a01b039091168152602090f35b503461012d57602036600319011261012d576001600160a01b03610201611705565b168152600960205260408120604051918260208354918281520192825260208220915b8181106102535761024f8561023b8187038261175f565b604051918291602083526020830190611823565b0390f35b8254845260209093019260019283019201610224565b503461012d5760e036600319011261012d5760043560088110156106595760643560443560243560c4356001600160401b0381116106555736602382011215610655578060040135906102bb8261180c565b916102c9604051938461175f565b80835260051b8101602401602083013682116106515760248301905b82821061061e575050505061030560018060a01b03600254163314611856565b600785116105e657610316856119d9565b61032c6040519161032683611744565b826118ce565b6020810183815260408201858152606083018781526080840191608435835260a085019360a435855260c086019687526103658b6117e1565b955160038110156105d257865460ff191660ff91909116178655516001860155516002850155516003840155516004830155516005820155905180519160060190600160401b83116105be578154838355808410610544575b506020019087526020872087915b83831061041b57887fd3a2bea6386a0ac03dfe375dec95aa939a43e5faa9242f34009c60211dfc222f60808a8a8a8a6104086040518095611936565b602084015260408301526060820152a180f35b80518051906001600160401b0382116105305761043884546118da565b601f81116104f5575b506020908b601f841160011461048c57928060209360019693879692610481575b50505f19600383901b1c191690841b1785555b019201920191906103cc565b015190505f80610462565b50848c52818c209190601f1984168d5b8181106104dd57509360209360019693879693838895106104c5575b505050811b018555610475565b01515f1960f88460031b161c191690555f80806104b8565b9293602060018192878601518155019501930161049c565b61052090858d5260208d20601f850160051c81019160208610610526575b601f0160051c019061199d565b5f610441565b9091508190610513565b634e487b7160e01b8b52604160045260248bfd5b8289528360208a2091820191015b81811061055f57506103be565b808a61056d600193546118da565b8061057b575b505001610552565b601f811184146105925750508a81555b8a5f610573565b83601f602084866105ad965220920160051c8201910161199d565b808b528a602081208183555561058b565b634e487b7160e01b88526041600452602488fd5b634e487b7160e01b8d52602160045260248dfd5b60405162461bcd60e51b815260206004820152601060248201526f496e76616c69642063617465676f727960801b6044820152606490fd5b81356001600160401b03811161064d5760209161064283926024369189010161179b565b8152019101906102e5565b8a80fd5b8880fd5b8580fd5b5080fd5b503461012d57602036600319011261012d578080808060043560018060a01b036002541661068c813314611856565b8282156106a9575bf11561069d5780f35b604051903d90823e3d90fd5b506108fc610694565b503461012d578060031936011261012d576004546040516001600160a01b039091168152602090f35b503461012d57602036600319011261012d57600435906001600160401b03821161012d573660238301121561012d578160040135916107198361180c565b92610727604051948561175f565b8084526024602085019160051b83010191368311610bc657602401905b828210610bb65750505081519161077361075d8461180c565b9361076b604051958661175f565b80855261180c565b602084019290601f190136843781519161078f61075d8461180c565b602084019390601f19013685378151936107a88561180c565b946107b6604051968761175f565b8086526107c5601f199161180c565b01366020870137835b8351811015610b07576107e18185611943565b518552600860205260408520546001600160a01b031680610806575b506001016107ce565b80610811838b611943565b5261081c8286611943565b5160405190639675c00960e01b82526004820152602081602481855afa908115610afc578791610ac2575b506108528386611943565b6007821015610aae5752856108678387611943565b51602460405180948193635f8439e360e01b835260048301525afa908115610aa35786916108aa575b509060c060019201516108a38289611943565b52906107fd565b90503d8087833e6108bb818361175f565b810190602081830312610a9b578051906001600160401b038211610a9f57019061022082820312610a9b576040519161022083018381106001600160401b03821117610a87576040528051835260208101516001600160401b0381116106515782610927918301611957565b602084015260408101516001600160401b038111610651578261094b918301611957565b60408401526060810151600881101561065157606084015260808101516001600160401b0381116106515782610982918301611957565b608084015260a081015160a084015260c081015160c084015260e081015160e08401526101008101516101008401526101208101516001600160401b03811161065157826109d1918301611957565b6101208401526101408101516001600160a01b0381168103610651576101408401526101608101516007811015610651576101608401526101808101516101808401526101a08101516101a08401526101c08101516101c08401526101e08101516001600160401b0381116106515782610a4c918301611957565b6101e0840152610200810151906001600160401b0382116106515760c0926001959492610a799201611957565b610200820152919250610890565b634e487b7160e01b89526041600452602489fd5b8680fd5b8780fd5b6040513d88823e3d90fd5b634e487b7160e01b88526021600452602488fd5b90506020813d8211610af4575b81610adc6020938361175f565b81010312610a9b57516007811015610a9b575f610847565b3d9150610acf565b6040513d89823e3d90fd5b509395949291506040519460608601906060875251809152608086019390835b818110610b9757505050602090858403828701525192838152019291815b818310610b6057858061024f878a8382036040850152611823565b9091929384516007811015610b8357815260209081019401926001019190610b45565b634e487b7160e01b83526021600452602483fd5b82516001600160a01b0316865260209586019590920191600101610b27565b8135815260209182019101610744565b8380fd5b503461012d578060031936011261012d576020600554604051908152f35b503461012d578060031936011261012d57546040516001600160a01b039091168152602090f35b503461012d57602036600319011261012d57600435600881101561065957610c36906117e1565b60ff8154169060018101549060028101546003820154906005600484015493015493604051956003811015610aae5760c097508652602086015260408501526060840152608083015260a0820152f35b503461012d57602036600319011261012d57610ca0611705565b60025490610cb8336001600160a01b03841614611856565b6001600160a01b0316908115610cd9576001600160a01b0319161760025580f35b60405162461bcd60e51b8152602060048201526015602482015274496e76616c69642061646d696e206164647265737360581b6044820152606490fd5b503461012d578060031936011261012d57610d2f6119b3565b80546001600160a01b03198116825581906001600160a01b03167f8be0079c531659141344cd1fd0a4f28419497f9722a3daafe3b4186f6b6457e08280a380f35b503461012d578060031936011261012d576020600654604051908152f35b503461012d578060031936011261012d576020600754604051908152f35b503461012d578060031936011261012d5760ff6020915460a01c166040519015158152f35b503461012d57604036600319011261012d57610deb611705565b6024356001600160a01b0381169190829003610f0457610e1660018060a01b03600254163314611856565b6001600160a01b03168015610ebf578115610e7a57806001600160601b0360a01b6003541617600355816001600160601b0360a01b60045416176004557f14d346cbf9ffe1d19b9746e0b9391e5a4acb05399f4cc217d3a20391bbdbb44f8380a380f35b60405162461bcd60e51b815260206004820152601860248201527f496e76616c696420726576656e756520636f6e747261637400000000000000006044820152606490fd5b60405162461bcd60e51b815260206004820152601860248201527f496e76616c6964207374616b696e6720636f6e747261637400000000000000006044820152606490fd5b8280fd5b50346113bb576101403660031901126113bb576004356001600160401b0381116113bb57610f3a90369060040161179b565b906024356001600160401b0381116113bb57610f5a90369060040161179b565b906044359060088210156113bb576064356001600160401b0381116113bb57610f8790369060040161179b565b6084359160a4359460c4359660e4356001600160401b0381116113bb57610fb290369060040161179b565b610104356001600160401b0381116113bb57610fd290369060040161179b565b610124356001600160401b0381116113bb57610ff290369060040161179b565b9161100460ff5f5460a01c161561188f565b60026001541461153357600260015561101c896117e1565b60405161102881611744565b61103660ff835416826118ce565b600182015460208201526002820154604082019081526003830154606083015260048301549160808101928352600660058501549460a0830195865201908154916110808361180c565b9261108e604051948561175f565b80845260208401915f5260205f20915f905b828210611490575050505060c00152518a1161144b57518c1015908161143f575b5015611407576113888a116113d357604051612c59808201908282106001600160401b038311176113bf576020918391611a3083393081520301905ff080156113b0576003546001600160a01b039182169b91168b3b156113bb575f8c602482936040519485938492639dd373b960e01b845260048401525af180156113b05761139b575b506004546001600160a01b03168b3b15610a9f57878c60248293604051948593849263498a6de760e01b845260048401525af180156113905790889161137b575b50506005545f198114611367576001019b8c6005558c88526008602052604088208c6001600160601b0360a01b8254161790553388526009602052604088208054600160401b811015611353578d98979695949392918f916001810182556111ee9161171b565b819291549060031b91821b915f19901b1916179055604051998a9788976358d0df1960e01b8952600489016101409052610144890161122c91611912565b8881036003190160248a015261124191611912565b61124e604489018f611936565b87810360031901606489015261126391611912565b918b608488015260a487015260c48601526003198582030160e486015261128991611912565b8381036003190161010485015261129f91611912565b828103600319016101248401526112b591611912565b0381845a94602095f1801561134657611313575b505060209383916112dd6040518095611936565b858401527f873afa1258e6d3735662af73b336806efa0063b41918ab9d94f36b4ef294833460403394a460018055604051908152f35b6020823d60201161133e575b8161132c6020938361175f565b8101031261012d5750849050836112c9565b3d915061131f565b50604051903d90823e3d90fd5b634e487b7160e01b8a52604160045260248afd5b634e487b7160e01b88526011600452602488fd5b816113859161175f565b610a9b57865f611187565b6040513d8a823e3d90fd5b6113a89197505f9061175f565b5f955f611146565b6040513d5f823e3d90fd5b5f80fd5b634e487b7160e01b5f52604160045260245ffd5b60405162461bcd60e51b815260206004820152600c60248201526b0a49e9240e8dede40d0d2ced60a31b6044820152606490fd5b60405162461bcd60e51b815260206004820152601060248201526f24b73b30b634b210323ab930ba34b7b760811b6044820152606490fd5b9050518b11155f6110c1565b60405162461bcd60e51b815260206004820152601d60248201527f54617267657420657863656564732063617465676f7279206c696d69740000006044820152606490fd5b6040515f855461149f816118da565b808452906001811690811561151057506001146114d9575b50600192826114cb8594602094038261175f565b8152019401910190926110a0565b5f878152602081209092505b8183106114fa575050810160200160016114b7565b60018160209254838688010152019201916114e5565b60ff191660208581019190915291151560051b84019091019150600190506114b7565b60405162461bcd60e51b815260206004820152601f60248201527f5265656e7472616e637947756172643a207265656e7472616e742063616c6c006044820152606490fd5b346113bb5760403660031901126113bb57611591611705565b6001600160a01b03165f908152600960205260409020805460243591908210156113bb576020916115c19161171b565b90549060031b1c604051908152f35b346113bb5760203660031901126113bb5760043580151581036113bb5761160260018060a01b03600254163314611856565b15611656575f5461161960ff8260a01c161561188f565b60ff60a01b1916600160a01b175f556040513381527f62e78cea01bee320cd4e420270b5ea74000d11b0c9f74754ebdbfc544b05a25890602090a1005b5f5460ff8160a01c161561169b5760ff60a01b19165f556040513381527f5db9ee0a495bf2e6ff9c91a7834c1ba4fdd244a5e8aa4e537bd38aeae4b073aa90602090a1005b60405162461bcd60e51b815260206004820152601460248201527314185d5cd8589b194e881b9bdd081c185d5cd95960621b6044820152606490fd5b346113bb5760203660031901126113bb576020906004355f526008825260018060a01b0360405f2054168152f35b600435906001600160a01b03821682036113bb57565b8054821015611730575f5260205f2001905f90565b634e487b7160e01b5f52603260045260245ffd5b60e081019081106001600160401b038211176113bf57604052565b90601f801991011681019081106001600160401b038211176113bf57604052565b6001600160401b0381116113bf57601f01601f191660200190565b81601f820112156113bb578035906117b282611780565b926117c0604051948561175f565b828452602083830101116113bb57815f926020809301838601378301015290565b60088110156117f8575f52600a60205260405f2090565b634e487b7160e01b5f52602160045260245ffd5b6001600160401b0381116113bf5760051b60200190565b90602080835192838152019201905f5b8181106118405750505090565b8251845260209384019390920191600101611833565b1561185d57565b60405162461bcd60e51b815260206004820152600a60248201526927b7363c9030b236b4b760b11b6044820152606490fd5b1561189657565b60405162461bcd60e51b815260206004820152601060248201526f14185d5cd8589b194e881c185d5cd95960821b6044820152606490fd5b60038210156117f85752565b90600182811c92168015611908575b60208310146118f457565b634e487b7160e01b5f52602260045260245ffd5b91607f16916118e9565b805180835260209291819084018484015e5f828201840152601f01601f1916010190565b9060088210156117f85752565b80518210156117305760209160051b010190565b81601f820112156113bb5780519061196e82611780565b9261197c604051948561175f565b828452602083830101116113bb57815f9260208093018386015e8301015290565b8181106119a8575050565b5f815560010161199d565b5f546001600160a01b031633036119c657565b63118cdaa760e01b5f523360045260245ffd5b60088110156117f857806119ed5750600290565b60018114905f8215611a22575b8215611a11575b505015611a0d57600190565b5f90565b9091506117f8576005145f80611a01565b506002811491505f6119fa56fe60803460dd57601f612c5938819003918201601f19168301916001600160401b0383118484101760e15780849260209460405283398101031260dd57516001600160a01b0381169081900360dd57331560ca575f8054604051929133906001600160a01b038316907f8be0079c531659141344cd1fd0a4f28419497f9722a3daafe3b4186f6b6457e09080a36001600160a81b0319163360ff60a01b1916175f90815560018055600380546001600160a01b03191692909217909155600255612b6390816100f68239f35b631e4fbdf760e01b5f525f60045260245ffd5b5f80fd5b634e487b7160e01b5f52604160045260245ffdfe60a0604052600436101561001a575b3615610018575f80fd5b005b5f3560e01c8063107046bd146124d257806321b6a353146122ed578063249411471461210f5780632afcf48014611d1c5780632bd8fc4514611c2b5780633842ced314611b555780633f4ba83a14611aaf578063498a6de714611a1157806358d0df1914610e4d5780635a19cc2e14610ddd5780635c975abb14610db95780635f8439e314610ac8578063715018a614610a71578063831a9196146109715780638456cb59146108fd5780638b44da95146108b55780638da5cb5b1461088e5780639675c009146108365780639dd373b9146107985780639f0972c414610770578063b11b32d2146106f4578063c3fa0ba1146104e4578063c884d21e146104bc578063d18b5b41146103e0578063ee99205c146103b8578063f2fde38b146103335763f62bf2de0361000e573461030a57602036600319011261030a57600435805f52600660205261017d60018060a01b03600a60405f2001541633146129b4565b6002548111158061032a575b6101929061291b565b805f52600660205260ff600a60405f20015460a01c1660078110156103165760026101bd911461295c565b805f526006602052600a60405f2001600360a01b60ff60a01b19825416179055805f516020612b0e5f395f51905f52602060405160038152a2600554610259906020906001600160a01b0316610214811515612a9b565b835f52600682526044600660405f200154855f526006845260ff600360405f20015416926040519586948593639038176f60e01b8552600485015260248401906127f5565b5afa9081156102b8575f916102e0575b50815f526006602052600660405f200154818103928184116102cc575f908152600660205260408120600a015490938493849384936001600160a01b0316918491146102c3575bf1156102b857005b6040513d5f823e3d90fd5b506108fc6102b0565b634e487b7160e01b5f52601160045260245ffd5b90506020813d60201161030e575b816102fb60209383612710565b8101031261030a57515f610269565b5f80fd5b3d91506102ee565b634e487b7160e01b5f52602160045260245ffd5b50801515610189565b3461030a57602036600319011261030a5761034c612825565b610354612ae7565b6001600160a01b031680156103a5575f80546001600160a01b03198116831782556001600160a01b0316907f8be0079c531659141344cd1fd0a4f28419497f9722a3daafe3b4186f6b6457e09080a3005b631e4fbdf760e01b5f525f60045260245ffd5b3461030a575f36600319011261030a576004546040516001600160a01b039091168152602090f35b3461030a57604036600319011261030a576004356024356001600160401b03811161030a5761041390369060040161283b565b815f52600660205261043560018060a01b03600a60405f2001541633146129b4565b600254821115806104b3575b61044a9061291b565b815f52600660205260ff600a60405f20015460a01c166007811015610316577fe7c77052c4752064708e382f2ec5169e62c728d3ce62f1be04bbbf46848cffde9161049a60036104ae931461295c565b6040519182916020835260208301906127d1565b0390a2005b50811515610441565b3461030a575f36600319011261030a576005546040516001600160a01b039091168152602090f35b3461030a576104f236612890565b815f52600660205261051460018060a01b03600a60405f2001541633146129b4565b600254821115806106eb575b6105299061291b565b815f52600660205260ff600a60405f20015460a01c166007811015610316576003610554911461295c565b5f8281526006602081905260408220600a8101805460ff60a01b1916600160a21b1790556005546001600160a01b0316939291606091610595861515612a9b565b01936064855460405194859384926246a51960e41b84528a600485015288602485015260448401525af180156102b85784935f905f935f936106a1575b509260067f8215409039677f0e929b3881f268cb9087c47bdabe79981ad9128261c004011195936106809360209654936040519461060f866126f5565b85528785019287845260408601928352606086019081526080860191825260a086019242845260c08701945f86528c5f5260098b5260405f209751885551600188015551600287015551600386015551600485015551600584015551151591019060ff801983541691151516179055565b604051908152a25f516020612b0e5f395f51905f52602060405160048152a2005b935093945050506060813d6060116106e3575b816106c160609383612710565b8101031261030a578051602082015160409092015185949390919060066105d2565b3d91506106b4565b50811515610520565b3461030a57604036600319011261030a5761070d61280f565b6004355f52600760205260405f209060018060a01b03165f5260205260a060405f20600180831b03815416906001810154906002810154600460ff6003840154169201549260405194855260208501526040840152151560608301526080820152f35b3461030a575f36600319011261030a576003546040516001600160a01b039091168152602090f35b3461030a57602036600319011261030a576107b1612825565b6107c660018060a01b03600354163314612a53565b6001600160a01b031680156107f1576bffffffffffffffffffffffff60a01b60045416176004555f80f35b60405162461bcd60e51b815260206004820152601860248201527f496e76616c6964207374616b696e6720636f6e747261637400000000000000006044820152606490fd5b3461030a57602036600319011261030a5760043560025481111580610885575b61085f9061291b565b5f526006602052602060ff600a60405f20015460a01c166108836040518092612802565bf35b50801515610856565b3461030a575f36600319011261030a575f546040516001600160a01b039091168152602090f35b3461030a576108c336612890565b905f52600860205260405f20805482101561030a576020916108e4916128a6565b905460405160039290921b1c6001600160a01b03168152f35b3461030a575f36600319011261030a5761092260018060a01b03600354163314612a53565b5f5461093460ff8260a01c16156129f9565b60ff60a01b1916600160a01b175f556040513381527f62e78cea01bee320cd4e420270b5ea74000d11b0c9f74754ebdbfc544b05a25890602090a1005b3461030a57602036600319011261030a576004355f60c0604051610994816126f5565b8281528260208201528260408201528260608201528260808201528260a0820152015260025481111580610a68575b6109cc9061291b565b5f52600960205260e060405f206040516109e5816126f5565b815491828252600181015460208301908152600282015460408401908152600383015490606085019182526004840154926080860193845260c060ff600660058801549760a08a01988952015416960195151586526040519687525160208701525160408601525160608501525160808401525160a083015251151560c0820152f35b508015156109c3565b3461030a575f36600319011261030a57610a89612ae7565b5f80546001600160a01b0319811682556001600160a01b03167f8be0079c531659141344cd1fd0a4f28419497f9722a3daafe3b4186f6b6457e08280a3005b3461030a57602036600319011261030a576004356060610200604051610aed816126d9565b5f81528260208201528260408201525f838201528260808201525f60a08201525f60c08201525f60e08201525f610100820152826101208201525f6101408201525f6101608201525f6101808201525f6101a08201525f6101c0820152826101e0820152015260025481111580610db0575b610b689061291b565b5f52600660205260405f20604051610b7f816126d9565b81548152610b8f60018301612731565b6020820152610ba060028301612731565b6040820152610bb960ff60038401541660608301612a8f565b610bc560048301612731565b6080820152600582015460a0820152600682015460c0820152600782015460e08201526008820154610100820152610bff60098301612731565b610120820152600a8201546001600160a01b03811661014083015260a01c60ff1691600783101561031657600f610c7391610dac94610160850152600b810154610180850152600c8101546101a0850152600d8101546101c0850152610c67600e8201612731565b6101e085015201612731565b6102008201526040519182916020835280516020840152610200610d97610d35610cf2610cca610cb4602087015161022060408b01526102408a01906127d1565b6040870151898203601f190160608b01526127d1565b610cdc606087015160808a01906127f5565b6080860151888203601f190160a08a01526127d1565b60a085015160c088015260c085015160e088015260e0850151610100880152610100850151610120880152610120850151601f19888303016101408901526127d1565b60018060a01b0361014085015116610160870152610d5d610160850151610180880190612802565b6101808401516101a08701526101a08401516101c08701526101c08401516101e08701526101e0840151601f1987830301848801526127d1565b910151838203601f19016102208501526127d1565b0390f35b50801515610b5f565b3461030a575f36600319011261030a57602060ff5f5460a01c166040519015158152f35b3461030a57602036600319011261030a576004355f52600960205260e060405f208054906001810154906002810154600382015460048301549160ff600660058601549501541694604051968752602087015260408601526060850152608084015260a0830152151560c0820152f35b3461030a5761014036600319011261030a576004356001600160401b03811161030a57610e7e90369060040161283b565b6024356001600160401b03811161030a57610e9d90369060040161283b565b60443590600882101561030a576064356001600160401b03811161030a57610ec990369060040161283b565b926084359160a4359060c4359060e4356001600160401b03811161030a57610ef590369060040161283b565b610104356001600160401b03811161030a57610f1590369060040161283b565b92610124356001600160401b03811161030a57610f3690369060040161283b565b94610f4860ff5f5460a01c16156129f9565b87156119cc5762278d00821061199257611388811161195e576004546001600160a01b03161561191957610f7d600254612a45565b998a600255610f8c8342612a38565b9460405198610f9a8a6126d9565b8c8a5260208a01526040890152610fb48a60608a01612a8f565b60808801528760a08801525f60c088015260e0870152610100860152610120850152336101408501525f610160850152426101808501526101a08401525f6101c08401526101e0830152610200820152835f52600660205260405f208151815560208201518051906001600160401b03821161153f5781906110396001850154612686565b601f81116118c9575b50602090601f831160011461185c575f92611851575b50508160011b915f199060031b1c19161760018201555b60408201518051906001600160401b03821161153f5781906110946002850154612686565b601f8111611801575b50602090601f8311600114611794575f92611789575b50508160011b915f199060031b1c19161760028201555b60038101606083015160088110156103165760ff801983541691161790556004810160808301518051906001600160401b03821161153f57819061110e8454612686565b601f8111611739575b50602090601f83116001146116d6575f926116cb575b50508160011b915f199060031b1c19161790555b60a0820151600582015560c0820151600682015560e082015160078201556101008201516008820155600981016101208301518051906001600160401b03821161153f5781906111918454612686565b601f811161167b575b50602090601f8311600114611618575f9261160d575b50508160011b915f199060031b1c19161790555b610140820151600a820180546001600160a01b0319166001600160a01b0392909216919091178155610160830151600781101561031657815460ff60a01b191660a09190911b60ff60a01b16179055610180820151600b8201556101a0820151600c8201556101c0820151600d8201556101e08201518051600e8301916001600160401b03821161153f576112598354612686565b601f81116115c8575b50602090601f831160011461155e579180600f949261020096945f92611553575b50508160011b915f199060031b1c19161790555b019101518051906001600160401b03821161153f5781906112b88454612686565b601f81116114ef575b50602090601f831160011461148c575f92611481575b50508160011b915f199060031b1c19161790555b60018060a01b03600454169061131260405193631eb8a9f360e11b855260048501906127f5565b6024830152336044830152602082606481845afa9182156102b8575f9261144c575b5060206044916040519283809263074e3dbd60e31b82528760048301523360248301525afa9081156102b8575f9161141a575b50106113d557806020915f5260068252600a60405f2001600160a01b60ff60a01b19825416179055805f516020612b0e5f395f51905f528360405133847f63c92f9505d420bff631cb9df33be952bdc11e2118da36a850b43e6bcc4ce4de5f80a360018152a2604051908152f35b60405162461bcd60e51b815260206004820152601760248201527f496e73756666696369656e7420636f6c6c61746572616c0000000000000000006044820152606490fd5b90506020813d602011611444575b8161143560209383612710565b8101031261030a575183611367565b3d9150611428565b9091506020813d602011611479575b8161146860209383612710565b8101031261030a5751906020611334565b3d915061145b565b0151905086806112d7565b5f8581528281209350601f198516905b8181106114d757509084600195949392106114bf575b505050811b0190556112eb565b01515f1960f88460031b161c191690558680806114b2565b9293602060018192878601518155019501930161149c565b909150835f5260205f20601f840160051c81019160208510611535575b90601f859493920160051c01905b81811061152757506112c1565b5f815584935060010161151a565b909150819061150c565b634e487b7160e01b5f52604160045260245ffd5b015190508a80611283565b90601f19831691845f52815f20925f5b8181106115b057509260019285926102009896600f989610611598575b505050811b019055611297565b01515f1960f88460031b161c191690558a808061158b565b9293602060018192878601518155019501930161156e565b835f5260205f20601f840160051c81019160208510611603575b601f0160051c01905b8181106115f85750611262565b5f81556001016115eb565b90915081906115e2565b0151905088806111b0565b5f8581528281209350601f198516905b818110611663575090846001959493921061164b575b505050811b0190556111c4565b01515f1960f88460031b161c1916905588808061163e565b92936020600181928786015181550195019301611628565b909150835f5260205f20601f840160051c810191602085106116c1575b90601f859493920160051c01905b8181106116b3575061119a565b5f81558493506001016116a6565b9091508190611698565b01519050888061112d565b5f8581528281209350601f198516905b8181106117215750908460019594939210611709575b505050811b019055611141565b01515f1960f88460031b161c191690558880806116fc565b929360206001819287860151815501950193016116e6565b909150835f5260205f20601f840160051c8101916020851061177f575b90601f859493920160051c01905b8181106117715750611117565b5f8155849350600101611764565b9091508190611756565b0151905087806110b3565b9250600284015f52805f20905f935b601f19841685106117e6576001945083601f198116106117ce575b505050811b0160028201556110ca565b01515f1960f88460031b161c191690558780806117be565b818101518355602094850194600190930192909101906117a3565b909150600284015f5260205f20601f840160051c81016020851061184a575b90849392915b601f830160051c8201811061183c57505061109d565b5f8155859450600101611826565b5080611820565b015190508780611058565b9250600184015f52805f20905f935b601f19841685106118ae576001945083601f19811610611896575b505050811b01600182015561106f565b01515f1960f88460031b161c19169055878080611886565b8181015183556020948501946001909301929091019061186b565b909150600184015f5260205f20601f840160051c810160208510611912575b90849392915b601f830160051c82018110611904575050611042565b5f81558594506001016118ee565b50806118e8565b60405162461bcd60e51b815260206004820152601860248201527f5374616b696e6720636f6e7472616374206e6f742073657400000000000000006044820152606490fd5b60405162461bcd60e51b815260206004820152600c60248201526b0a49e9240e8dede40d0d2ced60a31b6044820152606490fd5b60405162461bcd60e51b8152602060048201526012602482015271111d5c985d1a5bdb881d1bdbc81cda1bdc9d60721b6044820152606490fd5b60405162461bcd60e51b815260206004820152601e60248201527f54617267657420616d6f756e74206d75737420626520706f73697469766500006044820152606490fd5b3461030a57602036600319011261030a57611a2a612825565b611a3f60018060a01b03600354163314612a53565b6001600160a01b03168015611a6a576bffffffffffffffffffffffff60a01b60055416176005555f80f35b60405162461bcd60e51b815260206004820152601860248201527f496e76616c696420726576656e756520636f6e747261637400000000000000006044820152606490fd5b3461030a575f36600319011261030a57611ad460018060a01b03600354163314612a53565b5f5460ff8160a01c1615611b195760ff60a01b19165f556040513381527f5db9ee0a495bf2e6ff9c91a7834c1ba4fdd244a5e8aa4e537bd38aeae4b073aa90602090a1005b60405162461bcd60e51b815260206004820152601460248201527314185d5cd8589b194e881b9bdd081c185d5cd95960621b6044820152606490fd5b3461030a57602036600319011261030a5760043560025481111580611c22575b611b7e9061291b565b5f52600860205260405f20604051806020835491828152019081935f5260205f20905f5b818110611c035750505081611bb8910382612710565b604051918291602083019060208452518091526040830191905f5b818110611be1575050500390f35b82516001600160a01b0316845285945060209384019390920191600101611bd3565b82546001600160a01b0316845260209093019260019283019201611ba2565b50801515611b75565b3461030a57604036600319011261030a57600435611c4761280f565b905f6080604051611c57816126be565b828152826020820152826040820152826060820152015260025481111580611d13575b611c839061291b565b5f52600760205260405f209060018060a01b03165f5260205260a060405f20604051611cae816126be565b600180841b0382541691828252600181015460208301908152600282015490604084019182526080600460ff60038601541694606087019515158652015494019384526040519485525160208501525160408401525115156060830152516080820152f35b50801515611c7a565b602036600319011261030a57600435611d3a600260015414156128cf565b6002600155611d5060ff5f5460a01c16156129f9565b60025481111580612106575b611d659061291b565b805f52600660205260ff600a60405f20015460a01c166007811015610316576001611d90911461295c565b805f52600660205260405f20600c8101544210156120ca5766038d7ea4c68000341061208e57683635c9adc5dea0000034116120525760068101611dd5348254612a38565b91600581019283541061201b575f84815260076020908152604080832033845290915290206001015415611fbb575b5f848152600760209081526040808320338452909152902060010154611e2b903490612a38565b92845f52600760205260405f2060018060a01b0333165f52602052600460405f200154936007830154612710019485612710116102cc57611e7d600491612710611e768a99346129a1565b0490612a38565b611f0a60405193611e8d856126be565b3380865260208087019283524260408089019182525f60608a0181815260808b019889528e82526007855282822095825294909352909120965187546001600160a01b039091166001600160a01b031990911617875591516001870155905160028601555160038501805460ff191691151560ff16919091179055565b51910155611f19348454612a38565b90818455541115611f59575b82604051903482527f89728d542d77fad9fe42c7d1f032c2b85f64cf938d754183b0e95359fbfac8a160203393a360018055005b600a01805460ff60a01b1916600160a11b179055546040519081527f26130d0cd3f6aa101d05e4a4f2ff016fd5b934363d17bdd03ff5dc03ec5934a990602090a2805f516020612b0e5f395f51905f52602060405160028152a2808280611f25565b835f52600860205260405f2080546801000000000000000081101561153f57611fe9916001820181556128a6565b81546001600160a01b0360039290921b91821b19163390911b179055600d8101805461201490612a45565b9055611e04565b60405162461bcd60e51b815260206004820152600f60248201526e15185c99d95d08195e18d959591959608a1b6044820152606490fd5b60405162461bcd60e51b8152602060048201526014602482015273496e766573746d656e7420746f6f206c6172676560601b6044820152606490fd5b60405162461bcd60e51b8152602060048201526014602482015273125b9d995cdd1b595b9d081d1bdbc81cdb585b1b60621b6044820152606490fd5b60405162461bcd60e51b8152602060048201526014602482015273119d5b991a5b99c81c195c9a5bd908195b99195960621b6044820152606490fd5b50801515611d5c565b3461030a57602036600319011261030a57600435805f52600660205261214560018060a01b03600a60405f2001541633146129b4565b600254811115806122e4575b61215a9061291b565b805f52600660205260405f20600a81019060ff825460a01c16600781101561031657600181149081156122db575b50156122a657815460ff60a01b1916600360a11b17909155600601546121e8575b5f516020612b0e5f395f51905f526020604051837fe3805ed669490875ae87c5c8b1ad6ecca0e5e67305a833926d0d4317c4822fc05f80a260068152a2005b5f5b815f52600860205260405f20548110156122a057815f5260086020526122138160405f206128a6565b90545f84815260076020908152604080832060039590951b9390931c6001600160a01b031680835293905220600101549081158015612258575b5050506001016121ea565b5f80938193829388845260076020526040842060018060a01b03831685526020528360016040822001558390612297575bf1156102b85782808061224d565b506108fc612289565b506121a9565b60405162461bcd60e51b815260206004820152600d60248201526c10d85b9b9bdd0818d85b98d95b609a1b6044820152606490fd5b90501584612188565b50801515612151565b3461030a57602036600319011261030a57600435612310600260015414156128cf565b6002600155600254811115806124c9575b61232a9061291b565b805f52600660205260ff600a60405f20015460a01c166007811015610316576004612355911461295c565b5f81815260076020908152604080832033845282528083208484526009909252909120600182015492918315612494576003019081549360ff851661245d5760048201548015612422576123a8916129a1565b9054801561240e57600191049360ff1916179055815f8115612405575b5f80809381933390f1156102b8576040519182527f317a81de21a23316ba0c5919f4b6b57c79ef4a1ddf1e71ec30466b44fccc820060203393a360018055005b506108fc6123c5565b634e487b7160e01b5f52601260045260245ffd5b60405162461bcd60e51b81526020600482015260136024820152724e6f2072657475726e7320746f20636c61696d60681b6044820152606490fd5b60405162461bcd60e51b815260206004820152600f60248201526e105b1c9958591e4818db185a5b5959608a1b6044820152606490fd5b60405162461bcd60e51b815260206004820152600d60248201526c139bc81a5b9d995cdd1b595b9d609a1b6044820152606490fd5b50801515612321565b3461030a57602036600319011261030a576004355f52600660205260405f208054906001810161250190612731565b8161250e60028201612731565b600382015460ff16929061252460048401612731565b60058401546006850154600786015460088701549161254560098901612731565b94600a89015499600b8a015497600c8b015499600d8c01549b600e0161256a90612731565b9d600f0161257790612731565b9e6040516080526080515260805160200161022090526080516102200161259d916127d1565b6080518103608051604001526125b2916127d1565b906080516060016125c2916127f5565b6080518103608051608001526125d7916127d1565b9360805160a0015260805160c0015260805160e0015260805161010001526080518103608051610120015261260b916127d1565b93600160a01b6001900381166080516101400152608051610160019060a01c60ff169061263791612802565b60805161018001526080516101a001526080516101c0015260805181036080516101e00152612665916127d1565b906080518203608051610200015260805191612680916127d1565b03608051f35b90600182811c921680156126b4575b60208310146126a057565b634e487b7160e01b5f52602260045260245ffd5b91607f1691612695565b60a081019081106001600160401b0382111761153f57604052565b61022081019081106001600160401b0382111761153f57604052565b60e081019081106001600160401b0382111761153f57604052565b90601f801991011681019081106001600160401b0382111761153f57604052565b9060405191825f82549261274484612686565b80845293600181169081156127af575060011461276b575b5061276992500383612710565b565b90505f9291925260205f20905f915b818310612793575050906020612769928201015f61275c565b602091935080600191548385890101520191019091849261277a565b90506020925061276994915060ff191682840152151560051b8201015f61275c565b805180835260209291819084018484015e5f828201840152601f01601f1916010190565b9060088210156103165752565b9060078210156103165752565b602435906001600160a01b038216820361030a57565b600435906001600160a01b038216820361030a57565b81601f8201121561030a578035906001600160401b03821161153f576040519261286f601f8401601f191660200185612710565b8284526020838301011161030a57815f926020809301838601378301015290565b604090600319011261030a576004359060243590565b80548210156128bb575f5260205f2001905f90565b634e487b7160e01b5f52603260045260245ffd5b156128d657565b60405162461bcd60e51b815260206004820152601f60248201527f5265656e7472616e637947756172643a207265656e7472616e742063616c6c006044820152606490fd5b1561292257565b60405162461bcd60e51b8152602060048201526012602482015271125b9d985b1a59081c1c9bda9958dd08125160721b6044820152606490fd5b1561296357565b60405162461bcd60e51b8152602060048201526016602482015275496e76616c69642070726f6a6563742073746174757360501b6044820152606490fd5b818102929181159184041417156102cc57565b156129bb57565b60405162461bcd60e51b815260206004820152601660248201527527b7363c90383937b532b1ba1037b933b0b734bd32b960511b6044820152606490fd5b15612a0057565b60405162461bcd60e51b815260206004820152601060248201526f14185d5cd8589b194e881c185d5cd95960821b6044820152606490fd5b919082018092116102cc57565b5f1981146102cc5760010190565b15612a5a57565b60405162461bcd60e51b815260206004820152600d60248201526c4f6e6c7920706c6174666f726d60981b6044820152606490fd5b60088210156103165752565b15612aa257565b60405162461bcd60e51b815260206004820152601860248201527f526576656e756520636f6e7472616374206e6f742073657400000000000000006044820152606490fd5b5f546001600160a01b03163303612afa57565b63118cdaa760e01b5f523360045260245ffdfe2da7b23ca63c1eb969eee5fae4acb98186abecf5358b0354a82a5183ebca6b2aa2646970667358221220b3241e80cd9297b51c25c7c6eb88c5ca4c5753cd6069ba0fd7eecce7d021f76d64736f6c634300081e0033a264697066735822122078ac0d2756011d2fa7a136a556da672b45ac8267b5767a21b8ee4894d0eaca4164736f6c634300081e0033","linkReferences":{}},"methodIdentifiers":{"admin()":"f851a440","categoryParams(uint8)":"86a11209","createProject(string,string,uint8,string,uint256,uint256,uint256,string,string,string)":"58d0df19","getProjectsDetails(uint256[])":"a81eff1c","getUserProjects(address)":"e32e723c","owner()":"8da5cb5b","paused()":"5c975abb","projects(uint256)":"107046bd","recoverETH(uint256)":"d3335553","renounceOwnership()":"715018a6","revenueContract()":"c884d21e","setExternalContracts(address,address)":"5bba7f5a","setPaused(bool)":"16c38b3c","stakingContract()":"ee99205c","totalInvestments()":"70fd37cf","totalProjects()":"9c361e4e","totalVolume()":"5f81a57c","transferAdmin(address)":"75829def","transferOwnership(address)":"f2fde38b","updateCategoryParams(uint8,uint256,uint256,uint256,uint256,uint256,string[])":"d83073ce","userProjects(address,uint256)":"2fa9c007"},"id":50}