{"abi":[{"type":"constructor","inputs":[{"name":"_platformFactory","type":"address","internalType":"address"},{"name":"_treasury","type":"address","internalType":"address"}],"stateMutability":"nonpayable"},{"type":"receive","stateMutability":"payable"},{"type":"function","name":"MAX_FEE","inputs":[],"outputs":[{"name":"","type":"uint256","internalType":"uint256"}],"stateMutability":"view"},{"type":"function","name":"MIN_FEE","inputs":[],"outputs":[{"name":"","type":"uint256","internalType":"uint256"}],"stateMutability":"view"},{"type":"function","name":"calculatePlatformFee","inputs":[{"name":"amount","type":"uint256","internalType":"uint256"},{"name":"category","type":"uint8","internalType":"enum ProjectTypes.ProjectCategory"}],"outputs":[{"name":"","type":"uint256","internalType":"uint256"}],"stateMutability":"view"},{"type":"function","name":"calculateSuccessFee","inputs":[{"name":"profits","type":"uint256","internalType":"uint256"}],"outputs":[{"name":"","type":"uint256","internalType":"uint256"}],"stateMutability":"pure"},{"type":"function","name":"claimPlatformRevenue","inputs":[],"outputs":[],"stateMutability":"nonpayable"},{"type":"function","name":"distributeRevenue","inputs":[{"name":"projectId","type":"uint256","internalType":"uint256"},{"name":"totalRevenue","type":"uint256","internalType":"uint256"},{"name":"totalInvested","type":"uint256","internalType":"uint256"}],"outputs":[{"name":"platformShare","type":"uint256","internalType":"uint256"},{"name":"investorShare","type":"uint256","internalType":"uint256"},{"name":"organizerShare","type":"uint256","internalType":"uint256"}],"stateMutability":"nonpayable"},{"type":"function","name":"feeDiscounts","inputs":[{"name":"","type":"address","internalType":"address"}],"outputs":[{"name":"","type":"uint256","internalType":"uint256"}],"stateMutability":"view"},{"type":"function","name":"feeStructures","inputs":[{"name":"","type":"uint8","internalType":"enum ProjectTypes.ProjectCategory"}],"outputs":[{"name":"platformFee","type":"uint256","internalType":"uint256"},{"name":"successFee","type":"uint256","internalType":"uint256"},{"name":"minFee","type":"uint256","internalType":"uint256"},{"name":"maxFee","type":"uint256","internalType":"uint256"}],"stateMutability":"view"},{"type":"function","name":"getFeeDiscount","inputs":[{"name":"user","type":"address","internalType":"address"}],"outputs":[{"name":"discountPercentage","type":"uint256","internalType":"uint256"}],"stateMutability":"view"},{"type":"function","name":"getFeeStructure","inputs":[{"name":"category","type":"uint8","internalType":"enum ProjectTypes.ProjectCategory"}],"outputs":[{"name":"platformFee","type":"uint256","internalType":"uint256"},{"name":"successFee","type":"uint256","internalType":"uint256"},{"name":"minFee","type":"uint256","internalType":"uint256"},{"name":"maxFee","type":"uint256","internalType":"uint256"}],"stateMutability":"view"},{"type":"function","name":"getInvestorShare","inputs":[{"name":"projectId","type":"uint256","internalType":"uint256"},{"name":"investor","type":"address","internalType":"address"}],"outputs":[{"name":"","type":"uint256","internalType":"uint256"}],"stateMutability":"view"},{"type":"function","name":"getPlatformRevenue","inputs":[],"outputs":[{"name":"","type":"uint256","internalType":"uint256"}],"stateMutability":"view"},{"type":"function","name":"getTreasuryBalance","inputs":[],"outputs":[{"name":"","type":"uint256","internalType":"uint256"}],"stateMutability":"view"},{"type":"function","name":"owner","inputs":[],"outputs":[{"name":"","type":"address","internalType":"address"}],"stateMutability":"view"},{"type":"function","name":"paused","inputs":[],"outputs":[{"name":"","type":"bool","internalType":"bool"}],"stateMutability":"view"},{"type":"function","name":"platformFactory","inputs":[],"outputs":[{"name":"","type":"address","internalType":"address"}],"stateMutability":"view"},{"type":"function","name":"renounceOwnership","inputs":[],"outputs":[],"stateMutability":"nonpayable"},{"type":"function","name":"returnDetails","inputs":[{"name":"","type":"uint256","internalType":"uint256"}],"outputs":[{"name":"totalInvested","type":"uint256","internalType":"uint256"},{"name":"totalReturns","type":"uint256","internalType":"uint256"},{"name":"platformRevenue","type":"uint256","internalType":"uint256"},{"name":"organizerRevenue","type":"uint256","internalType":"uint256"},{"name":"distributedReturns","type":"uint256","internalType":"uint256"},{"name":"distributionDate","type":"uint256","internalType":"uint256"},{"name":"distributionCompleted","type":"bool","internalType":"bool"}],"stateMutability":"view"},{"type":"function","name":"setFeeStructure","inputs":[{"name":"category","type":"uint8","internalType":"enum ProjectTypes.ProjectCategory"},{"name":"platformFee","type":"uint256","internalType":"uint256"},{"name":"minFee","type":"uint256","internalType":"uint256"},{"name":"maxFee","type":"uint256","internalType":"uint256"}],"outputs":[],"stateMutability":"nonpayable"},{"type":"function","name":"setTreasury","inputs":[{"name":"_treasury","type":"address","internalType":"address"}],"outputs":[],"stateMutability":"nonpayable"},{"type":"function","name":"totalDistributed","inputs":[],"outputs":[{"name":"","type":"uint256","internalType":"uint256"}],"stateMutability":"view"},{"type":"function","name":"totalPlatformRevenue","inputs":[],"outputs":[{"name":"","type":"uint256","internalType":"uint256"}],"stateMutability":"view"},{"type":"function","name":"transferOwnership","inputs":[{"name":"newOwner","type":"address","internalType":"address"}],"outputs":[],"stateMutability":"nonpayable"},{"type":"function","name":"treasury","inputs":[],"outputs":[{"name":"","type":"address","internalType":"address"}],"stateMutability":"view"},{"type":"function","name":"updateFeeDiscount","inputs":[{"name":"user","type":"address","internalType":"address"},{"name":"newDiscount","type":"uint256","internalType":"uint256"}],"outputs":[],"stateMutability":"nonpayable"},{"type":"function","name":"withdrawTreasury","inputs":[{"name":"amount","type":"uint256","internalType":"uint256"},{"name":"recipient","type":"address","internalType":"address"}],"outputs":[],"stateMutability":"nonpayable"},{"type":"event","name":"FeeDiscountUpdated","inputs":[{"name":"user","type":"address","indexed":true,"internalType":"address"},{"name":"newDiscount","type":"uint256","indexed":false,"internalType":"uint256"}],"anonymous":false},{"type":"event","name":"OwnershipTransferred","inputs":[{"name":"previousOwner","type":"address","indexed":true,"internalType":"address"},{"name":"newOwner","type":"address","indexed":true,"internalType":"address"}],"anonymous":false},{"type":"event","name":"Paused","inputs":[{"name":"account","type":"address","indexed":false,"internalType":"address"}],"anonymous":false},{"type":"event","name":"PlatformFeeCalculated","inputs":[{"name":"amount","type":"uint256","indexed":false,"internalType":"uint256"},{"name":"fee","type":"uint256","indexed":false,"internalType":"uint256"}],"anonymous":false},{"type":"event","name":"PlatformRevenueClaimed","inputs":[{"name":"claimer","type":"address","indexed":true,"internalType":"address"},{"name":"amount","type":"uint256","indexed":false,"internalType":"uint256"}],"anonymous":false},{"type":"event","name":"RevenueDistributed","inputs":[{"name":"projectId","type":"uint256","indexed":true,"internalType":"uint256"},{"name":"platformShare","type":"uint256","indexed":false,"internalType":"uint256"},{"name":"investorShare","type":"uint256","indexed":false,"internalType":"uint256"},{"name":"organizerShare","type":"uint256","indexed":false,"internalType":"uint256"}],"anonymous":false},{"type":"event","name":"SuccessFeeCalculated","inputs":[{"name":"profits","type":"uint256","indexed":false,"internalType":"uint256"},{"name":"fee","type":"uint256","indexed":false,"internalType":"uint256"}],"anonymous":false},{"type":"event","name":"TreasuryWithdrawn","inputs":[{"name":"recipient","type":"address","indexed":true,"internalType":"address"},{"name":"amount","type":"uint256","indexed":false,"internalType":"uint256"}],"anonymous":false},{"type":"event","name":"Unpaused","inputs":[{"name":"account","type":"address","indexed":false,"internalType":"address"}],"anonymous":false},{"type":"error","name":"OwnableInvalidOwner","inputs":[{"name":"owner","type":"address","internalType":"address"}]},{"type":"error","name":"OwnableUnauthorizedAccount","inputs":[{"name":"account","type":"address","internalType":"address"}]}],"bytecode":{"object":"0x60806040523461050357604051601f61170538819003918201601f19168301916001600160401b038311848410176105075780849260409485528339810103126105035761005860206100518361053a565b920161053a565b9033156104f0575f543360018060a01b0382167f8be0079c531659141344cd1fd0a4f28419497f9722a3daafe3b4186f6b6457e05f80a36001600160a81b0319163360ff60a01b1916175f5560018055600280546001600160a01b03199081166001600160a01b039384161790915560038054909116929091169190911790556100e061051b565b6101f4808252602080830191825267016345785d8a000060408401908152678ac7230489e80000606085019081525f8052600790925292517f6d5257204ebe7d88fd91ae87941cb2dd9d8062b64ae5a2bd2d28ec40b9fbf6df5590517f6d5257204ebe7d88fd91ae87941cb2dd9d8062b64ae5a2bd2d28ec40b9fbf6e05590517f6d5257204ebe7d88fd91ae87941cb2dd9d8062b64ae5a2bd2d28ec40b9fbf6e155517f6d5257204ebe7d88fd91ae87941cb2dd9d8062b64ae5a2bd2d28ec40b9fbf6e2556101ad61051b565b61019081526101f4602080830191825266b1a2bc2ec5000060408401908152674563918244f400006060850190815260015f52600790925292517fb39221ace053465ec3453ce2b36430bd138b997ecea25c1043da0c366812b8285590517fb39221ace053465ec3453ce2b36430bd138b997ecea25c1043da0c366812b8295590517fb39221ace053465ec3453ce2b36430bd138b997ecea25c1043da0c366812b82a55517fb39221ace053465ec3453ce2b36430bd138b997ecea25c1043da0c366812b82b5561027c61051b565b6101c281526101f4602080830191825267011c37937e08000060408401908152676f05b59d3b2000006060850190815260025f52600790925292517fb7c774451310d1be4108bc180d1b52823cb0ee0274a6c0081bcaf94f115fb96d5590517fb7c774451310d1be4108bc180d1b52823cb0ee0274a6c0081bcaf94f115fb96e5590517fb7c774451310d1be4108bc180d1b52823cb0ee0274a6c0081bcaf94f115fb96f55517fb7c774451310d1be4108bc180d1b52823cb0ee0274a6c0081bcaf94f115fb9705561034c61051b565b61012c81526101f46020808301918252666a94d74f430000604084019081526729a2241af62c00006060850190815260035f52600790925292517f3be6fd20d5acfde5b873b48692cd31f4d3c7e8ee8a813af4696af8859e5ca6c65590517f3be6fd20d5acfde5b873b48692cd31f4d3c7e8ee8a813af4696af8859e5ca6c75590517f3be6fd20d5acfde5b873b48692cd31f4d3c7e8ee8a813af4696af8859e5ca6c855517f3be6fd20d5acfde5b873b48692cd31f4d3c7e8ee8a813af4696af8859e5ca6c95561041b61051b565b61019081526101f4602080830191825266b1a2bc2ec500006040808501918252674563918244f400006060860190815260075f81905290935293517fb7c49cceb9f85950584035457a41ebbd8cf93b9b612733ad25aa9731ac43aad65591517fb7c49cceb9f85950584035457a41ebbd8cf93b9b612733ad25aa9731ac43aad75590517fb7c49cceb9f85950584035457a41ebbd8cf93b9b612733ad25aa9731ac43aad855517fb7c49cceb9f85950584035457a41ebbd8cf93b9b612733ad25aa9731ac43aad955516111b6908161054f8239f35b631e4fbdf760e01b5f525f60045260245ffd5b5f80fd5b634e487b7160e01b5f52604160045260245ffd5b60405190608082016001600160401b0381118382101761050757604052565b51906001600160a01b03821682036105035756fe6080604052600436101561001a575b3615610018575f80fd5b005b5f3560e01c8063020d438614610ce5578063040a4f4214610396578063046a5190146108c65780631cc234ba146108735780632cd9f72b146107a6578063390c754f146107305780635a19cc2e146106c05780635c975abb1461069c57806361d027b314610674578063715018a61461061d5780637325a1c51461054457806376c7a3c7146105295780637cd5c3a51461027c5780638da5cb5b146105025780638ecd89551461043c5780639038176f146104115780639b5655dc146103f65780639f0972c4146103ce578063b7fa7cfc14610396578063bc063e1a1461037a578063e2a90b3014610354578063efca2eed14610337578063f0f4426014610299578063f213edb91461027c578063f2dd2b3c146101c55763f2fde38b0361000e57346101c15760203660031901126101c157610155610d21565b61015d61115a565b6001600160a01b031680156101ae575f80546001600160a01b03198116831782556001600160a01b0316907f8be0079c531659141344cd1fd0a4f28419497f9722a3daafe3b4186f6b6457e09080a3005b631e4fbdf760e01b5f525f60045260245ffd5b5f80fd5b346101c15760403660031901126101c1576101de610d21565b602435906101f760018060a01b03600254163314610f5c565b61138882116102435760207f8c8213355f8c4b06cfd938d2a83ec5b9d1f2ef7af5d62a51a06e8e229c1fdc599160018060a01b031692835f52600882528060405f2055604051908152a2005b60405162461bcd60e51b8152602060048201526011602482015270088d2e6c6deeadce840e8dede40d0d2ced607b1b6044820152606490fd5b346101c1575f3660031901126101c1576020600454604051908152f35b346101c15760203660031901126101c1576102b2610d21565b6102c760018060a01b03600254163314610f5c565b6001600160a01b031680156102f2576bffffffffffffffffffffffff60a01b60035416176003555f80f35b60405162461bcd60e51b815260206004820152601860248201527f496e76616c6964207472656173757279206164647265737300000000000000006044820152606490fd5b346101c1575f3660031901126101c1576020600554604051908152f35b346101c15760203660031901126101c157602061037260043561108e565b604051908152f35b346101c1575f3660031901126101c15760206040516103e88152f35b346101c15760203660031901126101c1576001600160a01b036103b7610d21565b165f526008602052602060405f2054604051908152f35b346101c1575f3660031901126101c1576002546040516001600160a01b039091168152602090f35b346101c1575f3660031901126101c157602047604051908152f35b346101c15760403660031901126101c15760243560088110156101c15761037260209160043561101b565b346101c1575f3660031901126101c15761046160018060a01b03600254163314610f5c565b4780156104c7576104748160045461100e565b6004555f8080808460018060a01b036003541682f1156104bc576040519081527f62e7c8b581e0a5022d2d514d7e366fe69f77d8b356206261bd2058c838d84a8f60203392a2005b6040513d5f823e3d90fd5b60405162461bcd60e51b81526020600482015260136024820152724e6f20726576656e756520746f20636c61696d60681b6044820152606490fd5b346101c1575f3660031901126101c1575f546040516001600160a01b039091168152602090f35b346101c1575f3660031901126101c157602060405160328152f35b346101c15760803660031901126101c15760043560088110156101c1576024359061057a60018060a01b03600254163314610f5c565b603282101580610611575b156105d7576003906040519261059a84610d69565b8352602083016101f48152604084019060443582526105c160608601936064358552610d37565b9451855551600185015551600284015551910155005b60405162461bcd60e51b8152602060048201526012602482015271125b9d985b1a590819995948185b5bdd5b9d60721b6044820152606490fd5b506103e8821115610585565b346101c1575f3660031901126101c15761063561115a565b5f80546001600160a01b0319811682556001600160a01b03167f8be0079c531659141344cd1fd0a4f28419497f9722a3daafe3b4186f6b6457e08280a3005b346101c1575f3660031901126101c1576003546040516001600160a01b039091168152602090f35b346101c1575f3660031901126101c157602060ff5f5460a01c166040519015158152f35b346101c15760203660031901126101c1576004355f52600660205260e060405f208054906001810154906002810154600382015460048301549160ff600660058601549501541694604051968752602087015260408601526060850152608084015260a0830152151560c0820152f35b346101c15760203660031901126101c15760043560088110156101c157610758608091610d37565b60606040519161076783610d69565b805492838152600182015460208201526003600283015492836040840152015492839101526040519283526101f4602084015260408301526060820152f35b346101c15760403660031901126101c1576004356107c2610d0b565b6107d760018060a01b03600254163314610f5c565b478211610837576001600160a01b0316905f8183811561082d575b5f92839283928392f1156104bc5760207f41fdd680478135993bc53fb2ffaf9560951b57ef62ff6badd02b61e018b4f17f91604051908152a2005b6108fc92506107f2565b60405162461bcd60e51b8152602060048201526014602482015273496e73756666696369656e742062616c616e636560601b6044820152606490fd5b346101c15760203660031901126101c15760043560088110156101c15761089b608091610d37565b8054906001810154906003600282015491015491604051938452602084015260408301526060820152f35b346101c15760603660031901126101c157600435602435604435916108f660018060a01b03600254163314610f5c565b828210610ca0576109078383610fa0565b9160245f6001600160a01b0361091c856110ab565b1660405192838092635f8439e360e01b82528760048301525afa80156104bc575f90610ac2575b6060915001516008811015610aae5761095f610978918661101b565b61097261096b8661108e565b809261100e565b94610fa0565b90600660405161098781610d4e565b868152602081019283526040810186815260608201858152608083019089825260a084019242845260c085019660018852895f528660205260405f2095518655516001860155516002850155516003840155516004830155516005820155019051151560ff80198354169116179055610a028360045461100e565b600455610a1a610a12828661100e565b60055461100e565b6005555f8080808660018060a01b0360035416828215610aa5575bf1156104bc57610aa1917f82add5776024af35e86a496ae5d05b3c1587e1b0ac31e80c64db4a3599a065d860405180610a81858989846040919493926060820195825260208201520152565b0390a2604051938493846040919493926060820195825260208201520152565b0390f35b506108fc610a35565b634e487b7160e01b5f52602160045260245ffd5b503d805f833e610ad28183610d84565b8101906020818303126101c1578051906001600160401b0382116101c15701610220818303126101c1576040519061022082018281106001600160401b03821117610c8c576040528051825260208101516001600160401b0381116101c15783610b3d918301610fc8565b602083015260408101516001600160401b0381116101c15783610b61918301610fc8565b6040830152606081015160088110156101c157606083015260808101516001600160401b0381116101c15783610b98918301610fc8565b608083015260a081015160a083015260c081015160c083015260e081015160e08301526101008101516101008301526101208101516001600160401b0381116101c15783610be7918301610fc8565b610120830152610bfa6101408201610da5565b61014083015261016081015160078110156101c1576101608301526101808101516101808301526101a08101516101a08301526101c08101516101c08301526101e08101516001600160401b0381116101c15783610c59918301610fc8565b6101e0830152610200810151926001600160401b0384116101c157606093610c819201610fc8565b610200820152610943565b634e487b7160e01b5f52604160045260245ffd5b60405162461bcd60e51b815260206004820152601d60248201527f526576656e7565206d75737420636f76657220696e766573746d656e740000006044820152606490fd5b346101c15760403660031901126101c1576020610372610d03610d0b565b600435610de0565b602435906001600160a01b03821682036101c157565b600435906001600160a01b03821682036101c157565b6008811015610aae575f52600760205260405f2090565b60e081019081106001600160401b03821117610c8c57604052565b608081019081106001600160401b03821117610c8c57604052565b90601f801991011681019081106001600160401b03821117610c8c57604052565b51906001600160a01b03821682036101c157565b81810292918115918404141715610dcc57565b634e487b7160e01b5f52601160045260245ffd5b805f52600660205260405f2060405192610df984610d4e565b81548452600182015460208501526002820154604085015260038201546060850152600482015460ff60066080870194838652600581015460a0890152015416151560c086015215610f545760a09060446001600160a01b03610e5b866110ab565b16946040519586938492632bd8fc4560e01b84526004840152600180871b031660248301525afa9182156104bc575f92610ec2575b506020610ea1920151905190610db9565b9051908115610eae570490565b634e487b7160e01b5f52601260045260245ffd5b915060a0823d60a011610f4c575b81610edd60a09383610d84565b810103126101c1576040519160a083018381106001600160401b03821117610c8c57604052610f0b81610da5565b8352602081015160208401526040810151604084015260608101519283151584036101c1576080602092610ea1956060840152015160808201529250610e90565b3d9150610ed0565b505050505f90565b15610f6357565b60405162461bcd60e51b81526020600482015260156024820152744f6e6c7920706c6174666f726d20666163746f727960581b6044820152606490fd5b91908203918211610dcc57565b6001600160401b038111610c8c57601f01601f191660200190565b81601f820112156101c157805190610fdf82610fad565b92610fed6040519485610d84565b828452602083830101116101c157815f9260208093018386015e8301015290565b91908201809211610dcc57565b9061102590610d37565b6127106110656040519361103885610d69565b83549081865260018501546020870152606060036002870154966040890197885201549601958652610db9565b0490518082115f146110865750905b5180821015611081575090565b905090565b905090611074565b6101f48102908082046101f41490151715610dcc57612710900490565b60025460405163107046bd60e01b602082019081526024808301949094529281525f9283926001600160a01b0316916110e5604482610d84565b51915afa3d15611152573d906110fa82610fad565b916111086040519384610d84565b82523d5f602084013e5b80611147575b61112157505f90565b6020818051810103126101c157602001516001600160a01b038116908190036101c15790565b506020815114611118565b606090611112565b5f546001600160a01b0316330361116d57565b63118cdaa760e01b5f523360045260245ffdfea26469706673582212200baeda63a720183263f107363f526c63884e05e9a9241c34543e3dce42726e5364736f6c634300081e0033","linkReferences":{}},"methodIdentifiers":{"MAX_FEE()":"bc063e1a","MIN_FEE()":"76c7a3c7","calculatePlatformFee(uint256,uint8)":"9038176f","calculateSuccessFee(uint256)":"e2a90b30","claimPlatformRevenue()":"8ecd8955","distributeRevenue(uint256,uint256,uint256)":"046a5190","feeDiscounts(address)":"040a4f42","feeStructures(uint8)":"1cc234ba","getFeeDiscount(address)":"b7fa7cfc","getFeeStructure(uint8)":"390c754f","getInvestorShare(uint256,address)":"020d4386","getPlatformRevenue()":"7cd5c3a5","getTreasuryBalance()":"9b5655dc","owner()":"8da5cb5b","paused()":"5c975abb","platformFactory()":"9f0972c4","renounceOwnership()":"715018a6","returnDetails(uint256)":"5a19cc2e","setFeeStructure(uint8,uint256,uint256,uint256)":"7325a1c5","setTreasury(address)":"f0f44260","totalDistributed()":"efca2eed","totalPlatformRevenue()":"f213edb9","transferOwnership(address)":"f2fde38b","treasury()":"61d027b3","updateFeeDiscount(address,uint256)":"f2dd2b3c","withdrawTreasury(uint256,address)":"2cd9f72b"},"id":60}