{"abi":[{"type":"constructor","inputs":[{"name":"_governanceToken","type":"address","internalType":"contract GovernanceToken"}],"stateMutability":"nonpayable"},{"type":"function","name":"execute","inputs":[{"name":"proposalId","type":"uint256","internalType":"uint256"}],"outputs":[],"stateMutability":"nonpayable"},{"type":"function","name":"governanceToken","inputs":[],"outputs":[{"name":"","type":"address","internalType":"contract GovernanceToken"}],"stateMutability":"view"},{"type":"function","name":"proposalCount","inputs":[],"outputs":[{"name":"","type":"uint256","internalType":"uint256"}],"stateMutability":"view"},{"type":"function","name":"proposalThreshold","inputs":[],"outputs":[{"name":"","type":"uint256","internalType":"uint256"}],"stateMutability":"view"},{"type":"function","name":"proposals","inputs":[{"name":"","type":"uint256","internalType":"uint256"}],"outputs":[{"name":"proposer","type":"address","internalType":"address"},{"name":"description","type":"string","internalType":"string"},{"name":"startBlock","type":"uint256","internalType":"uint256"},{"name":"endBlock","type":"uint256","internalType":"uint256"},{"name":"forVotes","type":"uint256","internalType":"uint256"},{"name":"againstVotes","type":"uint256","internalType":"uint256"},{"name":"executed","type":"bool","internalType":"bool"}],"stateMutability":"view"},{"type":"function","name":"propose","inputs":[{"name":"targets","type":"address[]","internalType":"address[]"},{"name":"values","type":"uint256[]","internalType":"uint256[]"},{"name":"calldatas","type":"bytes[]","internalType":"bytes[]"},{"name":"description","type":"string","internalType":"string"}],"outputs":[{"name":"","type":"uint256","internalType":"uint256"}],"stateMutability":"nonpayable"},{"type":"function","name":"quorumPercentage","inputs":[],"outputs":[{"name":"","type":"uint256","internalType":"uint256"}],"stateMutability":"view"},{"type":"function","name":"votingDelay","inputs":[],"outputs":[{"name":"","type":"uint256","internalType":"uint256"}],"stateMutability":"view"},{"type":"function","name":"votingPeriod","inputs":[],"outputs":[{"name":"","type":"uint256","internalType":"uint256"}],"stateMutability":"view"},{"type":"event","name":"ProposalCreated","inputs":[{"name":"proposalId","type":"uint256","indexed":true,"internalType":"uint256"},{"name":"proposer","type":"address","indexed":true,"internalType":"address"},{"name":"description","type":"string","indexed":false,"internalType":"string"}],"anonymous":false},{"type":"event","name":"ProposalExecuted","inputs":[{"name":"proposalId","type":"uint256","indexed":true,"internalType":"uint256"}],"anonymous":false}],"bytecode":{"object":"0x608034608757601f610e7938819003918201601f19168301916001600160401b03831184841017608b57808492602094604052833981010312608757516001600160a01b03811690819003608757600160035561c4e06004556004600555683635c9adc5dea0000060065560018060a01b03195f5416175f55604051610dd990816100a08239f35b5f80fd5b634e487b7160e01b5f52604160045260245ffdfe6080806040526004361015610012575f80fd5b5f3560e01c908163013cf08b14610ae75750806302a251a314610aca5780633932abb114610aad5780634fa76ec914610a905780637d5e81e21461042d578063b58131b014610410578063da35c664146103f3578063f96dae0a146103cc5763fe0d94c11461007f575f80fd5b3461030e57602036600319011261030e57600435805f52600260205260405f2060068101544311156103945760098101805460ff811661035c576007830154600884015480821115610325576100d491610d6d565b5f546040516318160ddd60e01b815290602090829060049082906001600160a01b03165afa90811561031a575f916102e4575b50600554908181029181830414901517156102d05760649004116102965760019060ff19161790555f600182016003600284019301915b815481101561026f576101518183610d7a565b905460039190911b1c6001600160a01b031661016d8286610d7a565b90549060031b1c61017e8386610d7a565b5090604051915f9080549061019282610c09565b91600181169081156102585750600114610226575b5050915f939181859403925af13d15610221573d6101c481610c9f565b906101d26040519283610c41565b81525f60203d92013e5b156101e95760010161013e565b60405162461bcd60e51b815260206004820152601060248201526f115e1958dd5d1a5bdb8819985a5b195960821b6044820152606490fd5b6101dc565b9091505f5260205f205f905b828210610244575050820181836101a7565b600181602092548488015201910190610232565b60ff191686525050801515028301905081836101a7565b847f712ae1383f79ac853f8d882153778e0260ef8f03b504e2866e0593e04d2b291f5f80a2005b60405162461bcd60e51b8152602060048201526012602482015271145d5bdc9d5b481b9bdd081c995858da195960721b6044820152606490fd5b634e487b7160e01b5f52601160045260245ffd5b90506020813d602011610312575b816102ff60209383610c41565b8101031261030e57515f610107565b5f80fd5b3d91506102f2565b6040513d5f823e3d90fd5b60405162461bcd60e51b815260206004820152600f60248201526e141c9bdc1bdcd85b0819985a5b1959608a1b6044820152606490fd5b60405162461bcd60e51b815260206004820152601060248201526f105b1c9958591e48195e1958dd5d195960821b6044820152606490fd5b60405162461bcd60e51b815260206004820152601060248201526f159bdd1a5b99c81b9bdd08195b99195960821b6044820152606490fd5b3461030e575f36600319011261030e575f546040516001600160a01b039091168152602090f35b3461030e575f36600319011261030e576020600154604051908152f35b3461030e575f36600319011261030e576020600654604051908152f35b3461030e57608036600319011261030e5760043567ffffffffffffffff811161030e573660238201121561030e57806004013561046981610c87565b916104776040519384610c41565b81835260208301906024829360051b8201019036821161030e57602401915b818310610a705750505060243567ffffffffffffffff811161030e573660238201121561030e5780600401356104cb81610c87565b916104d96040519384610c41565b818352602083016024819360051b8301019136831161030e57602401905b828210610a60575050506044359067ffffffffffffffff821161030e573660238301121561030e5781600401359061052e82610c87565b9261053c6040519485610c41565b82845260208401906024829460051b8201019036821161030e5760248101925b828410610a1f575050505060643567ffffffffffffffff811161030e573660238201121561030e57610598903690602481600401359101610cbb565b5f549094906001600160a01b0316435f1981019081116102d057602090604460405180948193630748d63560e31b835233600484015260248301525afa90811561031a575f916109ed575b50600654116109b657600154955f1987146102d05760018701600155865f52600260205260405f2097336bffffffffffffffffffffffff60a01b8a54161789556001890190519167ffffffffffffffff831161081857600160401b83116108185761065383835481855584610d07565b905f5260205f205f5b83811061099957505050506002870190519167ffffffffffffffff831161081857600160401b83116108185761069783835481855584610d07565b905f5260205f205f5b838110610985575050505060038501915190600160401b821161081857825482845580831061090e575b50915f5260205f20915f905b82821061082c5750505050600483019281519367ffffffffffffffff8511610818578461070f6020966107098454610c09565b84610d2a565b85601f82116001146107b957908061073b925f916107ae575b508160011b915f199060031b1c19161790565b90555b61074a60035443610d6d565b6005820155600661076961076060035443610d6d565b60045490610d6d565b910155817f7585f467599d0f008985f231af99293be388626ac16ca59505c2f8f88969cd63604051858152806107a3339588830190610c63565b0390a3604051908152f35b905085015188610728565b601f19821690835f52805f20915f5b818110610801575090836001949392106107e9575b5050811b01905561073e565b8601515f1960f88460031b161c1916905587806107dd565b91928960018192868b0151815501940192016107c8565b634e487b7160e01b5f52604160045260245ffd5b805180519067ffffffffffffffff8211610818576108548261084e8854610c09565b88610d2a565b602090601f83116001146108a5579261088b836001959460209487965f9261089a575b50508160011b915f199060031b1c19161790565b87555b019401910190926106d6565b015190508d80610877565b90601f19831691875f52815f20925f5b8181106108f657509360209360019693879693838895106108de575b505050811b01875561088e565b01515f1960f88460031b161c191690558c80806108d1565b929360206001819287860151815501950193016108b5565b835f528260205f2091820191015b81811061092957506106ca565b8061093660019254610c09565b80610943575b500161091c565b601f8111831461095857505f81555b8961093c565b61097490825f5283601f60205f20920160051c82019101610cf1565b805f525f6020812081835555610952565b6001906020845194019381840155016106a0565b82516001600160a01b03168183015560209092019160010161065c565b60405162461bcd60e51b815260206004820152600f60248201526e10995b1bddc81d1a1c995cda1bdb19608a1b6044820152606490fd5b90506020813d602011610a17575b81610a0860209383610c41565b8101031261030e5751886105e3565b3d91506109fb565b833567ffffffffffffffff811161030e5782013660438201121561030e57602091610a5583923690604460248201359101610cbb565b81520193019261055c565b81358152602091820191016104f7565b82356001600160a01b038116810361030e57815260209283019201610496565b3461030e575f36600319011261030e576020600554604051908152f35b3461030e575f36600319011261030e576020600354604051908152f35b3461030e575f36600319011261030e576020600454604051908152f35b3461030e57602036600319011261030e576004355f52600260205260405f2060018060a01b038154169060048101835f825492610b2384610c09565b8084529360018116908115610be75750600114610ba3575b50610b4892500384610c41565b600581015490600681015490600781015460ff600960088401549301541692610b83604051978897885260e0602089015260e0880190610c63565b9460408701526060860152608085015260a0840152151560c08301520390f35b90505f9291925260205f20905f915b818310610bcb575050906020610b489282010186610b3b565b6020919350806001915483858a01015201910190918592610bb2565b905060209250610b4894915060ff191682840152151560051b82010186610b3b565b90600182811c92168015610c37575b6020831014610c2357565b634e487b7160e01b5f52602260045260245ffd5b91607f1691610c18565b90601f8019910116810190811067ffffffffffffffff82111761081857604052565b805180835260209291819084018484015e5f828201840152601f01601f1916010190565b67ffffffffffffffff81116108185760051b60200190565b67ffffffffffffffff811161081857601f01601f191660200190565b929192610cc782610c9f565b91610cd56040519384610c41565b82948184528183011161030e578281602093845f960137010152565b818110610cfc575050565b5f8155600101610cf1565b91818110610d1457505050565b610d28925f5260205f209182019101610cf1565b565b9190601f8111610d3957505050565b610d28925f5260205f20906020601f840160051c83019310610d63575b601f0160051c0190610cf1565b9091508190610d56565b919082018092116102d057565b8054821015610d8f575f5260205f2001905f90565b634e487b7160e01b5f52603260045260245ffdfea2646970667358221220cc3f74051525ce175bdf5aac90bee99551fb77c15d8121e67863a29cbdd7dac264736f6c634300081e0033","linkReferences":{}},"methodIdentifiers":{"execute(uint256)":"fe0d94c1","governanceToken()":"f96dae0a","proposalCount()":"da35c664","proposalThreshold()":"b58131b0","proposals(uint256)":"013cf08b","propose(address[],uint256[],bytes[],string)":"7d5e81e2","quorumPercentage()":"4fa76ec9","votingDelay()":"3932abb1","votingPeriod()":"02a251a3"},"id":53}