{"abi":[{"type":"constructor","inputs":[{"name":"_platformFactory","type":"address","internalType":"address"}],"stateMutability":"nonpayable"},{"type":"function","name":"CLOCK_MODE","inputs":[],"outputs":[{"name":"","type":"string","internalType":"string"}],"stateMutability":"view"},{"type":"function","name":"DOMAIN_SEPARATOR","inputs":[],"outputs":[{"name":"","type":"bytes32","internalType":"bytes32"}],"stateMutability":"view"},{"type":"function","name":"INITIAL_SUPPLY","inputs":[],"outputs":[{"name":"","type":"uint256","internalType":"uint256"}],"stateMutability":"view"},{"type":"function","name":"MAX_SUPPLY","inputs":[],"outputs":[{"name":"","type":"uint256","internalType":"uint256"}],"stateMutability":"view"},{"type":"function","name":"allowance","inputs":[{"name":"owner","type":"address","internalType":"address"},{"name":"spender","type":"address","internalType":"address"}],"outputs":[{"name":"","type":"uint256","internalType":"uint256"}],"stateMutability":"view"},{"type":"function","name":"approve","inputs":[{"name":"spender","type":"address","internalType":"address"},{"name":"value","type":"uint256","internalType":"uint256"}],"outputs":[{"name":"","type":"bool","internalType":"bool"}],"stateMutability":"nonpayable"},{"type":"function","name":"balanceOf","inputs":[{"name":"account","type":"address","internalType":"address"}],"outputs":[{"name":"","type":"uint256","internalType":"uint256"}],"stateMutability":"view"},{"type":"function","name":"burn","inputs":[{"name":"amount","type":"uint256","internalType":"uint256"}],"outputs":[],"stateMutability":"nonpayable"},{"type":"function","name":"checkpoints","inputs":[{"name":"account","type":"address","internalType":"address"},{"name":"pos","type":"uint32","internalType":"uint32"}],"outputs":[{"name":"","type":"tuple","internalType":"struct Checkpoints.Checkpoint208","components":[{"name":"_key","type":"uint48","internalType":"uint48"},{"name":"_value","type":"uint208","internalType":"uint208"}]}],"stateMutability":"view"},{"type":"function","name":"clock","inputs":[],"outputs":[{"name":"","type":"uint48","internalType":"uint48"}],"stateMutability":"view"},{"type":"function","name":"decimals","inputs":[],"outputs":[{"name":"","type":"uint8","internalType":"uint8"}],"stateMutability":"view"},{"type":"function","name":"delegate","inputs":[{"name":"delegatee","type":"address","internalType":"address"}],"outputs":[],"stateMutability":"nonpayable"},{"type":"function","name":"delegateBySig","inputs":[{"name":"delegatee","type":"address","internalType":"address"},{"name":"nonce","type":"uint256","internalType":"uint256"},{"name":"expiry","type":"uint256","internalType":"uint256"},{"name":"v","type":"uint8","internalType":"uint8"},{"name":"r","type":"bytes32","internalType":"bytes32"},{"name":"s","type":"bytes32","internalType":"bytes32"}],"outputs":[],"stateMutability":"nonpayable"},{"type":"function","name":"delegates","inputs":[{"name":"account","type":"address","internalType":"address"}],"outputs":[{"name":"","type":"address","internalType":"address"}],"stateMutability":"view"},{"type":"function","name":"eip712Domain","inputs":[],"outputs":[{"name":"fields","type":"bytes1","internalType":"bytes1"},{"name":"name","type":"string","internalType":"string"},{"name":"version","type":"string","internalType":"string"},{"name":"chainId","type":"uint256","internalType":"uint256"},{"name":"verifyingContract","type":"address","internalType":"address"},{"name":"salt","type":"bytes32","internalType":"bytes32"},{"name":"extensions","type":"uint256[]","internalType":"uint256[]"}],"stateMutability":"view"},{"type":"function","name":"getPastTotalSupply","inputs":[{"name":"timepoint","type":"uint256","internalType":"uint256"}],"outputs":[{"name":"","type":"uint256","internalType":"uint256"}],"stateMutability":"view"},{"type":"function","name":"getPastVotes","inputs":[{"name":"account","type":"address","internalType":"address"},{"name":"timepoint","type":"uint256","internalType":"uint256"}],"outputs":[{"name":"","type":"uint256","internalType":"uint256"}],"stateMutability":"view"},{"type":"function","name":"getVotes","inputs":[{"name":"account","type":"address","internalType":"address"}],"outputs":[{"name":"","type":"uint256","internalType":"uint256"}],"stateMutability":"view"},{"type":"function","name":"maxSupply","inputs":[],"outputs":[{"name":"","type":"uint256","internalType":"uint256"}],"stateMutability":"view"},{"type":"function","name":"mint","inputs":[{"name":"to","type":"address","internalType":"address"},{"name":"amount","type":"uint256","internalType":"uint256"}],"outputs":[],"stateMutability":"nonpayable"},{"type":"function","name":"name","inputs":[],"outputs":[{"name":"","type":"string","internalType":"string"}],"stateMutability":"view"},{"type":"function","name":"nonces","inputs":[{"name":"owner","type":"address","internalType":"address"}],"outputs":[{"name":"","type":"uint256","internalType":"uint256"}],"stateMutability":"view"},{"type":"function","name":"numCheckpoints","inputs":[{"name":"account","type":"address","internalType":"address"}],"outputs":[{"name":"","type":"uint32","internalType":"uint32"}],"stateMutability":"view"},{"type":"function","name":"owner","inputs":[],"outputs":[{"name":"","type":"address","internalType":"address"}],"stateMutability":"view"},{"type":"function","name":"permit","inputs":[{"name":"owner","type":"address","internalType":"address"},{"name":"spender","type":"address","internalType":"address"},{"name":"value","type":"uint256","internalType":"uint256"},{"name":"deadline","type":"uint256","internalType":"uint256"},{"name":"v","type":"uint8","internalType":"uint8"},{"name":"r","type":"bytes32","internalType":"bytes32"},{"name":"s","type":"bytes32","internalType":"bytes32"}],"outputs":[],"stateMutability":"nonpayable"},{"type":"function","name":"platformFactory","inputs":[],"outputs":[{"name":"","type":"address","internalType":"address"}],"stateMutability":"view"},{"type":"function","name":"recoverERC20","inputs":[{"name":"tokenAddress","type":"address","internalType":"address"},{"name":"amount","type":"uint256","internalType":"uint256"}],"outputs":[],"stateMutability":"nonpayable"},{"type":"function","name":"renounceOwnership","inputs":[],"outputs":[],"stateMutability":"nonpayable"},{"type":"function","name":"setMaxSupply","inputs":[{"name":"newMaxSupply","type":"uint256","internalType":"uint256"}],"outputs":[],"stateMutability":"nonpayable"},{"type":"function","name":"setPlatformFactory","inputs":[{"name":"_platformFactory","type":"address","internalType":"address"}],"outputs":[],"stateMutability":"nonpayable"},{"type":"function","name":"symbol","inputs":[],"outputs":[{"name":"","type":"string","internalType":"string"}],"stateMutability":"view"},{"type":"function","name":"totalSupply","inputs":[],"outputs":[{"name":"","type":"uint256","internalType":"uint256"}],"stateMutability":"view"},{"type":"function","name":"transfer","inputs":[{"name":"to","type":"address","internalType":"address"},{"name":"value","type":"uint256","internalType":"uint256"}],"outputs":[{"name":"","type":"bool","internalType":"bool"}],"stateMutability":"nonpayable"},{"type":"function","name":"transferFrom","inputs":[{"name":"from","type":"address","internalType":"address"},{"name":"to","type":"address","internalType":"address"},{"name":"value","type":"uint256","internalType":"uint256"}],"outputs":[{"name":"","type":"bool","internalType":"bool"}],"stateMutability":"nonpayable"},{"type":"function","name":"transferOwnership","inputs":[{"name":"newOwner","type":"address","internalType":"address"}],"outputs":[],"stateMutability":"nonpayable"},{"type":"event","name":"Approval","inputs":[{"name":"owner","type":"address","indexed":true,"internalType":"address"},{"name":"spender","type":"address","indexed":true,"internalType":"address"},{"name":"value","type":"uint256","indexed":false,"internalType":"uint256"}],"anonymous":false},{"type":"event","name":"DelegateChanged","inputs":[{"name":"delegator","type":"address","indexed":true,"internalType":"address"},{"name":"fromDelegate","type":"address","indexed":true,"internalType":"address"},{"name":"toDelegate","type":"address","indexed":true,"internalType":"address"}],"anonymous":false},{"type":"event","name":"DelegateVotesChanged","inputs":[{"name":"delegate","type":"address","indexed":true,"internalType":"address"},{"name":"previousVotes","type":"uint256","indexed":false,"internalType":"uint256"},{"name":"newVotes","type":"uint256","indexed":false,"internalType":"uint256"}],"anonymous":false},{"type":"event","name":"EIP712DomainChanged","inputs":[],"anonymous":false},{"type":"event","name":"OwnershipTransferred","inputs":[{"name":"previousOwner","type":"address","indexed":true,"internalType":"address"},{"name":"newOwner","type":"address","indexed":true,"internalType":"address"}],"anonymous":false},{"type":"event","name":"PlatformFactoryUpdated","inputs":[{"name":"newFactory","type":"address","indexed":false,"internalType":"address"}],"anonymous":false},{"type":"event","name":"TokensBurned","inputs":[{"name":"from","type":"address","indexed":true,"internalType":"address"},{"name":"amount","type":"uint256","indexed":false,"internalType":"uint256"}],"anonymous":false},{"type":"event","name":"TokensMinted","inputs":[{"name":"to","type":"address","indexed":true,"internalType":"address"},{"name":"amount","type":"uint256","indexed":false,"internalType":"uint256"}],"anonymous":false},{"type":"event","name":"Transfer","inputs":[{"name":"from","type":"address","indexed":true,"internalType":"address"},{"name":"to","type":"address","indexed":true,"internalType":"address"},{"name":"value","type":"uint256","indexed":false,"internalType":"uint256"}],"anonymous":false},{"type":"error","name":"CheckpointUnorderedInsertion","inputs":[]},{"type":"error","name":"ECDSAInvalidSignature","inputs":[]},{"type":"error","name":"ECDSAInvalidSignatureLength","inputs":[{"name":"length","type":"uint256","internalType":"uint256"}]},{"type":"error","name":"ECDSAInvalidSignatureS","inputs":[{"name":"s","type":"bytes32","internalType":"bytes32"}]},{"type":"error","name":"ERC20ExceededSafeSupply","inputs":[{"name":"increasedSupply","type":"uint256","internalType":"uint256"},{"name":"cap","type":"uint256","internalType":"uint256"}]},{"type":"error","name":"ERC20InsufficientAllowance","inputs":[{"name":"spender","type":"address","internalType":"address"},{"name":"allowance","type":"uint256","internalType":"uint256"},{"name":"needed","type":"uint256","internalType":"uint256"}]},{"type":"error","name":"ERC20InsufficientBalance","inputs":[{"name":"sender","type":"address","internalType":"address"},{"name":"balance","type":"uint256","internalType":"uint256"},{"name":"needed","type":"uint256","internalType":"uint256"}]},{"type":"error","name":"ERC20InvalidApprover","inputs":[{"name":"approver","type":"address","internalType":"address"}]},{"type":"error","name":"ERC20InvalidReceiver","inputs":[{"name":"receiver","type":"address","internalType":"address"}]},{"type":"error","name":"ERC20InvalidSender","inputs":[{"name":"sender","type":"address","internalType":"address"}]},{"type":"error","name":"ERC20InvalidSpender","inputs":[{"name":"spender","type":"address","internalType":"address"}]},{"type":"error","name":"ERC2612ExpiredSignature","inputs":[{"name":"deadline","type":"uint256","internalType":"uint256"}]},{"type":"error","name":"ERC2612InvalidSigner","inputs":[{"name":"signer","type":"address","internalType":"address"},{"name":"owner","type":"address","internalType":"address"}]},{"type":"error","name":"ERC5805FutureLookup","inputs":[{"name":"timepoint","type":"uint256","internalType":"uint256"},{"name":"clock","type":"uint48","internalType":"uint48"}]},{"type":"error","name":"ERC6372InconsistentClock","inputs":[]},{"type":"error","name":"InvalidAccountNonce","inputs":[{"name":"account","type":"address","internalType":"address"},{"name":"currentNonce","type":"uint256","internalType":"uint256"}]},{"type":"error","name":"InvalidShortString","inputs":[]},{"type":"error","name":"OwnableInvalidOwner","inputs":[{"name":"owner","type":"address","internalType":"address"}]},{"type":"error","name":"OwnableUnauthorizedAccount","inputs":[{"name":"account","type":"address","internalType":"address"}]},{"type":"error","name":"SafeCastOverflowedUintDowncast","inputs":[{"name":"bits","type":"uint8","internalType":"uint8"},{"name":"value","type":"uint256","internalType":"uint256"}]},{"type":"error","name":"StringTooLong","inputs":[{"name":"str","type":"string","internalType":"string"}]},{"type":"error","name":"VotesExpiredSignature","inputs":[{"name":"expiry","type":"uint256","internalType":"uint256"}]}],"bytecode":{"object":"0x6101606040523461009457602061304a803803809161001d826100ac565b610160391261009457610160516001600160a01b03811681036100945761004390610171565b6040516122549081610db68239608051816115b4015260a05181611671015260c0518161157e015260e051816116030152610100518161162901526101205181610a8001526101405181610aa90152f35b5f80fd5b634e487b7160e01b5f52604160045260245ffd5b610160601f91909101601f19168101906001600160401b038211908210176100d357604052565b610098565b601f909101601f19168101906001600160401b038211908210176100d357604052565b6040519061010a6040836100d8565b565b6040519061011b6040836100d8565b60038252565b604051906101306040836100d8565b60018252565b604051906101456040836100d8565b601a82527f43726f77646c656e6420476f7665726e616e636520546f6b656e0000000000006020830152565b610179610136565b610181610136565b9061018a61010c565b906210d1d560ea1b602083015261019f610121565b603160f81b60208201908152845190949193916001600160401b0382116100d3576101d4826101cf60035461033b565b610373565b602090601f83116001146102b45791806102089261021095945f926102a9575b50508160011b915f199060031b1c19161790565b600355610412565b61021981610620565b6101205261022682610715565b610140526020815191012060e052519020610100524660a052610247610807565b6080523060c05233156102955761010a90610261336105d8565b600c80546001600160a01b0319166001600160a01b0383161790556102906a52b7d2dcc80cd2e4000000600d55565b6104eb565b631e4fbdf760e01b5f90815260045260245ffd5b015190505f806101f4565b60035f52601f19831691907fc2575a0e9e593c00f959f8c92f12db2869c3395a3b0502d05e2516446f71f85b925f5b81811061032357509160019391856102109796941061030b575b505050811b01600355610412565b01515f1960f88460031b161c191690555f80806102fd565b929360206001819287860151815501950193016102e3565b90600182811c92168015610369575b602083101461035557565b634e487b7160e01b5f52602260045260245ffd5b91607f169161034a565b601f811161037f575050565b60035f5260205f20906020601f840160051c830193106103b9575b601f0160051c01905b8181106103ae575050565b5f81556001016103a3565b909150819061039a565b601f82116103d057505050565b5f5260205f20906020601f840160051c83019310610408575b601f0160051c01905b8181106103fd575050565b5f81556001016103f2565b90915081906103e9565b80519091906001600160401b0381116100d35761043b8161043460045461033b565b60046103c3565b602092601f821160011461046f5761046a929382915f926102a95750508160011b915f199060031b1c19161790565b600455565b60045f52601f198216937f8a35acfbc15ff81a39ae7d344fd709f28e8600b4aa8c65c6b64bfe7fe36bd19b915f5b8681106104d357508360019596106104bb575b505050811b01600455565b01515f1960f88460031b161c191690555f80806104b0565b9192602060018192868501518155019401920161049d565b6001600160a01b03811680156105c5576002546a084595161401484a00000081018091116105c0576002556001600160a01b0382165f9081526020819052604090206a084595161401484a00000081540190555f7fddf252ad1be2c89b69c2b068fc378daa952ba7f163c4a11628f55a4df523b3ef6040518061057e6a084595161401484a000000829190602083019252565b0390a36002546001600160d01b03908181116105ab5750506a084595161401484a00000061010a916108e4565b630e58ae9360e11b5f5260045260245260445ffd5b6108d0565b63ec442f0560e01b5f525f60045260245ffd5b600b80546001600160a01b039283166001600160a01b0319821681179092559091167f8be0079c531659141344cd1fd0a4f28419497f9722a3daafe3b4186f6b6457e05f80a3565b908151602081105f1461063b57509061063890610865565b90565b6001600160401b0381116100d35761065f8161065860055461033b565b60056103c3565b602092601f82116001146106965761068e929382915f926102a95750508160011b915f199060031b1c19161790565b60055560ff90565b60055f52601f198216937f036b6384b5eca791c62761152d0c79bb0604c104a5fb6f4eb0703f3154bb3db0915f5b8681106106fd57508360019596106106e5575b505050811b0160055560ff90565b01515f1960f88460031b161c191690555f80806106d7565b919260206001819286850151815501940192016106c4565b908151602081105f1461072d57509061063890610865565b6001600160401b0381116100d3576107518161074a60065461033b565b60066103c3565b602092601f821160011461078857610780929382915f926102a95750508160011b915f199060031b1c19161790565b60065560ff90565b60065f52601f198216937ff652222313e28459528d920b65115c16c04f3efc82aaedc97be59f3f377c0d3f915f5b8681106107ef57508360019596106107d7575b505050811b0160065560ff90565b01515f1960f88460031b161c191690555f80806107c9565b919260206001819286850151815501940192016107b6565b60e051610100516040519060208201927f8b73c3c69bb8fe3d512ecc4cf759cc79239f7b179b0ffacaa9a75d522b39400f8452604083015260608201524660808201523060a082015260a0815261085f60c0826100d8565b51902090565b601f815111610890576020815191015160208210610881571790565b5f198260200360031b1b161790565b604460209160405192839163305a27a960e01b83528160048401528051918291826024860152018484015e5f828201840152601f01601f19168101030190fd5b634e487b7160e01b5f52601160045260245ffd5b906108ee816109e3565b9165ffffffffffff43116109cb57600a5480610995575061092861091861010a945f5b6001610d59565b65ffffffffffff4316600a610c83565b50506001600160a01b0316801561097d575b60086020527f5eff886ea0ce6ca488a3d6e336d6c0f75f46d19b42c06ce5ee98e42c96d256c7545f9182526040909120546001600160a01b039081169116610b12565b61098e610989836109e3565b610a14565b505061093a565b92835f198101116105c057600a5f525f51602061300a5f395f51905f529093015461010a9361092891610918919060301c610911565b6306dfcc6560e41b5f5260306004524360245260445ffd5b6001600160d01b0381116109fd576001600160d01b031690565b6306dfcc6560e41b5f5260d060045260245260445ffd5b65ffffffffffff43116109cb57600a5480610a3e5750610918610a3a915f5b6002610d59565b9091565b805f198101116105c057600a5f525f51602061300a5f395f51905f520154610a3a916109189160301c610a33565b65ffffffffffff43116109cb57805480610aa05750610a90610a3a925f6002610d59565b9065ffffffffffff431690610c83565b805f198101116105c0575f82815260209020015f190154610a3a92610a909160301c610a33565b65ffffffffffff43116109cb57805480610aeb5750610a90610a3a925f6001610d59565b805f198101116105c0575f82815260209020015f190154610a3a92610a909160301c610911565b6001600160a01b03808316939291908116908185141580610c05575b610b3a575b5050505050565b81610bab575b505082610b4f575b8080610b33565b6001600160a01b03165f9081526009602052604090205f51602061302a5f395f51905f5291610b8891610b8290916109e3565b90610ac7565b604080516001600160d01b039384168152919092166020820152a25f8080610b48565b6001600160a01b03165f9081526009602052604090205f51602061302a5f395f51905f5290610be390610bdd866109e3565b90610a6c565b604080516001600160d01b039384168152919092166020820152a25f80610b40565b50831515610b2e565b5f198101919082116105c057565b908154680100000000000000008110156100d35760018101808455811015610c6f575f9283526020928390208251929093015160301b65ffffffffffff191665ffffffffffff9290921691909117910155565b634e487b7160e01b5f52603260045260245ffd5b80549293928015610d2f57610c9a610ca591610c0e565b825f5260205f200190565b8054603081901c9365ffffffffffff91821692918116808411610d2057879303610cec5750610ce892509065ffffffffffff82549181199060301b169116179055565b9190565b915050610ce891610d0c610cfe6100fb565b65ffffffffffff9093168352565b6001600160d01b0386166020830152610c1c565b632520601d60e01b5f5260045ffd5b5090610d5491610d40610cfe6100fb565b6001600160d01b0385166020830152610c1c565b5f9190565b91909180600114610d9b57600214610d7f57634e487b7160e01b5f52605160045260245ffd5b6001600160d01b03908116918116919091039081116105c05790565b506001600160d01b03918216908216019081116105c0579056fe60806040526004361015610011575f80fd5b5f3560e01c806306fdde0314610244578063095ea7b31461023f57806318160ddd1461023a57806323b872dd146102355780632ff2e9dc14610230578063313ce5671461022b57806332cb6b0c146102265780633644e515146102215780633a46b1a81461021c57806340c10f191461021757806342966c68146102125780634bf5d7e91461020d578063587cde1e146102085780635c19a95c146102035780636f8b44b0146101fe5780636fcfff45146101f957806370a08231146101f4578063715018a6146101ef5780637ecebe00146101ea57806384b0196e146101e55780638980f11f146101e05780638da5cb5b146101db5780638e539e8c146101d657806391ddadf4146101d157806395d89b41146101cc5780639ab24eb0146101c75780639f0972c4146101c2578063a9059cbb146101bd578063c3cda520146101b8578063d505accf146101b3578063d5abeb01146101ae578063dd62ed3e146101a9578063e041ed41146101a4578063f1127ed81461019f5763f2fde38b1461019a575f80fd5b6112a3565b6111f1565b61112e565b6110d7565b6110ba565b610f96565b610e87565b610e41565b610e19565b610dd2565b610d2d565b610d02565b610c43565b610c1b565b610b65565b610a68565b610a30565b6109d5565b61099d565b61093b565b6108d3565b6108af565b61086f565b6107df565b6106ef565b6105e5565b610500565b6104de565b6104b9565b61049e565b610479565b6103d9565b6103bc565b61038b565b610281565b805180835260209291819084018484015e5f828201840152601f01601f1916010190565b90602061027e928181520190610249565b90565b3461035b575f36600319011261035b576040515f6003546102a18161133d565b808452906001811690811561033757506001146102d9575b6102d5836102c98185038261142b565b6040519182918261026d565b0390f35b60035f9081527fc2575a0e9e593c00f959f8c92f12db2869c3395a3b0502d05e2516446f71f85b939250905b80821061031d575090915081016020016102c96102b9565b919260018160209254838588010152019101909291610305565b60ff191660208086019190915291151560051b840190910191506102c990506102b9565b5f80fd5b600435906001600160a01b038216820361035b57565b602435906001600160a01b038216820361035b57565b3461035b57604036600319011261035b576103b16103a761035f565b6024359033611884565b602060405160018152f35b3461035b575f36600319011261035b576020600254604051908152f35b3461035b57606036600319011261035b576103f261035f565b6103fa610375565b6001600160a01b0382165f9081526001602090815260408083203384529091529020549160443591905f198410610442575b610436935061148f565b60405160018152602090f35b82841061045e57610459836104369503338361191f565b61042c565b8284637dc7a0d960e11b5f523360045260245260445260645ffd5b3461035b575f36600319011261035b5760206040516a084595161401484a0000008152f35b3461035b575f36600319011261035b57602060405160128152f35b3461035b575f36600319011261035b5760206040516a52b7d2dcc80cd2e40000008152f35b3461035b575f36600319011261035b5760206104f861157b565b604051908152f35b3461035b57604036600319011261035b5761051961035f565b6001600160a01b03165f90815260096020526040902061053a602435611697565b8154905f82916005841161058d575b610554935084611b10565b908161057257505060205f5b6040516001600160d01b039091168152f35b61057d6020926116d0565b905f52815f20015460301c610560565b9192610598816119b2565b81039081116105e05761055493855f5265ffffffffffff8260205f2001541665ffffffffffff8516105f146105ce575091610549565b9291506105da9061144d565b90610549565b611329565b3461035b57604036600319011261035b576105fe61035f565b600c5460243591906001600160a01b031633036106b2576002548281018091116105e057600d54106106785761067381610659847f3f2c9d57c068687834f0de942a9babb9e5acab57d516d3480a3c16ee165a4273946116de565b6040519384526001600160a01b0316929081906020820190565b0390a2005b60405162461bcd60e51b815260206004820152601260248201527145786365656473206d617820737570706c7960701b6044820152606490fd5b60405162461bcd60e51b81526020600482015260156024820152744f6e6c7920706c6174666f726d20666163746f727960581b6044820152606490fd5b3461035b57602036600319011261035b5760043533156107cc57335f90815260208190526040902054908082106107b057335f908152602081905260409020909182900390556107428160025403600255565b6040518181525f9033907fddf252ad1be2c89b69c2b068fc378daa952ba7f163c4a11628f55a4df523b3ef90602090a361077c8133611f79565b60405190815233907ffd38818f5291bf0bb3a2a48aadc06ba8757865d1dabd804585338aab3009dcb6908060208101610673565b63391434e360e21b5f523360045260249190915260445260645ffd5b634b637e8f60e11b5f525f60045260245ffd5b3461035b575f36600319011261035b576107f843611965565b65ffffffffffff8061080943611965565b16911603610860576102d560405161082260408261142b565b601d81527f6d6f64653d626c6f636b6e756d6265722666726f6d3d64656661756c740000006020820152604051918291602083526020830190610249565b6301bfc1c560e61b5f5260045ffd5b3461035b57602036600319011261035b576001600160a01b0361089061035f565b165f526008602052602060018060a01b0360405f205416604051908152f35b3461035b57602036600319011261035b576108d16108cb61035f565b3361177d565b005b3461035b57602036600319011261035b576004356108ef6117fe565b60025481106108fd57600d55005b60405162461bcd60e51b81526020600482015260166024820152754e6577206d617820737570706c7920746f6f206c6f7760501b6044820152606490fd5b3461035b57602036600319011261035b576001600160a01b0361095c61035f565b165f52600960205260405f205463ffffffff81116109865760405163ffffffff9091168152602090f35b6306dfcc6560e41b5f52602060045260245260445ffd5b3461035b57602036600319011261035b5760206104f86109bb61035f565b6001600160a01b03165f9081526020819052604090205490565b3461035b575f36600319011261035b576109ed6117fe565b600b80546001600160a01b031981169091555f906001600160a01b03167f8be0079c531659141344cd1fd0a4f28419497f9722a3daafe3b4186f6b6457e08280a3005b3461035b57602036600319011261035b576001600160a01b03610a5161035f565b165f526007602052602060405f2054604051908152f35b3461035b575f36600319011261035b57610b0c610aa47f0000000000000000000000000000000000000000000000000000000000000000611c96565b610acd7f0000000000000000000000000000000000000000000000000000000000000000611cf6565b6020604051610adc828261142b565b5f815281610b1a81830194601f198301368737604051978897600f60f81b895260e0858a015260e0890190610249565b908782036040890152610249565b914660608701523060808701525f60a087015285830360c087015251918281520192915f5b828110610b4e57505050500390f35b835185528695509381019392810192600101610b3f565b3461035b57604036600319011261035b57610bc96020610b8361035f565b60243590610b8f6117fe565b600b5460405163a9059cbb60e01b81526001600160a01b0390911660048201526024810192909252909283919082905f9082906044820190565b03926001600160a01b03165af18015610c1657610be257005b6020813d602011610c0e575b81610bfb6020938361142b565b8101031261035b57518015150361035b57005b3d9150610bee565b61146c565b3461035b575f36600319011261035b57600b546040516001600160a01b039091168152602090f35b3461035b57602036600319011261035b57610c5f600435611697565b600a54905f829160058411610cae575b610c7b9350600a611b10565b80610c8c57506040515f8152602090f35b610ca9610c9a6020926116d0565b600a5f52825f20015460301c90565b610560565b9192610cb9816119b2565b81039081116105e057610c7b93600a5f5265ffffffffffff8260205f2001541665ffffffffffff8516105f14610cf0575091610c6f565b929150610cfc9061144d565b90610c6f565b3461035b575f36600319011261035b576020610d1d43611965565b65ffffffffffff60405191168152f35b3461035b575f36600319011261035b576040515f600454610d4d8161133d565b80845290600181169081156103375750600114610d74576102d5836102c98185038261142b565b60045f9081527f8a35acfbc15ff81a39ae7d344fd709f28e8600b4aa8c65c6b64bfe7fe36bd19b939250905b808210610db8575090915081016020016102c96102b9565b919260018160209254838588010152019101909291610da0565b3461035b57602036600319011261035b576001600160a01b03610df361035f565b165f526009602052602060018060d01b03610e1060405f20611825565b16604051908152f35b3461035b575f36600319011261035b57600c546040516001600160a01b039091168152602090f35b3461035b57604036600319011261035b576103b1610e5d61035f565b602435903361148f565b6064359060ff8216820361035b57565b6084359060ff8216820361035b57565b3461035b5760c036600319011261035b57610ea061035f565b60243590604435610eaf610e67565b6084359060a43592804211610f845791610f349391610f26610f2b9460405160208101917fe48329057bfd03d55e49b547132e39cffd9c1820ad7b9d4c5307691425d15adf835260018060a01b038a1660408301528a6060830152608082015260808152610f1e60a08261142b565b51902061184f565b611d2d565b90929192611dcd565b6001600160a01b0381165f908152600760205260409020805460018101909155809303610f65576108d1925061177d565b90506301d4b62360e61b5f5260018060a01b031660045260245260445ffd5b632341d78760e11b5f5260045260245ffd5b3461035b5760e036600319011261035b57610faf61035f565b610fb7610375565b6044359060643592610fc7610e77565b60a43560c435908642116110a7576001600160a01b0384165f90815260076020526040902080546001810190915561106c9390611067909860405160208101917f6e71edae12b1b97f4d1f60370fef10105fa2faae0126114a169c64845d6126c9835260018060a01b0389169b8c604084015260018060a01b038b1660608401528b608084015260a083015260c082015260c08152610f1e60e08261142b565b611875565b936001600160a01b03851603611086576108d19350611884565b6325c0072360e11b5f526001600160a01b038085166004521660245260445ffd5b8663313c898160e11b5f5260045260245ffd5b3461035b575f36600319011261035b576020600d54604051908152f35b3461035b57604036600319011261035b5760206111256110f561035f565b6110fd610375565b6001600160a01b039182165f9081526001855260408082209290931681526020919091522090565b54604051908152f35b3461035b57602036600319011261035b5761114761035f565b61114f6117fe565b6001600160a01b03811680156111ac57600c80546001600160a01b0319169190911790556040516001600160a01b039190911681527fd9147c5fafb4c0ea4cbeca7cc97ac461a2078deb741894135759652188f066c490602090a1005b60405162461bcd60e51b815260206004820152601760248201527f496e76616c696420666163746f727920616464726573730000000000000000006044820152606490fd5b3461035b57604036600319011261035b5761120a61035f565b6024359063ffffffff8216820361035b576102d5916112599161122b611477565b50611234611477565b506001600160a01b03165f908152600960205260409020611253611477565b50611e49565b50604051906112678261140a565b5465ffffffffffff811680835260309190911c60209283019081526040805192835290516001600160d01b031692820192909252918291820190565b3461035b57602036600319011261035b576112bc61035f565b6112c46117fe565b6001600160a01b0316801561131657600b80546001600160a01b0319811683179091556001600160a01b03167f8be0079c531659141344cd1fd0a4f28419497f9722a3daafe3b4186f6b6457e05f80a3005b631e4fbdf760e01b5f525f60045260245ffd5b634e487b7160e01b5f52601160045260245ffd5b90600182811c9216801561136b575b602083101461135757565b634e487b7160e01b5f52602260045260245ffd5b91607f169161134c565b5f92918154916113848361133d565b80835292600181169081156113d957506001146113a057505050565b5f9081526020812093945091925b8383106113bf575060209250010190565b6001816020929493945483858701015201910191906113ae565b915050602093945060ff929192191683830152151560051b010190565b634e487b7160e01b5f52604160045260245ffd5b6040810190811067ffffffffffffffff82111761142657604052565b6113f6565b90601f8019910116810190811067ffffffffffffffff82111761142657604052565b90600182018092116105e057565b6040519061146a60408361142b565b565b6040513d5f823e3d90fd5b604051906114848261140a565b5f6020838281520152565b6001600160a01b0381169392919084156107cc576001600160a01b0382168015611568576001600160a01b0382165f9081526020819052604090205495848710611542578461146a9697036114f38460018060a01b03165f525f60205260405f2090565b556001600160a01b0384165f9081526020819052604090208054860190556040518581527fddf252ad1be2c89b69c2b068fc378daa952ba7f163c4a11628f55a4df523b3ef90602090a3612077565b63391434e360e21b5f526001600160a01b0383166004526024879052604485905260645ffd5b63ec442f0560e01b5f525f60045260245ffd5b307f00000000000000000000000000000000000000000000000000000000000000006001600160a01b0316148061166e575b156115d6577f000000000000000000000000000000000000000000000000000000000000000090565b60405160208101907f8b73c3c69bb8fe3d512ecc4cf759cc79239f7b179b0ffacaa9a75d522b39400f82527f000000000000000000000000000000000000000000000000000000000000000060408201527f000000000000000000000000000000000000000000000000000000000000000060608201524660808201523060a082015260a0815261166860c08261142b565b51902090565b507f000000000000000000000000000000000000000000000000000000000000000046146115ad565b65ffffffffffff6116a743611965565b16808210156116ba575061027e90611965565b90637669fc0f60e11b5f5260045260245260445ffd5b5f198101919082116105e057565b91906001600160a01b0383168015611568576002548281018091116105e0576002556001600160a01b0384165f90815260208181526040808320805486019055518481527fddf252ad1be2c89b69c2b068fc378daa952ba7f163c4a11628f55a4df523b3ef9190a36002546001600160d01b039390848111611766575061146a929350611ffe565b8490630e58ae9360e11b5f5260045260245260445ffd5b6001600160a01b038181165f81815260086020526040812080548685166001600160a01b03198216811790925561146a969416946117f89390928691907f3134e8a2e6d97e929a7e54011ea5485d7d196dd5f0ba4d4ef95803e8e3fc257f9080a46001600160a01b03165f9081526020819052604090205490565b91611b74565b600b546001600160a01b0316330361181257565b63118cdaa760e01b5f523360045260245ffd5b805490816118335750505f90565b815f198101116105e0575f525f199060205f2001015460301c90565b60429061185a61157b565b906040519161190160f01b8352600283015260228201522090565b9161027e9391610f2b93611d2d565b6001600160a01b031690811561190c576001600160a01b0381169283156118f957806118ec7f8c5be1e5ebec7d5bd14f71427d1e84f3dd0314c0f7b2291e5b200ac8c7c3b92593855f52600160205260405f209060018060a01b03165f5260205260405f2090565b55604051908152602090a3565b634a1406b160e11b5f525f60045260245ffd5b63e602df0560e01b5f525f60045260245ffd5b6001600160a01b031690811561190c576001600160a01b038116156118f957611962915f52600160205260405f209060018060a01b03165f5260205260405f2090565b55565b65ffffffffffff811161197d5765ffffffffffff1690565b6306dfcc6560e41b5f52603060045260245260445ffd5b811561199e570490565b634e487b7160e01b5f52601260045260245ffd5b600181111561027e57806001600160801b821015611ad3575b611a79611a6f611a65611a5b611a51611a47611a36611a809760048a600160401b611a859c1015611ac6575b640100000000811015611ab9575b62010000811015611aac575b610100811015611a9f575b6010811015611a92575b1015611a8a575b60030260011c90565b611a40818b611994565b0160011c90565b611a40818a611994565b611a408189611994565b611a408188611994565b611a408187611994565b611a408186611994565b8093611994565b821190565b900390565b60011b611a2d565b60041c9160021b91611a26565b60081c9160041b91611a1c565b60101c9160081b91611a11565b60201c9160101b91611a05565b60401c9160201b916119f7565b5050611a85611a80611a79611a6f611a65611a5b611a51611a47611a36611afa8a60801c90565b9850600160401b97506119cb9650505050505050565b91905b838210611b205750505090565b9091928083169080841860011c82018092116105e057845f5265ffffffffffff8260205f2001541665ffffffffffff8416105f14611b625750925b9190611b13565b939250611b6e9061144d565b91611b5b565b6001600160a01b03808316939291908116908185141580611c8d575b611b9c575b5050505050565b81611c20575b505082611bb1575b8080611b95565b6001600160a01b03165f9081526009602052604090207fdec2bacdd2f05b59de34da9b523dff8be42e5e38e818c82fdb0bae774387a72491611bfd91611bf79091611e72565b90611edb565b604080516001600160d01b039384168152919092166020820152a25f8080611baa565b6001600160a01b03165f9081526009602052604090207fdec2bacdd2f05b59de34da9b523dff8be42e5e38e818c82fdb0bae774387a72490611c6b90611c6586611e72565b90611ea3565b604080516001600160d01b039384168152919092166020820152a25f80611ba2565b50831515611b90565b60ff8114611cdc5760ff811690601f8211611ccd5760405191611cba60408461142b565b6020808452838101919036833783525290565b632cd44ac360e21b5f5260045ffd5b5060405161027e81611cef816005611375565b038261142b565b60ff8114611d1a5760ff811690601f8211611ccd5760405191611cba60408461142b565b5060405161027e81611cef816006611375565b91907f7fffffffffffffffffffffffffffffff5d576e7357a4501ddfe92f46681b20a08411611da4579160209360809260ff5f9560405194855216868401526040830152606082015282805260015afa15610c16575f516001600160a01b03811615611d9a57905f905f90565b505f906001905f90565b5050505f9160039190565b60041115611db957565b634e487b7160e01b5f52602160045260245ffd5b611dd681611daf565b80611ddf575050565b611de881611daf565b60018103611dff5763f645eedf60e01b5f5260045ffd5b611e0881611daf565b60028103611e23575063fce698f760e01b5f5260045260245ffd5b80611e2f600392611daf565b14611e375750565b6335e2f38360e21b5f5260045260245ffd5b8054821015611e5e575f5260205f2001905f90565b634e487b7160e01b5f52603260045260245ffd5b6001600160d01b038111611e8c576001600160d01b031690565b6306dfcc6560e41b5f5260d060045260245260445ffd5b90611ead43611965565b90611eb783611825565b6001600160d01b0391821690821603919082116105e057611ed792612148565b9091565b90611ee543611965565b90611eef83611825565b6001600160d01b0391821690821601919082116105e057611ed792612148565b611f1843611965565b90611f23600a611825565b6001600160d01b03918216908216019081116105e057611ed791600a612148565b611f4d43611965565b90611f58600a611825565b6001600160d01b03918216908216039081116105e057611ed791600a612148565b61146a91906001600160a01b03168015611fe6575b611f9f611f9a83611e72565b611f44565b50505f908152600860205260408120549080527f5eff886ea0ce6ca488a3d6e336d6c0f75f46d19b42c06ce5ee98e42c96d256c7546001600160a01b039081169116611b74565b611ff7611ff283611e72565b611f0f565b5050611f8e565b9061146a9161200f611ff283611e72565b50506001600160a01b03168015612064575b60086020527f5eff886ea0ce6ca488a3d6e336d6c0f75f46d19b42c06ce5ee98e42c96d256c7545f9182526040909120546001600160a01b039081169116611b74565b612070611f9a83611e72565b5050612021565b61146a92916001600160a01b039091169081156120da575b6001600160a01b03169081156120c7575b5f90815260086020526040808220549282529020546001600160a01b039081169116611b74565b6120d3611f9a84611e72565b50506120a0565b6120e6611ff284611e72565b505061208f565b8054600160401b8110156114265761210a91600182018155611e49565b61213557815160209092015160301b65ffffffffffff191665ffffffffffff92909216919091179055565b634e487b7160e01b5f525f60045260245ffd5b805492939280156121f45761215f61216a916116d0565b825f5260205f200190565b8054603081901c9365ffffffffffff918216929181168084116121e5578793036121b157506121ad92509065ffffffffffff82549181199060301b169116179055565b9190565b9150506121ad916121d16121c361145b565b65ffffffffffff9093168352565b6001600160d01b03861660208301526120ed565b632520601d60e01b5f5260045ffd5b5090612219916122056121c361145b565b6001600160d01b03851660208301526120ed565b5f919056fea264697066735822122010adec1dee35729eee4636d20ea51d9ca861640edd277d8921a269c3314c1fb064736f6c634300081e0033c65a7bb8d6351c1cf70c95a316cc6a92839c986682d98bc35f958f4883f9d2a7dec2bacdd2f05b59de34da9b523dff8be42e5e38e818c82fdb0bae774387a724","linkReferences":{}},"methodIdentifiers":{"CLOCK_MODE()":"4bf5d7e9","DOMAIN_SEPARATOR()":"3644e515","INITIAL_SUPPLY()":"2ff2e9dc","MAX_SUPPLY()":"32cb6b0c","allowance(address,address)":"dd62ed3e","approve(address,uint256)":"095ea7b3","balanceOf(address)":"70a08231","burn(uint256)":"42966c68","checkpoints(address,uint32)":"f1127ed8","clock()":"91ddadf4","decimals()":"313ce567","delegate(address)":"5c19a95c","delegateBySig(address,uint256,uint256,uint8,bytes32,bytes32)":"c3cda520","delegates(address)":"587cde1e","eip712Domain()":"84b0196e","getPastTotalSupply(uint256)":"8e539e8c","getPastVotes(address,uint256)":"3a46b1a8","getVotes(address)":"9ab24eb0","maxSupply()":"d5abeb01","mint(address,uint256)":"40c10f19","name()":"06fdde03","nonces(address)":"7ecebe00","numCheckpoints(address)":"6fcfff45","owner()":"8da5cb5b","permit(address,address,uint256,uint256,uint8,bytes32,bytes32)":"d505accf","platformFactory()":"9f0972c4","recoverERC20(address,uint256)":"8980f11f","renounceOwnership()":"715018a6","setMaxSupply(uint256)":"6f8b44b0","setPlatformFactory(address)":"e041ed41","symbol()":"95d89b41","totalSupply()":"18160ddd","transfer(address,uint256)":"a9059cbb","transferFrom(address,address,uint256)":"23b872dd","transferOwnership(address)":"f2fde38b"},"id":54}