{"abi":[{"type":"constructor","inputs":[{"name":"_platformFactory","type":"address","internalType":"address"}],"stateMutability":"nonpayable"},{"type":"receive","stateMutability":"payable"},{"type":"function","name":"cancelProject","inputs":[{"name":"projectId","type":"uint256","internalType":"uint256"}],"outputs":[],"stateMutability":"nonpayable"},{"type":"function","name":"claimReturns","inputs":[{"name":"projectId","type":"uint256","internalType":"uint256"}],"outputs":[],"stateMutability":"nonpayable"},{"type":"function","name":"completeProject","inputs":[{"name":"projectId","type":"uint256","internalType":"uint256"},{"name":"totalRevenue","type":"uint256","internalType":"uint256"}],"outputs":[],"stateMutability":"nonpayable"},{"type":"function","name":"createProject","inputs":[{"name":"name","type":"string","internalType":"string"},{"name":"description","type":"string","internalType":"string"},{"name":"category","type":"uint8","internalType":"enum ProjectTypes.ProjectCategory"},{"name":"productName","type":"string","internalType":"string"},{"name":"targetAmount","type":"uint256","internalType":"uint256"},{"name":"projectedROI","type":"uint256","internalType":"uint256"},{"name":"duration","type":"uint256","internalType":"uint256"},{"name":"marketAnalysis","type":"string","internalType":"string"},{"name":"supplierInfo","type":"string","internalType":"string"},{"name":"logisticsPlan","type":"string","internalType":"string"}],"outputs":[{"name":"","type":"uint256","internalType":"uint256"}],"stateMutability":"nonpayable"},{"type":"function","name":"getInvestmentInfo","inputs":[{"name":"projectId","type":"uint256","internalType":"uint256"},{"name":"investor","type":"address","internalType":"address"}],"outputs":[{"name":"","type":"tuple","internalType":"struct ProjectTypes.Investment","components":[{"name":"investor","type":"address","internalType":"address"},{"name":"amount","type":"uint256","internalType":"uint256"},{"name":"investedAt","type":"uint256","internalType":"uint256"},{"name":"claimedReturns","type":"bool","internalType":"bool"},{"name":"expectedReturn","type":"uint256","internalType":"uint256"}]}],"stateMutability":"view"},{"type":"function","name":"getProjectDetails","inputs":[{"name":"projectId","type":"uint256","internalType":"uint256"}],"outputs":[{"name":"","type":"tuple","internalType":"struct ProjectTypes.ProjectDetails","components":[{"name":"id","type":"uint256","internalType":"uint256"},{"name":"name","type":"string","internalType":"string"},{"name":"description","type":"string","internalType":"string"},{"name":"category","type":"uint8","internalType":"enum ProjectTypes.ProjectCategory"},{"name":"productName","type":"string","internalType":"string"},{"name":"targetAmount","type":"uint256","internalType":"uint256"},{"name":"currentAmount","type":"uint256","internalType":"uint256"},{"name":"projectedROI","type":"uint256","internalType":"uint256"},{"name":"duration","type":"uint256","internalType":"uint256"},{"name":"marketAnalysis","type":"string","internalType":"string"},{"name":"organizer","type":"address","internalType":"address"},{"name":"status","type":"uint8","internalType":"enum ProjectTypes.ProjectStatus"},{"name":"createdAt","type":"uint256","internalType":"uint256"},{"name":"deadline","type":"uint256","internalType":"uint256"},{"name":"investorCount","type":"uint256","internalType":"uint256"},{"name":"supplierInfo","type":"string","internalType":"string"},{"name":"logisticsPlan","type":"string","internalType":"string"}]}],"stateMutability":"view"},{"type":"function","name":"getProjectInvestors","inputs":[{"name":"projectId","type":"uint256","internalType":"uint256"}],"outputs":[{"name":"","type":"address[]","internalType":"address[]"}],"stateMutability":"view"},{"type":"function","name":"getProjectStatus","inputs":[{"name":"projectId","type":"uint256","internalType":"uint256"}],"outputs":[{"name":"","type":"uint8","internalType":"enum ProjectTypes.ProjectStatus"}],"stateMutability":"view"},{"type":"function","name":"getReturnDetails","inputs":[{"name":"projectId","type":"uint256","internalType":"uint256"}],"outputs":[{"name":"","type":"tuple","internalType":"struct ProjectTypes.ReturnDetails","components":[{"name":"totalInvested","type":"uint256","internalType":"uint256"},{"name":"totalReturns","type":"uint256","internalType":"uint256"},{"name":"platformRevenue","type":"uint256","internalType":"uint256"},{"name":"organizerRevenue","type":"uint256","internalType":"uint256"},{"name":"distributedReturns","type":"uint256","internalType":"uint256"},{"name":"distributionDate","type":"uint256","internalType":"uint256"},{"name":"distributionCompleted","type":"bool","internalType":"bool"}]}],"stateMutability":"view"},{"type":"function","name":"invest","inputs":[{"name":"projectId","type":"uint256","internalType":"uint256"}],"outputs":[],"stateMutability":"payable"},{"type":"function","name":"investments","inputs":[{"name":"","type":"uint256","internalType":"uint256"},{"name":"","type":"address","internalType":"address"}],"outputs":[{"name":"investor","type":"address","internalType":"address"},{"name":"amount","type":"uint256","internalType":"uint256"},{"name":"investedAt","type":"uint256","internalType":"uint256"},{"name":"claimedReturns","type":"bool","internalType":"bool"},{"name":"expectedReturn","type":"uint256","internalType":"uint256"}],"stateMutability":"view"},{"type":"function","name":"owner","inputs":[],"outputs":[{"name":"","type":"address","internalType":"address"}],"stateMutability":"view"},{"type":"function","name":"pause","inputs":[],"outputs":[],"stateMutability":"nonpayable"},{"type":"function","name":"paused","inputs":[],"outputs":[{"name":"","type":"bool","internalType":"bool"}],"stateMutability":"view"},{"type":"function","name":"platformFactory","inputs":[],"outputs":[{"name":"","type":"address","internalType":"address"}],"stateMutability":"view"},{"type":"function","name":"projectInvestors","inputs":[{"name":"","type":"uint256","internalType":"uint256"},{"name":"","type":"uint256","internalType":"uint256"}],"outputs":[{"name":"","type":"address","internalType":"address"}],"stateMutability":"view"},{"type":"function","name":"projects","inputs":[{"name":"","type":"uint256","internalType":"uint256"}],"outputs":[{"name":"id","type":"uint256","internalType":"uint256"},{"name":"name","type":"string","internalType":"string"},{"name":"description","type":"string","internalType":"string"},{"name":"category","type":"uint8","internalType":"enum ProjectTypes.ProjectCategory"},{"name":"productName","type":"string","internalType":"string"},{"name":"targetAmount","type":"uint256","internalType":"uint256"},{"name":"currentAmount","type":"uint256","internalType":"uint256"},{"name":"projectedROI","type":"uint256","internalType":"uint256"},{"name":"duration","type":"uint256","internalType":"uint256"},{"name":"marketAnalysis","type":"string","internalType":"string"},{"name":"organizer","type":"address","internalType":"address"},{"name":"status","type":"uint8","internalType":"enum ProjectTypes.ProjectStatus"},{"name":"createdAt","type":"uint256","internalType":"uint256"},{"name":"deadline","type":"uint256","internalType":"uint256"},{"name":"investorCount","type":"uint256","internalType":"uint256"},{"name":"supplierInfo","type":"string","internalType":"string"},{"name":"logisticsPlan","type":"string","internalType":"string"}],"stateMutability":"view"},{"type":"function","name":"renounceOwnership","inputs":[],"outputs":[],"stateMutability":"nonpayable"},{"type":"function","name":"returnDetails","inputs":[{"name":"","type":"uint256","internalType":"uint256"}],"outputs":[{"name":"totalInvested","type":"uint256","internalType":"uint256"},{"name":"totalReturns","type":"uint256","internalType":"uint256"},{"name":"platformRevenue","type":"uint256","internalType":"uint256"},{"name":"organizerRevenue","type":"uint256","internalType":"uint256"},{"name":"distributedReturns","type":"uint256","internalType":"uint256"},{"name":"distributionDate","type":"uint256","internalType":"uint256"},{"name":"distributionCompleted","type":"bool","internalType":"bool"}],"stateMutability":"view"},{"type":"function","name":"revenueContract","inputs":[],"outputs":[{"name":"","type":"address","internalType":"address"}],"stateMutability":"view"},{"type":"function","name":"setRevenueContract","inputs":[{"name":"_revenueContract","type":"address","internalType":"address"}],"outputs":[],"stateMutability":"nonpayable"},{"type":"function","name":"setStakingContract","inputs":[{"name":"_stakingContract","type":"address","internalType":"address"}],"outputs":[],"stateMutability":"nonpayable"},{"type":"function","name":"stakingContract","inputs":[],"outputs":[{"name":"","type":"address","internalType":"address"}],"stateMutability":"view"},{"type":"function","name":"startProject","inputs":[{"name":"projectId","type":"uint256","internalType":"uint256"}],"outputs":[],"stateMutability":"nonpayable"},{"type":"function","name":"transferOwnership","inputs":[{"name":"newOwner","type":"address","internalType":"address"}],"outputs":[],"stateMutability":"nonpayable"},{"type":"function","name":"unpause","inputs":[],"outputs":[],"stateMutability":"nonpayable"},{"type":"function","name":"updateProgress","inputs":[{"name":"projectId","type":"uint256","internalType":"uint256"},{"name":"progressReport","type":"string","internalType":"string"}],"outputs":[],"stateMutability":"nonpayable"},{"type":"event","name":"InvestmentMade","inputs":[{"name":"projectId","type":"uint256","indexed":true,"internalType":"uint256"},{"name":"investor","type":"address","indexed":true,"internalType":"address"},{"name":"amount","type":"uint256","indexed":false,"internalType":"uint256"}],"anonymous":false},{"type":"event","name":"OwnershipTransferred","inputs":[{"name":"previousOwner","type":"address","indexed":true,"internalType":"address"},{"name":"newOwner","type":"address","indexed":true,"internalType":"address"}],"anonymous":false},{"type":"event","name":"Paused","inputs":[{"name":"account","type":"address","indexed":false,"internalType":"address"}],"anonymous":false},{"type":"event","name":"ProgressUpdated","inputs":[{"name":"projectId","type":"uint256","indexed":true,"internalType":"uint256"},{"name":"progressReport","type":"string","indexed":false,"internalType":"string"}],"anonymous":false},{"type":"event","name":"ProjectCancelled","inputs":[{"name":"projectId","type":"uint256","indexed":true,"internalType":"uint256"}],"anonymous":false},{"type":"event","name":"ProjectCompleted","inputs":[{"name":"projectId","type":"uint256","indexed":true,"internalType":"uint256"},{"name":"totalRevenue","type":"uint256","indexed":false,"internalType":"uint256"}],"anonymous":false},{"type":"event","name":"ProjectCreated","inputs":[{"name":"projectId","type":"uint256","indexed":true,"internalType":"uint256"},{"name":"organizer","type":"address","indexed":true,"internalType":"address"}],"anonymous":false},{"type":"event","name":"ProjectFunded","inputs":[{"name":"projectId","type":"uint256","indexed":true,"internalType":"uint256"},{"name":"totalRaised","type":"uint256","indexed":false,"internalType":"uint256"}],"anonymous":false},{"type":"event","name":"ReturnsClaimed","inputs":[{"name":"projectId","type":"uint256","indexed":true,"internalType":"uint256"},{"name":"investor","type":"address","indexed":true,"internalType":"address"},{"name":"amount","type":"uint256","indexed":false,"internalType":"uint256"}],"anonymous":false},{"type":"event","name":"StatusUpdated","inputs":[{"name":"projectId","type":"uint256","indexed":true,"internalType":"uint256"},{"name":"newStatus","type":"uint8","indexed":false,"internalType":"enum ProjectTypes.ProjectStatus"}],"anonymous":false},{"type":"event","name":"Unpaused","inputs":[{"name":"account","type":"address","indexed":false,"internalType":"address"}],"anonymous":false},{"type":"error","name":"OwnableInvalidOwner","inputs":[{"name":"owner","type":"address","internalType":"address"}]},{"type":"error","name":"OwnableUnauthorizedAccount","inputs":[{"name":"account","type":"address","internalType":"address"}]}],"bytecode":{"object":"0x60803460dd57601f612c5938819003918201601f19168301916001600160401b0383118484101760e15780849260209460405283398101031260dd57516001600160a01b0381169081900360dd57331560ca575f8054604051929133906001600160a01b038316907f8be0079c531659141344cd1fd0a4f28419497f9722a3daafe3b4186f6b6457e09080a36001600160a81b0319163360ff60a01b1916175f90815560018055600380546001600160a01b03191692909217909155600255612b6390816100f68239f35b631e4fbdf760e01b5f525f60045260245ffd5b5f80fd5b634e487b7160e01b5f52604160045260245ffdfe60a0604052600436101561001a575b3615610018575f80fd5b005b5f3560e01c8063107046bd146124d257806321b6a353146122ed578063249411471461210f5780632afcf48014611d1c5780632bd8fc4514611c2b5780633842ced314611b555780633f4ba83a14611aaf578063498a6de714611a1157806358d0df1914610e4d5780635a19cc2e14610ddd5780635c975abb14610db95780635f8439e314610ac8578063715018a614610a71578063831a9196146109715780638456cb59146108fd5780638b44da95146108b55780638da5cb5b1461088e5780639675c009146108365780639dd373b9146107985780639f0972c414610770578063b11b32d2146106f4578063c3fa0ba1146104e4578063c884d21e146104bc578063d18b5b41146103e0578063ee99205c146103b8578063f2fde38b146103335763f62bf2de0361000e573461030a57602036600319011261030a57600435805f52600660205261017d60018060a01b03600a60405f2001541633146129b4565b6002548111158061032a575b6101929061291b565b805f52600660205260ff600a60405f20015460a01c1660078110156103165760026101bd911461295c565b805f526006602052600a60405f2001600360a01b60ff60a01b19825416179055805f516020612b0e5f395f51905f52602060405160038152a2600554610259906020906001600160a01b0316610214811515612a9b565b835f52600682526044600660405f200154855f526006845260ff600360405f20015416926040519586948593639038176f60e01b8552600485015260248401906127f5565b5afa9081156102b8575f916102e0575b50815f526006602052600660405f200154818103928184116102cc575f908152600660205260408120600a015490938493849384936001600160a01b0316918491146102c3575bf1156102b857005b6040513d5f823e3d90fd5b506108fc6102b0565b634e487b7160e01b5f52601160045260245ffd5b90506020813d60201161030e575b816102fb60209383612710565b8101031261030a57515f610269565b5f80fd5b3d91506102ee565b634e487b7160e01b5f52602160045260245ffd5b50801515610189565b3461030a57602036600319011261030a5761034c612825565b610354612ae7565b6001600160a01b031680156103a5575f80546001600160a01b03198116831782556001600160a01b0316907f8be0079c531659141344cd1fd0a4f28419497f9722a3daafe3b4186f6b6457e09080a3005b631e4fbdf760e01b5f525f60045260245ffd5b3461030a575f36600319011261030a576004546040516001600160a01b039091168152602090f35b3461030a57604036600319011261030a576004356024356001600160401b03811161030a5761041390369060040161283b565b815f52600660205261043560018060a01b03600a60405f2001541633146129b4565b600254821115806104b3575b61044a9061291b565b815f52600660205260ff600a60405f20015460a01c166007811015610316577fe7c77052c4752064708e382f2ec5169e62c728d3ce62f1be04bbbf46848cffde9161049a60036104ae931461295c565b6040519182916020835260208301906127d1565b0390a2005b50811515610441565b3461030a575f36600319011261030a576005546040516001600160a01b039091168152602090f35b3461030a576104f236612890565b815f52600660205261051460018060a01b03600a60405f2001541633146129b4565b600254821115806106eb575b6105299061291b565b815f52600660205260ff600a60405f20015460a01c166007811015610316576003610554911461295c565b5f8281526006602081905260408220600a8101805460ff60a01b1916600160a21b1790556005546001600160a01b0316939291606091610595861515612a9b565b01936064855460405194859384926246a51960e41b84528a600485015288602485015260448401525af180156102b85784935f905f935f936106a1575b509260067f8215409039677f0e929b3881f268cb9087c47bdabe79981ad9128261c004011195936106809360209654936040519461060f866126f5565b85528785019287845260408601928352606086019081526080860191825260a086019242845260c08701945f86528c5f5260098b5260405f209751885551600188015551600287015551600386015551600485015551600584015551151591019060ff801983541691151516179055565b604051908152a25f516020612b0e5f395f51905f52602060405160048152a2005b935093945050506060813d6060116106e3575b816106c160609383612710565b8101031261030a578051602082015160409092015185949390919060066105d2565b3d91506106b4565b50811515610520565b3461030a57604036600319011261030a5761070d61280f565b6004355f52600760205260405f209060018060a01b03165f5260205260a060405f20600180831b03815416906001810154906002810154600460ff6003840154169201549260405194855260208501526040840152151560608301526080820152f35b3461030a575f36600319011261030a576003546040516001600160a01b039091168152602090f35b3461030a57602036600319011261030a576107b1612825565b6107c660018060a01b03600354163314612a53565b6001600160a01b031680156107f1576bffffffffffffffffffffffff60a01b60045416176004555f80f35b60405162461bcd60e51b815260206004820152601860248201527f496e76616c6964207374616b696e6720636f6e747261637400000000000000006044820152606490fd5b3461030a57602036600319011261030a5760043560025481111580610885575b61085f9061291b565b5f526006602052602060ff600a60405f20015460a01c166108836040518092612802565bf35b50801515610856565b3461030a575f36600319011261030a575f546040516001600160a01b039091168152602090f35b3461030a576108c336612890565b905f52600860205260405f20805482101561030a576020916108e4916128a6565b905460405160039290921b1c6001600160a01b03168152f35b3461030a575f36600319011261030a5761092260018060a01b03600354163314612a53565b5f5461093460ff8260a01c16156129f9565b60ff60a01b1916600160a01b175f556040513381527f62e78cea01bee320cd4e420270b5ea74000d11b0c9f74754ebdbfc544b05a25890602090a1005b3461030a57602036600319011261030a576004355f60c0604051610994816126f5565b8281528260208201528260408201528260608201528260808201528260a0820152015260025481111580610a68575b6109cc9061291b565b5f52600960205260e060405f206040516109e5816126f5565b815491828252600181015460208301908152600282015460408401908152600383015490606085019182526004840154926080860193845260c060ff600660058801549760a08a01988952015416960195151586526040519687525160208701525160408601525160608501525160808401525160a083015251151560c0820152f35b508015156109c3565b3461030a575f36600319011261030a57610a89612ae7565b5f80546001600160a01b0319811682556001600160a01b03167f8be0079c531659141344cd1fd0a4f28419497f9722a3daafe3b4186f6b6457e08280a3005b3461030a57602036600319011261030a576004356060610200604051610aed816126d9565b5f81528260208201528260408201525f838201528260808201525f60a08201525f60c08201525f60e08201525f610100820152826101208201525f6101408201525f6101608201525f6101808201525f6101a08201525f6101c0820152826101e0820152015260025481111580610db0575b610b689061291b565b5f52600660205260405f20604051610b7f816126d9565b81548152610b8f60018301612731565b6020820152610ba060028301612731565b6040820152610bb960ff60038401541660608301612a8f565b610bc560048301612731565b6080820152600582015460a0820152600682015460c0820152600782015460e08201526008820154610100820152610bff60098301612731565b610120820152600a8201546001600160a01b03811661014083015260a01c60ff1691600783101561031657600f610c7391610dac94610160850152600b810154610180850152600c8101546101a0850152600d8101546101c0850152610c67600e8201612731565b6101e085015201612731565b6102008201526040519182916020835280516020840152610200610d97610d35610cf2610cca610cb4602087015161022060408b01526102408a01906127d1565b6040870151898203601f190160608b01526127d1565b610cdc606087015160808a01906127f5565b6080860151888203601f190160a08a01526127d1565b60a085015160c088015260c085015160e088015260e0850151610100880152610100850151610120880152610120850151601f19888303016101408901526127d1565b60018060a01b0361014085015116610160870152610d5d610160850151610180880190612802565b6101808401516101a08701526101a08401516101c08701526101c08401516101e08701526101e0840151601f1987830301848801526127d1565b910151838203601f19016102208501526127d1565b0390f35b50801515610b5f565b3461030a575f36600319011261030a57602060ff5f5460a01c166040519015158152f35b3461030a57602036600319011261030a576004355f52600960205260e060405f208054906001810154906002810154600382015460048301549160ff600660058601549501541694604051968752602087015260408601526060850152608084015260a0830152151560c0820152f35b3461030a5761014036600319011261030a576004356001600160401b03811161030a57610e7e90369060040161283b565b6024356001600160401b03811161030a57610e9d90369060040161283b565b60443590600882101561030a576064356001600160401b03811161030a57610ec990369060040161283b565b926084359160a4359060c4359060e4356001600160401b03811161030a57610ef590369060040161283b565b610104356001600160401b03811161030a57610f1590369060040161283b565b92610124356001600160401b03811161030a57610f3690369060040161283b565b94610f4860ff5f5460a01c16156129f9565b87156119cc5762278d00821061199257611388811161195e576004546001600160a01b03161561191957610f7d600254612a45565b998a600255610f8c8342612a38565b9460405198610f9a8a6126d9565b8c8a5260208a01526040890152610fb48a60608a01612a8f565b60808801528760a08801525f60c088015260e0870152610100860152610120850152336101408501525f610160850152426101808501526101a08401525f6101c08401526101e0830152610200820152835f52600660205260405f208151815560208201518051906001600160401b03821161153f5781906110396001850154612686565b601f81116118c9575b50602090601f831160011461185c575f92611851575b50508160011b915f199060031b1c19161760018201555b60408201518051906001600160401b03821161153f5781906110946002850154612686565b601f8111611801575b50602090601f8311600114611794575f92611789575b50508160011b915f199060031b1c19161760028201555b60038101606083015160088110156103165760ff801983541691161790556004810160808301518051906001600160401b03821161153f57819061110e8454612686565b601f8111611739575b50602090601f83116001146116d6575f926116cb575b50508160011b915f199060031b1c19161790555b60a0820151600582015560c0820151600682015560e082015160078201556101008201516008820155600981016101208301518051906001600160401b03821161153f5781906111918454612686565b601f811161167b575b50602090601f8311600114611618575f9261160d575b50508160011b915f199060031b1c19161790555b610140820151600a820180546001600160a01b0319166001600160a01b0392909216919091178155610160830151600781101561031657815460ff60a01b191660a09190911b60ff60a01b16179055610180820151600b8201556101a0820151600c8201556101c0820151600d8201556101e08201518051600e8301916001600160401b03821161153f576112598354612686565b601f81116115c8575b50602090601f831160011461155e579180600f949261020096945f92611553575b50508160011b915f199060031b1c19161790555b019101518051906001600160401b03821161153f5781906112b88454612686565b601f81116114ef575b50602090601f831160011461148c575f92611481575b50508160011b915f199060031b1c19161790555b60018060a01b03600454169061131260405193631eb8a9f360e11b855260048501906127f5565b6024830152336044830152602082606481845afa9182156102b8575f9261144c575b5060206044916040519283809263074e3dbd60e31b82528760048301523360248301525afa9081156102b8575f9161141a575b50106113d557806020915f5260068252600a60405f2001600160a01b60ff60a01b19825416179055805f516020612b0e5f395f51905f528360405133847f63c92f9505d420bff631cb9df33be952bdc11e2118da36a850b43e6bcc4ce4de5f80a360018152a2604051908152f35b60405162461bcd60e51b815260206004820152601760248201527f496e73756666696369656e7420636f6c6c61746572616c0000000000000000006044820152606490fd5b90506020813d602011611444575b8161143560209383612710565b8101031261030a575183611367565b3d9150611428565b9091506020813d602011611479575b8161146860209383612710565b8101031261030a5751906020611334565b3d915061145b565b0151905086806112d7565b5f8581528281209350601f198516905b8181106114d757509084600195949392106114bf575b505050811b0190556112eb565b01515f1960f88460031b161c191690558680806114b2565b9293602060018192878601518155019501930161149c565b909150835f5260205f20601f840160051c81019160208510611535575b90601f859493920160051c01905b81811061152757506112c1565b5f815584935060010161151a565b909150819061150c565b634e487b7160e01b5f52604160045260245ffd5b015190508a80611283565b90601f19831691845f52815f20925f5b8181106115b057509260019285926102009896600f989610611598575b505050811b019055611297565b01515f1960f88460031b161c191690558a808061158b565b9293602060018192878601518155019501930161156e565b835f5260205f20601f840160051c81019160208510611603575b601f0160051c01905b8181106115f85750611262565b5f81556001016115eb565b90915081906115e2565b0151905088806111b0565b5f8581528281209350601f198516905b818110611663575090846001959493921061164b575b505050811b0190556111c4565b01515f1960f88460031b161c1916905588808061163e565b92936020600181928786015181550195019301611628565b909150835f5260205f20601f840160051c810191602085106116c1575b90601f859493920160051c01905b8181106116b3575061119a565b5f81558493506001016116a6565b9091508190611698565b01519050888061112d565b5f8581528281209350601f198516905b8181106117215750908460019594939210611709575b505050811b019055611141565b01515f1960f88460031b161c191690558880806116fc565b929360206001819287860151815501950193016116e6565b909150835f5260205f20601f840160051c8101916020851061177f575b90601f859493920160051c01905b8181106117715750611117565b5f8155849350600101611764565b9091508190611756565b0151905087806110b3565b9250600284015f52805f20905f935b601f19841685106117e6576001945083601f198116106117ce575b505050811b0160028201556110ca565b01515f1960f88460031b161c191690558780806117be565b818101518355602094850194600190930192909101906117a3565b909150600284015f5260205f20601f840160051c81016020851061184a575b90849392915b601f830160051c8201811061183c57505061109d565b5f8155859450600101611826565b5080611820565b015190508780611058565b9250600184015f52805f20905f935b601f19841685106118ae576001945083601f19811610611896575b505050811b01600182015561106f565b01515f1960f88460031b161c19169055878080611886565b8181015183556020948501946001909301929091019061186b565b909150600184015f5260205f20601f840160051c810160208510611912575b90849392915b601f830160051c82018110611904575050611042565b5f81558594506001016118ee565b50806118e8565b60405162461bcd60e51b815260206004820152601860248201527f5374616b696e6720636f6e7472616374206e6f742073657400000000000000006044820152606490fd5b60405162461bcd60e51b815260206004820152600c60248201526b0a49e9240e8dede40d0d2ced60a31b6044820152606490fd5b60405162461bcd60e51b8152602060048201526012602482015271111d5c985d1a5bdb881d1bdbc81cda1bdc9d60721b6044820152606490fd5b60405162461bcd60e51b815260206004820152601e60248201527f54617267657420616d6f756e74206d75737420626520706f73697469766500006044820152606490fd5b3461030a57602036600319011261030a57611a2a612825565b611a3f60018060a01b03600354163314612a53565b6001600160a01b03168015611a6a576bffffffffffffffffffffffff60a01b60055416176005555f80f35b60405162461bcd60e51b815260206004820152601860248201527f496e76616c696420726576656e756520636f6e747261637400000000000000006044820152606490fd5b3461030a575f36600319011261030a57611ad460018060a01b03600354163314612a53565b5f5460ff8160a01c1615611b195760ff60a01b19165f556040513381527f5db9ee0a495bf2e6ff9c91a7834c1ba4fdd244a5e8aa4e537bd38aeae4b073aa90602090a1005b60405162461bcd60e51b815260206004820152601460248201527314185d5cd8589b194e881b9bdd081c185d5cd95960621b6044820152606490fd5b3461030a57602036600319011261030a5760043560025481111580611c22575b611b7e9061291b565b5f52600860205260405f20604051806020835491828152019081935f5260205f20905f5b818110611c035750505081611bb8910382612710565b604051918291602083019060208452518091526040830191905f5b818110611be1575050500390f35b82516001600160a01b0316845285945060209384019390920191600101611bd3565b82546001600160a01b0316845260209093019260019283019201611ba2565b50801515611b75565b3461030a57604036600319011261030a57600435611c4761280f565b905f6080604051611c57816126be565b828152826020820152826040820152826060820152015260025481111580611d13575b611c839061291b565b5f52600760205260405f209060018060a01b03165f5260205260a060405f20604051611cae816126be565b600180841b0382541691828252600181015460208301908152600282015490604084019182526080600460ff60038601541694606087019515158652015494019384526040519485525160208501525160408401525115156060830152516080820152f35b50801515611c7a565b602036600319011261030a57600435611d3a600260015414156128cf565b6002600155611d5060ff5f5460a01c16156129f9565b60025481111580612106575b611d659061291b565b805f52600660205260ff600a60405f20015460a01c166007811015610316576001611d90911461295c565b805f52600660205260405f20600c8101544210156120ca5766038d7ea4c68000341061208e57683635c9adc5dea0000034116120525760068101611dd5348254612a38565b91600581019283541061201b575f84815260076020908152604080832033845290915290206001015415611fbb575b5f848152600760209081526040808320338452909152902060010154611e2b903490612a38565b92845f52600760205260405f2060018060a01b0333165f52602052600460405f200154936007830154612710019485612710116102cc57611e7d600491612710611e768a99346129a1565b0490612a38565b611f0a60405193611e8d856126be565b3380865260208087019283524260408089019182525f60608a0181815260808b019889528e82526007855282822095825294909352909120965187546001600160a01b039091166001600160a01b031990911617875591516001870155905160028601555160038501805460ff191691151560ff16919091179055565b51910155611f19348454612a38565b90818455541115611f59575b82604051903482527f89728d542d77fad9fe42c7d1f032c2b85f64cf938d754183b0e95359fbfac8a160203393a360018055005b600a01805460ff60a01b1916600160a11b179055546040519081527f26130d0cd3f6aa101d05e4a4f2ff016fd5b934363d17bdd03ff5dc03ec5934a990602090a2805f516020612b0e5f395f51905f52602060405160028152a2808280611f25565b835f52600860205260405f2080546801000000000000000081101561153f57611fe9916001820181556128a6565b81546001600160a01b0360039290921b91821b19163390911b179055600d8101805461201490612a45565b9055611e04565b60405162461bcd60e51b815260206004820152600f60248201526e15185c99d95d08195e18d959591959608a1b6044820152606490fd5b60405162461bcd60e51b8152602060048201526014602482015273496e766573746d656e7420746f6f206c6172676560601b6044820152606490fd5b60405162461bcd60e51b8152602060048201526014602482015273125b9d995cdd1b595b9d081d1bdbc81cdb585b1b60621b6044820152606490fd5b60405162461bcd60e51b8152602060048201526014602482015273119d5b991a5b99c81c195c9a5bd908195b99195960621b6044820152606490fd5b50801515611d5c565b3461030a57602036600319011261030a57600435805f52600660205261214560018060a01b03600a60405f2001541633146129b4565b600254811115806122e4575b61215a9061291b565b805f52600660205260405f20600a81019060ff825460a01c16600781101561031657600181149081156122db575b50156122a657815460ff60a01b1916600360a11b17909155600601546121e8575b5f516020612b0e5f395f51905f526020604051837fe3805ed669490875ae87c5c8b1ad6ecca0e5e67305a833926d0d4317c4822fc05f80a260068152a2005b5f5b815f52600860205260405f20548110156122a057815f5260086020526122138160405f206128a6565b90545f84815260076020908152604080832060039590951b9390931c6001600160a01b031680835293905220600101549081158015612258575b5050506001016121ea565b5f80938193829388845260076020526040842060018060a01b03831685526020528360016040822001558390612297575bf1156102b85782808061224d565b506108fc612289565b506121a9565b60405162461bcd60e51b815260206004820152600d60248201526c10d85b9b9bdd0818d85b98d95b609a1b6044820152606490fd5b90501584612188565b50801515612151565b3461030a57602036600319011261030a57600435612310600260015414156128cf565b6002600155600254811115806124c9575b61232a9061291b565b805f52600660205260ff600a60405f20015460a01c166007811015610316576004612355911461295c565b5f81815260076020908152604080832033845282528083208484526009909252909120600182015492918315612494576003019081549360ff851661245d5760048201548015612422576123a8916129a1565b9054801561240e57600191049360ff1916179055815f8115612405575b5f80809381933390f1156102b8576040519182527f317a81de21a23316ba0c5919f4b6b57c79ef4a1ddf1e71ec30466b44fccc820060203393a360018055005b506108fc6123c5565b634e487b7160e01b5f52601260045260245ffd5b60405162461bcd60e51b81526020600482015260136024820152724e6f2072657475726e7320746f20636c61696d60681b6044820152606490fd5b60405162461bcd60e51b815260206004820152600f60248201526e105b1c9958591e4818db185a5b5959608a1b6044820152606490fd5b60405162461bcd60e51b815260206004820152600d60248201526c139bc81a5b9d995cdd1b595b9d609a1b6044820152606490fd5b50801515612321565b3461030a57602036600319011261030a576004355f52600660205260405f208054906001810161250190612731565b8161250e60028201612731565b600382015460ff16929061252460048401612731565b60058401546006850154600786015460088701549161254560098901612731565b94600a89015499600b8a015497600c8b015499600d8c01549b600e0161256a90612731565b9d600f0161257790612731565b9e6040516080526080515260805160200161022090526080516102200161259d916127d1565b6080518103608051604001526125b2916127d1565b906080516060016125c2916127f5565b6080518103608051608001526125d7916127d1565b9360805160a0015260805160c0015260805160e0015260805161010001526080518103608051610120015261260b916127d1565b93600160a01b6001900381166080516101400152608051610160019060a01c60ff169061263791612802565b60805161018001526080516101a001526080516101c0015260805181036080516101e00152612665916127d1565b906080518203608051610200015260805191612680916127d1565b03608051f35b90600182811c921680156126b4575b60208310146126a057565b634e487b7160e01b5f52602260045260245ffd5b91607f1691612695565b60a081019081106001600160401b0382111761153f57604052565b61022081019081106001600160401b0382111761153f57604052565b60e081019081106001600160401b0382111761153f57604052565b90601f801991011681019081106001600160401b0382111761153f57604052565b9060405191825f82549261274484612686565b80845293600181169081156127af575060011461276b575b5061276992500383612710565b565b90505f9291925260205f20905f915b818310612793575050906020612769928201015f61275c565b602091935080600191548385890101520191019091849261277a565b90506020925061276994915060ff191682840152151560051b8201015f61275c565b805180835260209291819084018484015e5f828201840152601f01601f1916010190565b9060088210156103165752565b9060078210156103165752565b602435906001600160a01b038216820361030a57565b600435906001600160a01b038216820361030a57565b81601f8201121561030a578035906001600160401b03821161153f576040519261286f601f8401601f191660200185612710565b8284526020838301011161030a57815f926020809301838601378301015290565b604090600319011261030a576004359060243590565b80548210156128bb575f5260205f2001905f90565b634e487b7160e01b5f52603260045260245ffd5b156128d657565b60405162461bcd60e51b815260206004820152601f60248201527f5265656e7472616e637947756172643a207265656e7472616e742063616c6c006044820152606490fd5b1561292257565b60405162461bcd60e51b8152602060048201526012602482015271125b9d985b1a59081c1c9bda9958dd08125160721b6044820152606490fd5b1561296357565b60405162461bcd60e51b8152602060048201526016602482015275496e76616c69642070726f6a6563742073746174757360501b6044820152606490fd5b818102929181159184041417156102cc57565b156129bb57565b60405162461bcd60e51b815260206004820152601660248201527527b7363c90383937b532b1ba1037b933b0b734bd32b960511b6044820152606490fd5b15612a0057565b60405162461bcd60e51b815260206004820152601060248201526f14185d5cd8589b194e881c185d5cd95960821b6044820152606490fd5b919082018092116102cc57565b5f1981146102cc5760010190565b15612a5a57565b60405162461bcd60e51b815260206004820152600d60248201526c4f6e6c7920706c6174666f726d60981b6044820152606490fd5b60088210156103165752565b15612aa257565b60405162461bcd60e51b815260206004820152601860248201527f526576656e756520636f6e7472616374206e6f742073657400000000000000006044820152606490fd5b5f546001600160a01b03163303612afa57565b63118cdaa760e01b5f523360045260245ffdfe2da7b23ca63c1eb969eee5fae4acb98186abecf5358b0354a82a5183ebca6b2aa2646970667358221220b3241e80cd9297b51c25c7c6eb88c5ca4c5753cd6069ba0fd7eecce7d021f76d64736f6c634300081e0033","linkReferences":{}},"methodIdentifiers":{"cancelProject(uint256)":"24941147","claimReturns(uint256)":"21b6a353","completeProject(uint256,uint256)":"c3fa0ba1","createProject(string,string,uint8,string,uint256,uint256,uint256,string,string,string)":"58d0df19","getInvestmentInfo(uint256,address)":"2bd8fc45","getProjectDetails(uint256)":"5f8439e3","getProjectInvestors(uint256)":"3842ced3","getProjectStatus(uint256)":"9675c009","getReturnDetails(uint256)":"831a9196","invest(uint256)":"2afcf480","investments(uint256,address)":"b11b32d2","owner()":"8da5cb5b","pause()":"8456cb59","paused()":"5c975abb","platformFactory()":"9f0972c4","projectInvestors(uint256,uint256)":"8b44da95","projects(uint256)":"107046bd","renounceOwnership()":"715018a6","returnDetails(uint256)":"5a19cc2e","revenueContract()":"c884d21e","setRevenueContract(address)":"498a6de7","setStakingContract(address)":"9dd373b9","stakingContract()":"ee99205c","startProject(uint256)":"f62bf2de","transferOwnership(address)":"f2fde38b","unpause()":"3f4ba83a","updateProgress(uint256,string)":"d18b5b41"},"id":52}