{"abi":[{"type":"function","name":"BASIS_POINTS","inputs":[],"outputs":[{"name":"","type":"uint256","internalType":"uint256"}],"stateMutability":"view"},{"type":"function","name":"MAX_INVESTMENT","inputs":[],"outputs":[{"name":"","type":"uint256","internalType":"uint256"}],"stateMutability":"view"},{"type":"function","name":"MIN_INVESTMENT","inputs":[],"outputs":[{"name":"","type":"uint256","internalType":"uint256"}],"stateMutability":"view"},{"type":"event","name":"InvestmentMade","inputs":[{"name":"projectId","type":"uint256","indexed":true,"internalType":"uint256"},{"name":"investor","type":"address","indexed":true,"internalType":"address"},{"name":"amount","type":"uint256","indexed":false,"internalType":"uint256"}],"anonymous":false},{"type":"event","name":"ProjectCreated","inputs":[{"name":"projectId","type":"uint256","indexed":true,"internalType":"uint256"},{"name":"organizer","type":"address","indexed":true,"internalType":"address"}],"anonymous":false},{"type":"event","name":"StatusUpdated","inputs":[{"name":"projectId","type":"uint256","indexed":true,"internalType":"uint256"},{"name":"newStatus","type":"uint8","indexed":false,"internalType":"enum ProjectTypes.ProjectStatus"}],"anonymous":false},{"type":"error","name":"InsufficientBalance","inputs":[]},{"type":"error","name":"InvalidProjectStatus","inputs":[]},{"type":"error","name":"InvestmentTooLarge","inputs":[]},{"type":"error","name":"InvestmentTooSmall","inputs":[]},{"type":"error","name":"ProjectNotActive","inputs":[]},{"type":"error","name":"UnauthorizedAccess","inputs":[]}],"bytecode":{"object":"0x6080806040523460175760bf9081601c823930815050f35b5f80fdfe60808060405260043610156011575f80fd5b5f3560e01c9081634c76361e14606e575080634ef8ff331460535763e1f1c4a7146039575f80fd5b5f366003190112604f5760206040516127108152f35b5f80fd5b5f366003190112604f57602060405166038d7ea4c680008152f35b5f366003190112604f5780683635c9adc5dea0000060209252f3fea26469706673582212202791d3fb95e56907dd7d15e61943943cdee2faafe1af6705a6b53fbce54b8a0a64736f6c634300081e0033","linkReferences":{}},"methodIdentifiers":{"BASIS_POINTS()":"e1f1c4a7","MAX_INVESTMENT()":"4c76361e","MIN_INVESTMENT()":"4ef8ff33"},"id":51}