{"abi":[{"type":"constructor","inputs":[{"name":"_platformFactory","type":"address","internalType":"address"}],"stateMutability":"nonpayable"},{"type":"function","name":"CLOCK_MODE","inputs":[],"outputs":[{"name":"","type":"string","internalType":"string"}],"stateMutability":"view"},{"type":"function","name":"DOMAIN_SEPARATOR","inputs":[],"outputs":[{"name":"","type":"bytes32","internalType":"bytes32"}],"stateMutability":"view"},{"type":"function","name":"INITIAL_SUPPLY","inputs":[],"outputs":[{"name":"","type":"uint256","internalType":"uint256"}],"stateMutability":"view"},{"type":"function","name":"MAX_SUPPLY","inputs":[],"outputs":[{"name":"","type":"uint256","internalType":"uint256"}],"stateMutability":"view"},{"type":"function","name":"addRewards","inputs":[{"name":"user","type":"address","internalType":"address"},{"name":"amount","type":"uint256","internalType":"uint256"}],"outputs":[],"stateMutability":"nonpayable"},{"type":"function","name":"allowance","inputs":[{"name":"owner","type":"address","internalType":"address"},{"name":"spender","type":"address","internalType":"address"}],"outputs":[{"name":"","type":"uint256","internalType":"uint256"}],"stateMutability":"view"},{"type":"function","name":"approve","inputs":[{"name":"spender","type":"address","internalType":"address"},{"name":"value","type":"uint256","internalType":"uint256"}],"outputs":[{"name":"","type":"bool","internalType":"bool"}],"stateMutability":"nonpayable"},{"type":"function","name":"balanceOf","inputs":[{"name":"account","type":"address","internalType":"address"}],"outputs":[{"name":"","type":"uint256","internalType":"uint256"}],"stateMutability":"view"},{"type":"function","name":"burn","inputs":[{"name":"amount","type":"uint256","internalType":"uint256"}],"outputs":[],"stateMutability":"nonpayable"},{"type":"function","name":"checkpoints","inputs":[{"name":"account","type":"address","internalType":"address"},{"name":"pos","type":"uint32","internalType":"uint32"}],"outputs":[{"name":"","type":"tuple","internalType":"struct Checkpoints.Checkpoint208","components":[{"name":"_key","type":"uint48","internalType":"uint48"},{"name":"_value","type":"uint208","internalType":"uint208"}]}],"stateMutability":"view"},{"type":"function","name":"claimRewards","inputs":[],"outputs":[],"stateMutability":"nonpayable"},{"type":"function","name":"clock","inputs":[],"outputs":[{"name":"","type":"uint48","internalType":"uint48"}],"stateMutability":"view"},{"type":"function","name":"decimals","inputs":[],"outputs":[{"name":"","type":"uint8","internalType":"uint8"}],"stateMutability":"view"},{"type":"function","name":"delegate","inputs":[{"name":"delegatee","type":"address","internalType":"address"}],"outputs":[],"stateMutability":"nonpayable"},{"type":"function","name":"delegateBySig","inputs":[{"name":"delegatee","type":"address","internalType":"address"},{"name":"nonce","type":"uint256","internalType":"uint256"},{"name":"expiry","type":"uint256","internalType":"uint256"},{"name":"v","type":"uint8","internalType":"uint8"},{"name":"r","type":"bytes32","internalType":"bytes32"},{"name":"s","type":"bytes32","internalType":"bytes32"}],"outputs":[],"stateMutability":"nonpayable"},{"type":"function","name":"delegates","inputs":[{"name":"account","type":"address","internalType":"address"}],"outputs":[{"name":"","type":"address","internalType":"address"}],"stateMutability":"view"},{"type":"function","name":"eip712Domain","inputs":[],"outputs":[{"name":"fields","type":"bytes1","internalType":"bytes1"},{"name":"name","type":"string","internalType":"string"},{"name":"version","type":"string","internalType":"string"},{"name":"chainId","type":"uint256","internalType":"uint256"},{"name":"verifyingContract","type":"address","internalType":"address"},{"name":"salt","type":"bytes32","internalType":"bytes32"},{"name":"extensions","type":"uint256[]","internalType":"uint256[]"}],"stateMutability":"view"},{"type":"function","name":"getBalanceWithVotingPower","inputs":[{"name":"account","type":"address","internalType":"address"}],"outputs":[{"name":"balance","type":"uint256","internalType":"uint256"},{"name":"votingPower","type":"uint256","internalType":"uint256"}],"stateMutability":"view"},{"type":"function","name":"getPastTotalSupply","inputs":[{"name":"timepoint","type":"uint256","internalType":"uint256"}],"outputs":[{"name":"","type":"uint256","internalType":"uint256"}],"stateMutability":"view"},{"type":"function","name":"getPastVotes","inputs":[{"name":"account","type":"address","internalType":"address"},{"name":"timepoint","type":"uint256","internalType":"uint256"}],"outputs":[{"name":"","type":"uint256","internalType":"uint256"}],"stateMutability":"view"},{"type":"function","name":"getVotes","inputs":[{"name":"account","type":"address","internalType":"address"}],"outputs":[{"name":"","type":"uint256","internalType":"uint256"}],"stateMutability":"view"},{"type":"function","name":"getVotingPower","inputs":[{"name":"account","type":"address","internalType":"address"}],"outputs":[{"name":"","type":"uint256","internalType":"uint256"}],"stateMutability":"view"},{"type":"function","name":"lastClaimTime","inputs":[{"name":"","type":"address","internalType":"address"}],"outputs":[{"name":"","type":"uint256","internalType":"uint256"}],"stateMutability":"view"},{"type":"function","name":"maxSupply","inputs":[],"outputs":[{"name":"","type":"uint256","internalType":"uint256"}],"stateMutability":"view"},{"type":"function","name":"mint","inputs":[{"name":"to","type":"address","internalType":"address"},{"name":"amount","type":"uint256","internalType":"uint256"}],"outputs":[],"stateMutability":"nonpayable"},{"type":"function","name":"name","inputs":[],"outputs":[{"name":"","type":"string","internalType":"string"}],"stateMutability":"view"},{"type":"function","name":"nonces","inputs":[{"name":"owner","type":"address","internalType":"address"}],"outputs":[{"name":"","type":"uint256","internalType":"uint256"}],"stateMutability":"view"},{"type":"function","name":"numCheckpoints","inputs":[{"name":"account","type":"address","internalType":"address"}],"outputs":[{"name":"","type":"uint32","internalType":"uint32"}],"stateMutability":"view"},{"type":"function","name":"owner","inputs":[],"outputs":[{"name":"","type":"address","internalType":"address"}],"stateMutability":"view"},{"type":"function","name":"permit","inputs":[{"name":"owner","type":"address","internalType":"address"},{"name":"spender","type":"address","internalType":"address"},{"name":"value","type":"uint256","internalType":"uint256"},{"name":"deadline","type":"uint256","internalType":"uint256"},{"name":"v","type":"uint8","internalType":"uint8"},{"name":"r","type":"bytes32","internalType":"bytes32"},{"name":"s","type":"bytes32","internalType":"bytes32"}],"outputs":[],"stateMutability":"nonpayable"},{"type":"function","name":"platformFactory","inputs":[],"outputs":[{"name":"","type":"address","internalType":"address"}],"stateMutability":"view"},{"type":"function","name":"recoverERC20","inputs":[{"name":"tokenAddress","type":"address","internalType":"address"},{"name":"amount","type":"uint256","internalType":"uint256"}],"outputs":[],"stateMutability":"nonpayable"},{"type":"function","name":"renounceOwnership","inputs":[],"outputs":[],"stateMutability":"nonpayable"},{"type":"function","name":"rewards","inputs":[{"name":"","type":"address","internalType":"address"}],"outputs":[{"name":"","type":"uint256","internalType":"uint256"}],"stateMutability":"view"},{"type":"function","name":"setMaxSupply","inputs":[{"name":"newMaxSupply","type":"uint256","internalType":"uint256"}],"outputs":[],"stateMutability":"nonpayable"},{"type":"function","name":"setPlatformFactory","inputs":[{"name":"_platformFactory","type":"address","internalType":"address"}],"outputs":[],"stateMutability":"nonpayable"},{"type":"function","name":"symbol","inputs":[],"outputs":[{"name":"","type":"string","internalType":"string"}],"stateMutability":"view"},{"type":"function","name":"totalSupply","inputs":[],"outputs":[{"name":"","type":"uint256","internalType":"uint256"}],"stateMutability":"view"},{"type":"function","name":"transfer","inputs":[{"name":"to","type":"address","internalType":"address"},{"name":"value","type":"uint256","internalType":"uint256"}],"outputs":[{"name":"","type":"bool","internalType":"bool"}],"stateMutability":"nonpayable"},{"type":"function","name":"transferFrom","inputs":[{"name":"from","type":"address","internalType":"address"},{"name":"to","type":"address","internalType":"address"},{"name":"value","type":"uint256","internalType":"uint256"}],"outputs":[{"name":"","type":"bool","internalType":"bool"}],"stateMutability":"nonpayable"},{"type":"function","name":"transferOwnership","inputs":[{"name":"newOwner","type":"address","internalType":"address"}],"outputs":[],"stateMutability":"nonpayable"},{"type":"event","name":"Approval","inputs":[{"name":"owner","type":"address","indexed":true,"internalType":"address"},{"name":"spender","type":"address","indexed":true,"internalType":"address"},{"name":"value","type":"uint256","indexed":false,"internalType":"uint256"}],"anonymous":false},{"type":"event","name":"DelegateChanged","inputs":[{"name":"delegator","type":"address","indexed":true,"internalType":"address"},{"name":"fromDelegate","type":"address","indexed":true,"internalType":"address"},{"name":"toDelegate","type":"address","indexed":true,"internalType":"address"}],"anonymous":false},{"type":"event","name":"DelegateVotesChanged","inputs":[{"name":"delegate","type":"address","indexed":true,"internalType":"address"},{"name":"previousVotes","type":"uint256","indexed":false,"internalType":"uint256"},{"name":"newVotes","type":"uint256","indexed":false,"internalType":"uint256"}],"anonymous":false},{"type":"event","name":"EIP712DomainChanged","inputs":[],"anonymous":false},{"type":"event","name":"OwnershipTransferred","inputs":[{"name":"previousOwner","type":"address","indexed":true,"internalType":"address"},{"name":"newOwner","type":"address","indexed":true,"internalType":"address"}],"anonymous":false},{"type":"event","name":"PlatformFactoryUpdated","inputs":[{"name":"newFactory","type":"address","indexed":false,"internalType":"address"}],"anonymous":false},{"type":"event","name":"RewardsClaimed","inputs":[{"name":"user","type":"address","indexed":true,"internalType":"address"},{"name":"amount","type":"uint256","indexed":false,"internalType":"uint256"}],"anonymous":false},{"type":"event","name":"TokensBurned","inputs":[{"name":"from","type":"address","indexed":true,"internalType":"address"},{"name":"amount","type":"uint256","indexed":false,"internalType":"uint256"}],"anonymous":false},{"type":"event","name":"TokensMinted","inputs":[{"name":"to","type":"address","indexed":true,"internalType":"address"},{"name":"amount","type":"uint256","indexed":false,"internalType":"uint256"}],"anonymous":false},{"type":"event","name":"Transfer","inputs":[{"name":"from","type":"address","indexed":true,"internalType":"address"},{"name":"to","type":"address","indexed":true,"internalType":"address"},{"name":"value","type":"uint256","indexed":false,"internalType":"uint256"}],"anonymous":false},{"type":"error","name":"CheckpointUnorderedInsertion","inputs":[]},{"type":"error","name":"ECDSAInvalidSignature","inputs":[]},{"type":"error","name":"ECDSAInvalidSignatureLength","inputs":[{"name":"length","type":"uint256","internalType":"uint256"}]},{"type":"error","name":"ECDSAInvalidSignatureS","inputs":[{"name":"s","type":"bytes32","internalType":"bytes32"}]},{"type":"error","name":"ERC20ExceededSafeSupply","inputs":[{"name":"increasedSupply","type":"uint256","internalType":"uint256"},{"name":"cap","type":"uint256","internalType":"uint256"}]},{"type":"error","name":"ERC20InsufficientAllowance","inputs":[{"name":"spender","type":"address","internalType":"address"},{"name":"allowance","type":"uint256","internalType":"uint256"},{"name":"needed","type":"uint256","internalType":"uint256"}]},{"type":"error","name":"ERC20InsufficientBalance","inputs":[{"name":"sender","type":"address","internalType":"address"},{"name":"balance","type":"uint256","internalType":"uint256"},{"name":"needed","type":"uint256","internalType":"uint256"}]},{"type":"error","name":"ERC20InvalidApprover","inputs":[{"name":"approver","type":"address","internalType":"address"}]},{"type":"error","name":"ERC20InvalidReceiver","inputs":[{"name":"receiver","type":"address","internalType":"address"}]},{"type":"error","name":"ERC20InvalidSender","inputs":[{"name":"sender","type":"address","internalType":"address"}]},{"type":"error","name":"ERC20InvalidSpender","inputs":[{"name":"spender","type":"address","internalType":"address"}]},{"type":"error","name":"ERC2612ExpiredSignature","inputs":[{"name":"deadline","type":"uint256","internalType":"uint256"}]},{"type":"error","name":"ERC2612InvalidSigner","inputs":[{"name":"signer","type":"address","internalType":"address"},{"name":"owner","type":"address","internalType":"address"}]},{"type":"error","name":"ERC5805FutureLookup","inputs":[{"name":"timepoint","type":"uint256","internalType":"uint256"},{"name":"clock","type":"uint48","internalType":"uint48"}]},{"type":"error","name":"ERC6372InconsistentClock","inputs":[]},{"type":"error","name":"InvalidAccountNonce","inputs":[{"name":"account","type":"address","internalType":"address"},{"name":"currentNonce","type":"uint256","internalType":"uint256"}]},{"type":"error","name":"InvalidShortString","inputs":[]},{"type":"error","name":"OwnableInvalidOwner","inputs":[{"name":"owner","type":"address","internalType":"address"}]},{"type":"error","name":"OwnableUnauthorizedAccount","inputs":[{"name":"account","type":"address","internalType":"address"}]},{"type":"error","name":"SafeCastOverflowedUintDowncast","inputs":[{"name":"bits","type":"uint8","internalType":"uint8"},{"name":"value","type":"uint256","internalType":"uint256"}]},{"type":"error","name":"StringTooLong","inputs":[{"name":"str","type":"string","internalType":"string"}]},{"type":"error","name":"VotesExpiredSignature","inputs":[{"name":"expiry","type":"uint256","internalType":"uint256"}]}],"bytecode":{"object":"0x6101606040523461009457602061330c803803809161001d826100ac565b610160391261009457610160516001600160a01b03811681036100945761004390610171565b6040516125169081610db6823960805181611876015260a05181611933015260c05181611840015260e051816118c5015261010051816118eb01526101205181610c1301526101405181610c3c0152f35b5f80fd5b634e487b7160e01b5f52604160045260245ffd5b610160601f91909101601f19168101906001600160401b038211908210176100d357604052565b610098565b601f909101601f19168101906001600160401b038211908210176100d357604052565b6040519061010a6040836100d8565b565b6040519061011b6040836100d8565b60038252565b604051906101306040836100d8565b60018252565b604051906101456040836100d8565b601a82527f43726f77646c656e6420476f7665726e616e636520546f6b656e0000000000006020830152565b610179610136565b610181610136565b9061018a61010c565b906210d1d560ea1b602083015261019f610121565b603160f81b60208201908152845190949193916001600160401b0382116100d3576101d4826101cf60035461033b565b610373565b602090601f83116001146102b45791806102089261021095945f926102a9575b50508160011b915f199060031b1c19161790565b600355610412565b61021981610620565b6101205261022682610715565b610140526020815191012060e052519020610100524660a052610247610807565b6080523060c05233156102955761010a90610261336105d8565b600c80546001600160a01b0319166001600160a01b0383161790556102906a52b7d2dcc80cd2e4000000600d55565b6104eb565b631e4fbdf760e01b5f90815260045260245ffd5b015190505f806101f4565b60035f52601f19831691907fc2575a0e9e593c00f959f8c92f12db2869c3395a3b0502d05e2516446f71f85b925f5b81811061032357509160019391856102109796941061030b575b505050811b01600355610412565b01515f1960f88460031b161c191690555f80806102fd565b929360206001819287860151815501950193016102e3565b90600182811c92168015610369575b602083101461035557565b634e487b7160e01b5f52602260045260245ffd5b91607f169161034a565b601f811161037f575050565b60035f5260205f20906020601f840160051c830193106103b9575b601f0160051c01905b8181106103ae575050565b5f81556001016103a3565b909150819061039a565b601f82116103d057505050565b5f5260205f20906020601f840160051c83019310610408575b601f0160051c01905b8181106103fd575050565b5f81556001016103f2565b90915081906103e9565b80519091906001600160401b0381116100d35761043b8161043460045461033b565b60046103c3565b602092601f821160011461046f5761046a929382915f926102a95750508160011b915f199060031b1c19161790565b600455565b60045f52601f198216937f8a35acfbc15ff81a39ae7d344fd709f28e8600b4aa8c65c6b64bfe7fe36bd19b915f5b8681106104d357508360019596106104bb575b505050811b01600455565b01515f1960f88460031b161c191690555f80806104b0565b9192602060018192868501518155019401920161049d565b6001600160a01b03811680156105c5576002546a084595161401484a00000081018091116105c0576002556001600160a01b0382165f9081526020819052604090206a084595161401484a00000081540190555f7fddf252ad1be2c89b69c2b068fc378daa952ba7f163c4a11628f55a4df523b3ef6040518061057e6a084595161401484a000000829190602083019252565b0390a36002546001600160d01b03908181116105ab5750506a084595161401484a00000061010a916108e4565b630e58ae9360e11b5f5260045260245260445ffd5b6108d0565b63ec442f0560e01b5f525f60045260245ffd5b600b80546001600160a01b039283166001600160a01b0319821681179092559091167f8be0079c531659141344cd1fd0a4f28419497f9722a3daafe3b4186f6b6457e05f80a3565b908151602081105f1461063b57509061063890610865565b90565b6001600160401b0381116100d35761065f8161065860055461033b565b60056103c3565b602092601f82116001146106965761068e929382915f926102a95750508160011b915f199060031b1c19161790565b60055560ff90565b60055f52601f198216937f036b6384b5eca791c62761152d0c79bb0604c104a5fb6f4eb0703f3154bb3db0915f5b8681106106fd57508360019596106106e5575b505050811b0160055560ff90565b01515f1960f88460031b161c191690555f80806106d7565b919260206001819286850151815501940192016106c4565b908151602081105f1461072d57509061063890610865565b6001600160401b0381116100d3576107518161074a60065461033b565b60066103c3565b602092601f821160011461078857610780929382915f926102a95750508160011b915f199060031b1c19161790565b60065560ff90565b60065f52601f198216937ff652222313e28459528d920b65115c16c04f3efc82aaedc97be59f3f377c0d3f915f5b8681106107ef57508360019596106107d7575b505050811b0160065560ff90565b01515f1960f88460031b161c191690555f80806107c9565b919260206001819286850151815501940192016107b6565b60e051610100516040519060208201927f8b73c3c69bb8fe3d512ecc4cf759cc79239f7b179b0ffacaa9a75d522b39400f8452604083015260608201524660808201523060a082015260a0815261085f60c0826100d8565b51902090565b601f815111610890576020815191015160208210610881571790565b5f198260200360031b1b161790565b604460209160405192839163305a27a960e01b83528160048401528051918291826024860152018484015e5f828201840152601f01601f19168101030190fd5b634e487b7160e01b5f52601160045260245ffd5b906108ee816109e3565b9165ffffffffffff43116109cb57600a5480610995575061092861091861010a945f5b6001610d59565b65ffffffffffff4316600a610c83565b50506001600160a01b0316801561097d575b60086020527f5eff886ea0ce6ca488a3d6e336d6c0f75f46d19b42c06ce5ee98e42c96d256c7545f9182526040909120546001600160a01b039081169116610b12565b61098e610989836109e3565b610a14565b505061093a565b92835f198101116105c057600a5f525f5160206132cc5f395f51905f529093015461010a9361092891610918919060301c610911565b6306dfcc6560e41b5f5260306004524360245260445ffd5b6001600160d01b0381116109fd576001600160d01b031690565b6306dfcc6560e41b5f5260d060045260245260445ffd5b65ffffffffffff43116109cb57600a5480610a3e5750610918610a3a915f5b6002610d59565b9091565b805f198101116105c057600a5f525f5160206132cc5f395f51905f520154610a3a916109189160301c610a33565b65ffffffffffff43116109cb57805480610aa05750610a90610a3a925f6002610d59565b9065ffffffffffff431690610c83565b805f198101116105c0575f82815260209020015f190154610a3a92610a909160301c610a33565b65ffffffffffff43116109cb57805480610aeb5750610a90610a3a925f6001610d59565b805f198101116105c0575f82815260209020015f190154610a3a92610a909160301c610911565b6001600160a01b03808316939291908116908185141580610c05575b610b3a575b5050505050565b81610bab575b505082610b4f575b8080610b33565b6001600160a01b03165f9081526009602052604090205f5160206132ec5f395f51905f5291610b8891610b8290916109e3565b90610ac7565b604080516001600160d01b039384168152919092166020820152a25f8080610b48565b6001600160a01b03165f9081526009602052604090205f5160206132ec5f395f51905f5290610be390610bdd866109e3565b90610a6c565b604080516001600160d01b039384168152919092166020820152a25f80610b40565b50831515610b2e565b5f198101919082116105c057565b908154680100000000000000008110156100d35760018101808455811015610c6f575f9283526020928390208251929093015160301b65ffffffffffff191665ffffffffffff9290921691909117910155565b634e487b7160e01b5f52603260045260245ffd5b80549293928015610d2f57610c9a610ca591610c0e565b825f5260205f200190565b8054603081901c9365ffffffffffff91821692918116808411610d2057879303610cec5750610ce892509065ffffffffffff82549181199060301b169116179055565b9190565b915050610ce891610d0c610cfe6100fb565b65ffffffffffff9093168352565b6001600160d01b0386166020830152610c1c565b632520601d60e01b5f5260045ffd5b5090610d5491610d40610cfe6100fb565b6001600160d01b0385166020830152610c1c565b5f9190565b91909180600114610d9b57600214610d7f57634e487b7160e01b5f52605160045260245ffd5b6001600160d01b03908116918116919091039081116105c05790565b506001600160d01b03918216908216019081116105c0579056fe60806040526004361015610011575f80fd5b5f3560e01c806306fdde031461029f5780630700037d1461029a578063095ea7b31461029557806318160ddd1461029057806323b872dd1461028b5780632ff2e9dc14610286578063313ce5671461028157806332cb6b0c1461027c5780633644e51514610277578063372500ab146102725780633a46b1a81461026d57806340c10f191461026857806342966c68146102635780634bf5d7e91461025e578063587cde1e146102595780635c19a95c146102545780636f8b44b01461024f5780636fcfff451461024a57806370a0823114610245578063715018a614610240578063729000b01461023b5780637ecebe001461023657806384b0196e146102315780638980f11f1461022c5780638da5cb5b146102275780638e539e8c1461022257806391ddadf41461021d57806395d89b41146102185780639ab24eb0146101ff5780639f0972c414610213578063a9059cbb1461020e578063a9fc507b14610209578063b77cf9c614610204578063bb4d4436146101ff578063c3cda520146101fa578063d505accf146101f5578063d5abeb01146101f0578063dd62ed3e146101eb578063e041ed41146101e6578063f1127ed8146101e15763f2fde38b146101dc575f80fd5b6114a1565b6113ef565b61132c565b6112d5565b6112b8565b611194565b611085565b610f65565b61102d565b610fd6565b610fb0565b610f88565b610ec0565b610e95565b610dd6565b610dae565b610cf8565b610bfb565b610bc3565b610b67565b610b0c565b610ad4565b610a72565b610a0a565b6109e6565b6109a6565b610916565b610826565b61075c565b610677565b610593565b610571565b61054c565b610531565b61050c565b61046c565b61044f565b61041e565b6103e6565b6102dc565b805180835260209291819084018484015e5f828201840152601f01601f1916010190565b9060206102d99281815201906102a4565b90565b346103b6575f3660031901126103b6576040515f6003546102fc8161153b565b80845290600181169081156103925750600114610334575b6103308361032481850382611629565b604051918291826102c8565b0390f35b60035f9081527fc2575a0e9e593c00f959f8c92f12db2869c3395a3b0502d05e2516446f71f85b939250905b80821061037857509091508101602001610324610314565b919260018160209254838588010152019101909291610360565b60ff191660208086019190915291151560051b840190910191506103249050610314565b5f80fd5b600435906001600160a01b03821682036103b657565b602435906001600160a01b03821682036103b657565b346103b65760203660031901126103b6576001600160a01b036104076103ba565b165f52600f602052602060405f2054604051908152f35b346103b65760403660031901126103b65761044461043a6103ba565b6024359033611b46565b602060405160018152f35b346103b6575f3660031901126103b6576020600254604051908152f35b346103b65760603660031901126103b6576104856103ba565b61048d6103d0565b6001600160a01b0382165f9081526001602090815260408083203384529091529020549160443591905f1984106104d5575b6104c99350611751565b60405160018152602090f35b8284106104f1576104ec836104c995033383611be1565b6104bf565b8284637dc7a0d960e11b5f523360045260245260445260645ffd5b346103b6575f3660031901126103b65760206040516a084595161401484a0000008152f35b346103b6575f3660031901126103b657602060405160128152f35b346103b6575f3660031901126103b65760206040516a52b7d2dcc80cd2e40000008152f35b346103b6575f3660031901126103b657602061058b61183d565b604051908152f35b346103b6575f3660031901126103b657335f52600f60205260405f20541561063c57335f908152600e602052604090206105d9906105d1905461164b565b421015611669565b335f818152600f60209081526040808320805490849055600e90925290912042905590610607908290611959565b60405190815233907ffc30cddea38e2bf4d6ea7d3f9ed3b6ad7f176419f4963bd81318067a4aee73fe9080602081015b0390a2005b60405162461bcd60e51b81526020600482015260136024820152724e6f207265776172647320746f20636c61696d60681b6044820152606490fd5b346103b65760403660031901126103b6576106906103ba565b6001600160a01b03165f9081526009602052604090206106b16024356119f8565b8154905f829160058411610704575b6106cb935084611dd2565b90816106e957505060205f5b6040516001600160d01b039091168152f35b6106f4602092611a31565b905f52815f20015460301c6106d7565b919261070f81611c74565b8103908111610757576106cb93855f5265ffffffffffff8260205f2001541665ffffffffffff8516105f146107455750916106c0565b9291506107519061165b565b906106c0565b611527565b346103b65760403660031901126103b6576107756103ba565b6024359061078e60018060a01b03600c541633146116ad565b60025482810180911161075757600d54106107ec57610637816107d2847f3f2c9d57c068687834f0de942a9babb9e5acab57d516d3480a3c16ee165a427394611959565b6040519384526001600160a01b0316929081906020820190565b60405162461bcd60e51b815260206004820152601260248201527145786365656473206d617820737570706c7960701b6044820152606490fd5b346103b65760203660031901126103b657600435331561090357335f90815260208190526040902054908082106108e757335f908152602081905260409020909182900390556108798160025403600255565b6040518181525f9033907fddf252ad1be2c89b69c2b068fc378daa952ba7f163c4a11628f55a4df523b3ef90602090a36108b3813361223b565b60405190815233907ffd38818f5291bf0bb3a2a48aadc06ba8757865d1dabd804585338aab3009dcb6908060208101610637565b63391434e360e21b5f523360045260249190915260445260645ffd5b634b637e8f60e11b5f525f60045260245ffd5b346103b6575f3660031901126103b65761092f43611c27565b65ffffffffffff8061094043611c27565b1691160361099757610330604051610959604082611629565b601d81527f6d6f64653d626c6f636b6e756d6265722666726f6d3d64656661756c7400000060208201526040519182916020835260208301906102a4565b6301bfc1c560e61b5f5260045ffd5b346103b65760203660031901126103b6576001600160a01b036109c76103ba565b165f526008602052602060018060a01b0360405f205416604051908152f35b346103b65760203660031901126103b657610a08610a026103ba565b33611a3f565b005b346103b65760203660031901126103b657600435610a26611ac0565b6002548110610a3457600d55005b60405162461bcd60e51b81526020600482015260166024820152754e6577206d617820737570706c7920746f6f206c6f7760501b6044820152606490fd5b346103b65760203660031901126103b6576001600160a01b03610a936103ba565b165f52600960205260405f205463ffffffff8111610abd5760405163ffffffff9091168152602090f35b6306dfcc6560e41b5f52602060045260245260445ffd5b346103b65760203660031901126103b657602061058b610af26103ba565b6001600160a01b03165f9081526020819052604090205490565b346103b6575f3660031901126103b657610b24611ac0565b600b80546001600160a01b031981169091555f906001600160a01b03167f8be0079c531659141344cd1fd0a4f28419497f9722a3daafe3b4186f6b6457e08280a3005b346103b65760203660031901126103b6576001600160a01b03610b886103ba565b165f908152602081815260408083205460099092529091206001600160d01b0390610bb290611ae7565b604080519384529116602083015290f35b346103b65760203660031901126103b6576001600160a01b03610be46103ba565b165f526007602052602060405f2054604051908152f35b346103b6575f3660031901126103b657610c9f610c377f0000000000000000000000000000000000000000000000000000000000000000611f58565b610c607f0000000000000000000000000000000000000000000000000000000000000000611fb8565b6020604051610c6f8282611629565b5f815281610cad81830194601f198301368737604051978897600f60f81b895260e0858a015260e08901906102a4565b9087820360408901526102a4565b914660608701523060808701525f60a087015285830360c087015251918281520192915f5b828110610ce157505050500390f35b835185528695509381019392810192600101610cd2565b346103b65760403660031901126103b657610d5c6020610d166103ba565b60243590610d22611ac0565b600b5460405163a9059cbb60e01b81526001600160a01b0390911660048201526024810192909252909283919082905f9082906044820190565b03926001600160a01b03165af18015610da957610d7557005b6020813d602011610da1575b81610d8e60209383611629565b810103126103b65751801515036103b657005b3d9150610d81565b611702565b346103b6575f3660031901126103b657600b546040516001600160a01b039091168152602090f35b346103b65760203660031901126103b657610df26004356119f8565b600a54905f829160058411610e41575b610e0e9350600a611dd2565b80610e1f57506040515f8152602090f35b610e3c610e2d602092611a31565b600a5f52825f20015460301c90565b6106d7565b9192610e4c81611c74565b810390811161075757610e0e93600a5f5265ffffffffffff8260205f2001541665ffffffffffff8516105f14610e83575091610e02565b929150610e8f9061165b565b90610e02565b346103b6575f3660031901126103b6576020610eb043611c27565b65ffffffffffff60405191168152f35b346103b6575f3660031901126103b6576040515f600454610ee08161153b565b80845290600181169081156103925750600114610f07576103308361032481850382611629565b60045f9081527f8a35acfbc15ff81a39ae7d344fd709f28e8600b4aa8c65c6b64bfe7fe36bd19b939250905b808210610f4b57509091508101602001610324610314565b919260018160209254838588010152019101909291610f33565b346103b65760203660031901126103b657602061058b610f836103ba565b61170d565b346103b6575f3660031901126103b657600c546040516001600160a01b039091168152602090f35b346103b65760403660031901126103b657610444610fcc6103ba565b6024359033611751565b346103b65760403660031901126103b657610fef6103ba565b6024359061100860018060a01b03600c541633146116ad565b6001600160a01b03165f908152600f6020526040902080549182019182106107575755005b346103b65760203660031901126103b6576001600160a01b0361104e6103ba565b165f52600e602052602060405f2054604051908152f35b6064359060ff821682036103b657565b6084359060ff821682036103b657565b346103b65760c03660031901126103b65761109e6103ba565b602435906044356110ad611065565b6084359060a43592804211611182579161113293916111246111299460405160208101917fe48329057bfd03d55e49b547132e39cffd9c1820ad7b9d4c5307691425d15adf835260018060a01b038a1660408301528a606083015260808201526080815261111c60a082611629565b519020611b11565b611fef565b9092919261208f565b6001600160a01b0381165f90815260076020526040902080546001810190915580930361116357610a089250611a3f565b90506301d4b62360e61b5f5260018060a01b031660045260245260445ffd5b632341d78760e11b5f5260045260245ffd5b346103b65760e03660031901126103b6576111ad6103ba565b6111b56103d0565b60443590606435926111c5611075565b60a43560c435908642116112a5576001600160a01b0384165f90815260076020526040902080546001810190915561126a9390611265909860405160208101917f6e71edae12b1b97f4d1f60370fef10105fa2faae0126114a169c64845d6126c9835260018060a01b0389169b8c604084015260018060a01b038b1660608401528b608084015260a083015260c082015260c0815261111c60e082611629565b611b37565b936001600160a01b0385160361128457610a089350611b46565b6325c0072360e11b5f526001600160a01b038085166004521660245260445ffd5b8663313c898160e11b5f5260045260245ffd5b346103b6575f3660031901126103b6576020600d54604051908152f35b346103b65760403660031901126103b65760206113236112f36103ba565b6112fb6103d0565b6001600160a01b039182165f9081526001855260408082209290931681526020919091522090565b54604051908152f35b346103b65760203660031901126103b6576113456103ba565b61134d611ac0565b6001600160a01b03811680156113aa57600c80546001600160a01b0319169190911790556040516001600160a01b039190911681527fd9147c5fafb4c0ea4cbeca7cc97ac461a2078deb741894135759652188f066c490602090a1005b60405162461bcd60e51b815260206004820152601760248201527f496e76616c696420666163746f727920616464726573730000000000000000006044820152606490fd5b346103b65760403660031901126103b6576114086103ba565b6024359063ffffffff821682036103b6576103309161145791611429611739565b50611432611739565b506001600160a01b03165f908152600960205260409020611451611739565b5061210b565b506040519061146582611608565b5465ffffffffffff811680835260309190911c60209283019081526040805192835290516001600160d01b031692820192909252918291820190565b346103b65760203660031901126103b6576114ba6103ba565b6114c2611ac0565b6001600160a01b0316801561151457600b80546001600160a01b0319811683179091556001600160a01b03167f8be0079c531659141344cd1fd0a4f28419497f9722a3daafe3b4186f6b6457e05f80a3005b631e4fbdf760e01b5f525f60045260245ffd5b634e487b7160e01b5f52601160045260245ffd5b90600182811c92168015611569575b602083101461155557565b634e487b7160e01b5f52602260045260245ffd5b91607f169161154a565b5f92918154916115828361153b565b80835292600181169081156115d7575060011461159e57505050565b5f9081526020812093945091925b8383106115bd575060209250010190565b6001816020929493945483858701015201910191906115ac565b915050602093945060ff929192191683830152151560051b010190565b634e487b7160e01b5f52604160045260245ffd5b6040810190811067ffffffffffffffff82111761162457604052565b6115f4565b90601f8019910116810190811067ffffffffffffffff82111761162457604052565b9062093a80820180921161075757565b906001820180921161075757565b1561167057565b60405162461bcd60e51b8152602060048201526015602482015274436c61696d20636f6f6c646f776e2061637469766560581b6044820152606490fd5b156116b457565b60405162461bcd60e51b81526020600482015260156024820152744f6e6c7920706c6174666f726d20666163746f727960581b6044820152606490fd5b60405190611700604083611629565b565b6040513d5f823e3d90fd5b6001600160a01b03165f9081526009602052604090206001600160d01b039061173590611ae7565b1690565b6040519061174682611608565b5f6020838281520152565b6001600160a01b038116939291908415610903576001600160a01b038216801561182a576001600160a01b0382165f908152602081905260409020549584871061180457846117009697036117b58460018060a01b03165f525f60205260405f2090565b556001600160a01b0384165f9081526020819052604090208054860190556040518581527fddf252ad1be2c89b69c2b068fc378daa952ba7f163c4a11628f55a4df523b3ef90602090a3612339565b63391434e360e21b5f526001600160a01b0383166004526024879052604485905260645ffd5b63ec442f0560e01b5f525f60045260245ffd5b307f00000000000000000000000000000000000000000000000000000000000000006001600160a01b03161480611930575b15611898577f000000000000000000000000000000000000000000000000000000000000000090565b60405160208101907f8b73c3c69bb8fe3d512ecc4cf759cc79239f7b179b0ffacaa9a75d522b39400f82527f000000000000000000000000000000000000000000000000000000000000000060408201527f000000000000000000000000000000000000000000000000000000000000000060608201524660808201523060a082015260a0815261192a60c082611629565b51902090565b507f0000000000000000000000000000000000000000000000000000000000000000461461186f565b91906001600160a01b038316801561182a57600254828101809111610757576002556001600160a01b0384165f90815260208181526040808320805486019055518481527fddf252ad1be2c89b69c2b068fc378daa952ba7f163c4a11628f55a4df523b3ef9190a36002546001600160d01b0393908481116119e157506117009293506122c0565b8490630e58ae9360e11b5f5260045260245260445ffd5b65ffffffffffff611a0843611c27565b1680821015611a1b57506102d990611c27565b90637669fc0f60e11b5f5260045260245260445ffd5b5f1981019190821161075757565b6001600160a01b038181165f81815260086020526040812080548685166001600160a01b03198216811790925561170096941694611aba9390928691907f3134e8a2e6d97e929a7e54011ea5485d7d196dd5f0ba4d4ef95803e8e3fc257f9080a46001600160a01b03165f9081526020819052604090205490565b91611e36565b600b546001600160a01b03163303611ad457565b63118cdaa760e01b5f523360045260245ffd5b80549081611af55750505f90565b815f19810111610757575f525f199060205f2001015460301c90565b604290611b1c61183d565b906040519161190160f01b8352600283015260228201522090565b916102d9939161112993611fef565b6001600160a01b0316908115611bce576001600160a01b038116928315611bbb5780611bae7f8c5be1e5ebec7d5bd14f71427d1e84f3dd0314c0f7b2291e5b200ac8c7c3b92593855f52600160205260405f209060018060a01b03165f5260205260405f2090565b55604051908152602090a3565b634a1406b160e11b5f525f60045260245ffd5b63e602df0560e01b5f525f60045260245ffd5b6001600160a01b0316908115611bce576001600160a01b03811615611bbb57611c24915f52600160205260405f209060018060a01b03165f5260205260405f2090565b55565b65ffffffffffff8111611c3f5765ffffffffffff1690565b6306dfcc6560e41b5f52603060045260245260445ffd5b8115611c60570490565b634e487b7160e01b5f52601260045260245ffd5b60018111156102d957806001600160801b821015611d95575b611d3b611d31611d27611d1d611d13611d09611cf8611d429760048a600160401b611d479c1015611d88575b640100000000811015611d7b575b62010000811015611d6e575b610100811015611d61575b6010811015611d54575b1015611d4c575b60030260011c90565b611d02818b611c56565b0160011c90565b611d02818a611c56565b611d028189611c56565b611d028188611c56565b611d028187611c56565b611d028186611c56565b8093611c56565b821190565b900390565b60011b611cef565b60041c9160021b91611ce8565b60081c9160041b91611cde565b60101c9160081b91611cd3565b60201c9160101b91611cc7565b60401c9160201b91611cb9565b5050611d47611d42611d3b611d31611d27611d1d611d13611d09611cf8611dbc8a60801c90565b9850600160401b9750611c8d9650505050505050565b91905b838210611de25750505090565b9091928083169080841860011c820180921161075757845f5265ffffffffffff8260205f2001541665ffffffffffff8416105f14611e245750925b9190611dd5565b939250611e309061165b565b91611e1d565b6001600160a01b03808316939291908116908185141580611f4f575b611e5e575b5050505050565b81611ee2575b505082611e73575b8080611e57565b6001600160a01b03165f9081526009602052604090207fdec2bacdd2f05b59de34da9b523dff8be42e5e38e818c82fdb0bae774387a72491611ebf91611eb99091612134565b9061219d565b604080516001600160d01b039384168152919092166020820152a25f8080611e6c565b6001600160a01b03165f9081526009602052604090207fdec2bacdd2f05b59de34da9b523dff8be42e5e38e818c82fdb0bae774387a72490611f2d90611f2786612134565b90612165565b604080516001600160d01b039384168152919092166020820152a25f80611e64565b50831515611e52565b60ff8114611f9e5760ff811690601f8211611f8f5760405191611f7c604084611629565b6020808452838101919036833783525290565b632cd44ac360e21b5f5260045ffd5b506040516102d981611fb1816005611573565b0382611629565b60ff8114611fdc5760ff811690601f8211611f8f5760405191611f7c604084611629565b506040516102d981611fb1816006611573565b91907f7fffffffffffffffffffffffffffffff5d576e7357a4501ddfe92f46681b20a08411612066579160209360809260ff5f9560405194855216868401526040830152606082015282805260015afa15610da9575f516001600160a01b0381161561205c57905f905f90565b505f906001905f90565b5050505f9160039190565b6004111561207b57565b634e487b7160e01b5f52602160045260245ffd5b61209881612071565b806120a1575050565b6120aa81612071565b600181036120c15763f645eedf60e01b5f5260045ffd5b6120ca81612071565b600281036120e5575063fce698f760e01b5f5260045260245ffd5b806120f1600392612071565b146120f95750565b6335e2f38360e21b5f5260045260245ffd5b8054821015612120575f5260205f2001905f90565b634e487b7160e01b5f52603260045260245ffd5b6001600160d01b03811161214e576001600160d01b031690565b6306dfcc6560e41b5f5260d060045260245260445ffd5b9061216f43611c27565b9061217983611ae7565b6001600160d01b039182169082160391908211610757576121999261240a565b9091565b906121a743611c27565b906121b183611ae7565b6001600160d01b039182169082160191908211610757576121999261240a565b6121da43611c27565b906121e5600a611ae7565b6001600160d01b03918216908216019081116107575761219991600a61240a565b61220f43611c27565b9061221a600a611ae7565b6001600160d01b03918216908216039081116107575761219991600a61240a565b61170091906001600160a01b031680156122a8575b61226161225c83612134565b612206565b50505f908152600860205260408120549080527f5eff886ea0ce6ca488a3d6e336d6c0f75f46d19b42c06ce5ee98e42c96d256c7546001600160a01b039081169116611e36565b6122b96122b483612134565b6121d1565b5050612250565b90611700916122d16122b483612134565b50506001600160a01b03168015612326575b60086020527f5eff886ea0ce6ca488a3d6e336d6c0f75f46d19b42c06ce5ee98e42c96d256c7545f9182526040909120546001600160a01b039081169116611e36565b61233261225c83612134565b50506122e3565b61170092916001600160a01b0390911690811561239c575b6001600160a01b0316908115612389575b5f90815260086020526040808220549282529020546001600160a01b039081169116611e36565b61239561225c84612134565b5050612362565b6123a86122b484612134565b5050612351565b8054600160401b811015611624576123cc9160018201815561210b565b6123f757815160209092015160301b65ffffffffffff191665ffffffffffff92909216919091179055565b634e487b7160e01b5f525f60045260245ffd5b805492939280156124b65761242161242c91611a31565b825f5260205f200190565b8054603081901c9365ffffffffffff918216929181168084116124a757879303612473575061246f92509065ffffffffffff82549181199060301b169116179055565b9190565b91505061246f916124936124856116f1565b65ffffffffffff9093168352565b6001600160d01b03861660208301526123af565b632520601d60e01b5f5260045ffd5b50906124db916124c76124856116f1565b6001600160d01b03851660208301526123af565b5f919056fea2646970667358221220db69377139bf7e6f3ab913314a9f241dbeafb7fb0a8308576334793b0191f51a64736f6c634300081e0033c65a7bb8d6351c1cf70c95a316cc6a92839c986682d98bc35f958f4883f9d2a7dec2bacdd2f05b59de34da9b523dff8be42e5e38e818c82fdb0bae774387a724","linkReferences":{}},"methodIdentifiers":{"CLOCK_MODE()":"4bf5d7e9","DOMAIN_SEPARATOR()":"3644e515","INITIAL_SUPPLY()":"2ff2e9dc","MAX_SUPPLY()":"32cb6b0c","addRewards(address,uint256)":"a9fc507b","allowance(address,address)":"dd62ed3e","approve(address,uint256)":"095ea7b3","balanceOf(address)":"70a08231","burn(uint256)":"42966c68","checkpoints(address,uint32)":"f1127ed8","claimRewards()":"372500ab","clock()":"91ddadf4","decimals()":"313ce567","delegate(address)":"5c19a95c","delegateBySig(address,uint256,uint256,uint8,bytes32,bytes32)":"c3cda520","delegates(address)":"587cde1e","eip712Domain()":"84b0196e","getBalanceWithVotingPower(address)":"729000b0","getPastTotalSupply(uint256)":"8e539e8c","getPastVotes(address,uint256)":"3a46b1a8","getVotes(address)":"9ab24eb0","getVotingPower(address)":"bb4d4436","lastClaimTime(address)":"b77cf9c6","maxSupply()":"d5abeb01","mint(address,uint256)":"40c10f19","name()":"06fdde03","nonces(address)":"7ecebe00","numCheckpoints(address)":"6fcfff45","owner()":"8da5cb5b","permit(address,address,uint256,uint256,uint8,bytes32,bytes32)":"d505accf","platformFactory()":"9f0972c4","recoverERC20(address,uint256)":"8980f11f","renounceOwnership()":"715018a6","rewards(address)":"0700037d","setMaxSupply(uint256)":"6f8b44b0","setPlatformFactory(address)":"e041ed41","symbol()":"95d89b41","totalSupply()":"18160ddd","transfer(address,uint256)":"a9059cbb","transferFrom(address,address,uint256)":"23b872dd","transferOwnership(address)":"f2fde38b"},"id":63}