{"abi":[{"type":"constructor","inputs":[{"name":"_platformFactory","type":"address","internalType":"address"}],"stateMutability":"nonpayable"},{"type":"receive","stateMutability":"payable"},{"type":"function","name":"INSURANCE_FEE_PERCENTAGE","inputs":[],"outputs":[{"name":"","type":"uint256","internalType":"uint256"}],"stateMutability":"view"},{"type":"function","name":"MIN_STAKING_DURATION","inputs":[],"outputs":[{"name":"","type":"uint256","internalType":"uint256"}],"stateMutability":"view"},{"type":"function","name":"SLASHING_PERCENTAGE","inputs":[],"outputs":[{"name":"","type":"uint256","internalType":"uint256"}],"stateMutability":"view"},{"type":"function","name":"appealSlashing","inputs":[{"name":"projectId","type":"uint256","internalType":"uint256"}],"outputs":[],"stateMutability":"nonpayable"},{"type":"function","name":"calculateRequiredCollateral","inputs":[{"name":"category","type":"uint8","internalType":"enum ProjectTypes.ProjectCategory"},{"name":"targetAmount","type":"uint256","internalType":"uint256"},{"name":"organizer","type":"address","internalType":"address"}],"outputs":[{"name":"","type":"uint256","internalType":"uint256"}],"stateMutability":"view"},{"type":"function","name":"claimInsurance","inputs":[{"name":"projectId","type":"uint256","internalType":"uint256"},{"name":"investor","type":"address","internalType":"address"}],"outputs":[],"stateMutability":"nonpayable"},{"type":"function","name":"collateralInfo","inputs":[{"name":"","type":"uint256","internalType":"uint256"},{"name":"","type":"address","internalType":"address"}],"outputs":[{"name":"stakedAmount","type":"uint256","internalType":"uint256"},{"name":"stakedAt","type":"uint256","internalType":"uint256"},{"name":"unlockTime","type":"uint256","internalType":"uint256"},{"name":"slashed","type":"bool","internalType":"bool"},{"name":"slashedAmount","type":"uint256","internalType":"uint256"}],"stateMutability":"view"},{"type":"function","name":"getInsurancePoolBalance","inputs":[],"outputs":[{"name":"","type":"uint256","internalType":"uint256"}],"stateMutability":"view"},{"type":"function","name":"getOrganizerStakingInfo","inputs":[{"name":"organizer","type":"address","internalType":"address"}],"outputs":[{"name":"totalStaked","type":"uint256","internalType":"uint256"},{"name":"totalSlashed","type":"uint256","internalType":"uint256"},{"name":"activeProjects","type":"uint256","internalType":"uint256"}],"stateMutability":"view"},{"type":"function","name":"getReputationLevel","inputs":[{"name":"organizer","type":"address","internalType":"address"}],"outputs":[{"name":"","type":"string","internalType":"string"}],"stateMutability":"view"},{"type":"function","name":"getReputationScore","inputs":[{"name":"organizer","type":"address","internalType":"address"}],"outputs":[{"name":"","type":"uint256","internalType":"uint256"}],"stateMutability":"view"},{"type":"function","name":"getStakedAmount","inputs":[{"name":"projectId","type":"uint256","internalType":"uint256"},{"name":"organizer","type":"address","internalType":"address"}],"outputs":[{"name":"","type":"uint256","internalType":"uint256"}],"stateMutability":"view"},{"type":"function","name":"insurancePoolBalance","inputs":[],"outputs":[{"name":"","type":"uint256","internalType":"uint256"}],"stateMutability":"view"},{"type":"function","name":"owner","inputs":[],"outputs":[{"name":"","type":"address","internalType":"address"}],"stateMutability":"view"},{"type":"function","name":"paused","inputs":[],"outputs":[{"name":"","type":"bool","internalType":"bool"}],"stateMutability":"view"},{"type":"function","name":"platformFactory","inputs":[],"outputs":[{"name":"","type":"address","internalType":"address"}],"stateMutability":"view"},{"type":"function","name":"renounceOwnership","inputs":[],"outputs":[],"stateMutability":"nonpayable"},{"type":"function","name":"reputationContract","inputs":[],"outputs":[{"name":"","type":"address","internalType":"address"}],"stateMutability":"view"},{"type":"function","name":"setPlatformFactory","inputs":[{"name":"_platformFactory","type":"address","internalType":"address"}],"outputs":[],"stateMutability":"nonpayable"},{"type":"function","name":"setReputationContract","inputs":[{"name":"_reputationContract","type":"address","internalType":"address"}],"outputs":[],"stateMutability":"nonpayable"},{"type":"function","name":"slashCollateral","inputs":[{"name":"projectId","type":"uint256","internalType":"uint256"},{"name":"slashAmount","type":"uint256","internalType":"uint256"},{"name":"reason","type":"string","internalType":"string"}],"outputs":[],"stateMutability":"nonpayable"},{"type":"function","name":"slashingAppeals","inputs":[{"name":"","type":"uint256","internalType":"uint256"}],"outputs":[{"name":"","type":"bool","internalType":"bool"}],"stateMutability":"view"},{"type":"function","name":"stakeCollateral","inputs":[{"name":"projectId","type":"uint256","internalType":"uint256"}],"outputs":[],"stateMutability":"payable"},{"type":"function","name":"totalSlashed","inputs":[],"outputs":[{"name":"","type":"uint256","internalType":"uint256"}],"stateMutability":"view"},{"type":"function","name":"totalSlashedByOrganizer","inputs":[{"name":"","type":"address","internalType":"address"}],"outputs":[{"name":"","type":"uint256","internalType":"uint256"}],"stateMutability":"view"},{"type":"function","name":"totalStaked","inputs":[],"outputs":[{"name":"","type":"uint256","internalType":"uint256"}],"stateMutability":"view"},{"type":"function","name":"totalStakedByOrganizer","inputs":[{"name":"","type":"address","internalType":"address"}],"outputs":[{"name":"","type":"uint256","internalType":"uint256"}],"stateMutability":"view"},{"type":"function","name":"transferOwnership","inputs":[{"name":"newOwner","type":"address","internalType":"address"}],"outputs":[],"stateMutability":"nonpayable"},{"type":"function","name":"unstakeCollateral","inputs":[{"name":"projectId","type":"uint256","internalType":"uint256"}],"outputs":[],"stateMutability":"nonpayable"},{"type":"function","name":"updateReputation","inputs":[{"name":"organizer","type":"address","internalType":"address"},{"name":"projectId","type":"uint256","internalType":"uint256"},{"name":"success","type":"bool","internalType":"bool"}],"outputs":[],"stateMutability":"nonpayable"},{"type":"function","name":"withdrawInsurancePool","inputs":[{"name":"amount","type":"uint256","internalType":"uint256"},{"name":"recipient","type":"address","internalType":"address"}],"outputs":[],"stateMutability":"nonpayable"},{"type":"event","name":"CollateralSlashed","inputs":[{"name":"projectId","type":"uint256","indexed":true,"internalType":"uint256"},{"name":"amount","type":"uint256","indexed":false,"internalType":"uint256"},{"name":"reason","type":"string","indexed":false,"internalType":"string"}],"anonymous":false},{"type":"event","name":"CollateralStaked","inputs":[{"name":"projectId","type":"uint256","indexed":true,"internalType":"uint256"},{"name":"organizer","type":"address","indexed":true,"internalType":"address"},{"name":"amount","type":"uint256","indexed":false,"internalType":"uint256"}],"anonymous":false},{"type":"event","name":"CollateralUnstaked","inputs":[{"name":"projectId","type":"uint256","indexed":true,"internalType":"uint256"},{"name":"organizer","type":"address","indexed":true,"internalType":"address"},{"name":"amount","type":"uint256","indexed":false,"internalType":"uint256"}],"anonymous":false},{"type":"event","name":"InsuranceClaimed","inputs":[{"name":"projectId","type":"uint256","indexed":true,"internalType":"uint256"},{"name":"investor","type":"address","indexed":true,"internalType":"address"},{"name":"amount","type":"uint256","indexed":false,"internalType":"uint256"}],"anonymous":false},{"type":"event","name":"OwnershipTransferred","inputs":[{"name":"previousOwner","type":"address","indexed":true,"internalType":"address"},{"name":"newOwner","type":"address","indexed":true,"internalType":"address"}],"anonymous":false},{"type":"event","name":"Paused","inputs":[{"name":"account","type":"address","indexed":false,"internalType":"address"}],"anonymous":false},{"type":"event","name":"ReputationUpdated","inputs":[{"name":"organizer","type":"address","indexed":true,"internalType":"address"},{"name":"newScore","type":"uint256","indexed":false,"internalType":"uint256"}],"anonymous":false},{"type":"event","name":"SlashingAppealed","inputs":[{"name":"projectId","type":"uint256","indexed":true,"internalType":"uint256"}],"anonymous":false},{"type":"event","name":"Unpaused","inputs":[{"name":"account","type":"address","indexed":false,"internalType":"address"}],"anonymous":false},{"type":"error","name":"OwnableInvalidOwner","inputs":[{"name":"owner","type":"address","internalType":"address"}]},{"type":"error","name":"OwnableUnauthorizedAccount","inputs":[{"name":"account","type":"address","internalType":"address"}]}],"bytecode":{"object":"0x60803460d757601f611f4d38819003918201601f19168301916001600160401b0383118484101760db5780849260209460405283398101031260d757516001600160a01b0381169081900360d757331560c4575f8054604051929133906001600160a01b038316907f8be0079c531659141344cd1fd0a4f28419497f9722a3daafe3b4186f6b6457e09080a36001600160a81b0319163360ff60a01b1916175f5560018055600280546001600160a01b031916919091179055611e5d90816100f08239f35b631e4fbdf760e01b5f525f60045260245ffd5b5f80fd5b634e487b7160e01b5f52604160045260245ffdfe6080604052600436101561001a575b3615610018575f80fd5b005b5f5f3560e01c80630ce6152b146113e2578063108a4451146113aa5780631381a35e146112e457806316e572c0146112c75780631d3090e014610f5c5780632d43365b14610f095780633a71ede814610ec45780633d7153e614610e7f5780634974fa0514610e505780635c975abb14610e2b5780636be0a2c914610ca2578063715018a614610c4857806375a67d5c14610c1c578063817b1cd214610bfe57806387bc142514610bd55780638da5cb5b14610bae578063904360b214610b9257806391e2d42514610b415780639584660f14610aef5780639f0972c414610ac6578063a201bbdd14610aa8578063a630dc9314610791578063a850496b1461041e578063abc4cc4014610400578063b1e3371d146103c7578063bd8d64d9146103aa578063c95597861461038c578063e041ed411461033d578063ec604e4614610278578063efa42d16146102025763f2fde38b1461017a575061000e565b346101ff5760203660031901126101ff576101936116f1565b61019b611e01565b6001600160a01b031680156101eb5781546001600160a01b03198116821783556001600160a01b03167f8be0079c531659141344cd1fd0a4f28419497f9722a3daafe3b4186f6b6457e08380a380f35b631e4fbdf760e01b82526004829052602482fd5b80fd5b50346101ff5760403660031901126101ff57604061021e611707565b9160043581526007602052209060018060a01b03165f5260205260a060405f208054906001810154906002810154600460ff6003840154169201549260405194855260208501526040840152151560608301526080820152f35b50346101ff5760603660031901126101ff57806102936116f1565b60443590811515809203610339576102b660018060a01b03600254163314611a2a565b6003546001600160a01b031690816102cd57505050f35b813b1561033757604051637630272360e11b81526001600160a01b0390911660048201526024803590820152604481019290925282908290606490829084905af1801561032c5761031b5750f35b81610325916117d6565b6101ff5780f35b6040513d84823e3d90fd5b505b5050fd5b50346101ff5760203660031901126101ff576103576116f1565b6002549061036f336001600160a01b03841614611a2a565b6001600160a01b03166001600160a01b0319919091161760025580f35b50346101ff57806003193601126101ff576020600654604051908152f35b50346101ff57806003193601126101ff5760206040516113888152f35b50346101ff5760203660031901126101ff576020906040906001600160a01b036103ef6116f1565b168152600983522054604051908152f35b50346101ff57806003193601126101ff5760206040516276a7008152f35b50346101ff5760403660031901126101ff5760043561043b611707565b9061045160018060a01b03600254163314611a2a565b61046d6001600160a01b0361046583611d52565b161515611769565b6024836001600160a01b0361048184611d52565b1660405192838092635f8439e360e01b82528660048301525afa908115610786578491610764575b5061016081018051600781101561075057600514908115610727575b50156106d657604460a06001600160a01b036104e085611d52565b169460405192838092632bd8fc4560e01b8252876004830152600180861b0316978860248301525afa80156106cb578590610649575b6020915001519081156106045760c06105326006548094611a7b565b9101519081156105f05704908082116105ab578161054f91611a6e565b6006558381848282156105a2575b839283928392f1156105975760207f9575558b5d6ac5e60a8a8ad59be28fbdca3803658e380fdea5d922214559f8cd91604051908152a380f35b6040513d85823e3d90fd5b506108fc61055d565b60405162461bcd60e51b815260206004820152601c60248201527f496e73756666696369656e7420696e737572616e63652066756e6473000000006044820152606490fd5b634e487b7160e01b86526012600452602486fd5b60405162461bcd60e51b815260206004820152601760248201527f4e6f20696e766573746d656e7420746f20696e737572650000000000000000006044820152606490fd5b5060a0813d60a0116106c3575b8161066360a093836117d6565b810103126106bf57604051610677816117a7565b61068082611858565b81526020820151602082015260408201516040820152606082015180151581036106bb57602092608091606084015201516080820152610516565b8680fd5b8480fd5b3d9150610656565b6040513d87823e3d90fd5b60405162461bcd60e51b815260206004820152602360248201527f50726f6a656374206d757374206265206661696c6564206f722063616e63656c6044820152621b195960ea1b6064820152608490fd5b905051600781101561073c576006145f6104c5565b634e487b7160e01b85526021600452602485fd5b634e487b7160e01b86526021600452602486fd5b61078091503d8086833e61077881836117d6565b81019061186c565b5f6104a9565b6040513d86823e3d90fd5b50346101ff5760203660031901126101ff5760246004356107b76002600154141561171d565b60026001556107d06001600160a01b0361046583611d52565b826001600160a01b036107e283611d52565b1660405193848092635f8439e360e01b82528560048301525afa91821561059757602492610827918591610a8e575b5061014001516001600160a01b03163314611bdc565b808352600760209081526040808520335f90815292529020836001600160a01b0361085184611d52565b1660405194858092635f8439e360e01b82528660048301525afa928315610786578493610a72575b508054928315610a3657600282015442106109f15760ff6003830154166109b35761016001805160078110156107505760041490811561099d575b8115610988575b501561092c578390556108d082600454611a6e565b6004553383526008602052604083206108ea838254611a6e565b905582808080853382f11561032c576040519182527f6291bdb7ff81a416ff6539ba2a8a7f43cf42954c9965e91ecb899c6049bc75b760203393a36001805580f35b60405162461bcd60e51b815260206004820152602e60248201527f50726f6a656374206d75737420626520636f6d706c657465642c2063616e636560448201526d1b1b1959081bdc8819985a5b195960921b6064820152608490fd5b905051600781101561073c576005145f6108bb565b80915051600781101561075057600614906108b4565b60405162461bcd60e51b815260206004820152601660248201527510dbdb1b185d195c985b081dd85cc81cdb185cda195960521b6044820152606490fd5b60405162461bcd60e51b815260206004820152601760248201527f436f6c6c61746572616c207374696c6c206c6f636b65640000000000000000006044820152606490fd5b60405162461bcd60e51b8152602060048201526014602482015273139bc818dbdb1b185d195c985b081cdd185ad95960621b6044820152606490fd5b610a879193503d8086833e61077881836117d6565b915f610879565b610aa291503d8087833e61077881836117d6565b5f610811565b50346101ff57806003193601126101ff576020600554604051908152f35b50346101ff57806003193601126101ff576002546040516001600160a01b039091168152602090f35b50346101ff5760203660031901126101ff57610b096116f1565b610b1e60018060a01b03600254163314611a2a565b60018060a01b03166bffffffffffffffffffffffff60a01b600354161760035580f35b50346101ff5760203660031901126101ff576040610b65610b606116f1565b611ca5565b6020825193849282845280519283918282870152018585015e828201840152601f01601f19168101030190f35b50346101ff57806003193601126101ff57602060405160648152f35b50346101ff57806003193601126101ff57546040516001600160a01b039091168152602090f35b50346101ff57806003193601126101ff576003546040516001600160a01b039091168152602090f35b50346101ff57806003193601126101ff576020600454604051908152f35b50346101ff5760203660031901126101ff576020610c40610c3b6116f1565b611c21565b604051908152f35b50346101ff57806003193601126101ff57610c61611e01565b80546001600160a01b03198116825581906001600160a01b03167f8be0079c531659141344cd1fd0a4f28419497f9722a3daafe3b4186f6b6457e08280a380f35b50346101ff5760203660031901126101ff57600435610ccb6001600160a01b0361046583611d52565b6024826001600160a01b03610cdf84611d52565b1660405192838092635f8439e360e01b82528660048301525afa801561059757610d1f918491610e17575061014001516001600160a01b03163314611bdc565b808252600760209081526040808420335f908152925290206003015460ff1615610dda57808252600a60205260ff604083205416610d9557808252600a60205260408220805460ff191660011790557f5b1892832578215a149a182da3c6c5be511047fa5f338af2f48dd6301f4caf828280a280f35b60405162461bcd60e51b815260206004820152601a60248201527f41707065616c20616c726561647920696e2070726f67726573730000000000006044820152606490fd5b60405162461bcd60e51b8152602060048201526015602482015274139bc81cdb185cda1a5b99c81d1bc8185c1c19585b605a1b6044820152606490fd5b610aa291503d8086833e61077881836117d6565b50346101ff57806003193601126101ff5760ff6020915460a01c166040519015158152f35b50346101ff5760203660031901126101ff5760ff60406020926004358152600a84522054166040519015158152f35b50346101ff5760603660031901126101ff576004356008811015610ec057604435916001600160a01b03831683036101ff576020610c408460243585611a8e565b5080fd5b50346101ff5760403660031901126101ff576040610ee0611707565b9160043581526007602052209060018060a01b03165f52602052602060405f2054604051908152f35b50346101ff5760203660031901126101ff576060906001600160a01b03610f2e6116f1565b1690818152600860205260408120549181526009602052604081205460405192835260208301526040820152f35b5034611201576060366003190112611201576044356004356024356001600160401b0383116112015736602384011215611201578260040135906001600160401b03821161120157366024838601011161120157602493610fc860018060a01b03600254163314611a2a565b610fdc6001600160a01b0361046586611d52565b5f6001600160a01b03610fee86611d52565b1660405196878092635f8439e360e01b82528860048301525afa9485156111f6575f956112ab575b505f8481526007602090815260408083206101409890980180516001600160a01b031684529790915290208054929081841061126757600381019081549260ff841661122257611388810290808204611388149015171561120e5761271090049460648602938685046064148715171561120e5761110d5f95948695946110c08a8897966127108998049460016110ad8785611a6e565b9860ff1916179055816004850155611a6e565b90556110ce89600454611a6e565b6004556110dd89600554611a1d565b6005558b516001600160a01b031684526009602052604084208054611103908b90611a1d565b9055600654611a1d565b6006556002546001600160a01b0316828215611205575bf1156111f65760607f94adb83c2a628674b79df3dbaebf6dbbe0672ca06d42a102bbf11ffaf31fbcb992848695602460405195869485526040602086015282604086015201848401375f828201840152601f01601f19168101030190a26003546001600160a01b03169182611197578380f35b516001600160a01b031690823b156112015760645f92836040519586948593637630272360e11b8552600485015260248401528160448401525af180156111f6576111e3575b80808380f35b6111ef91505f906117d6565b5f5f6111dd565b6040513d5f823e3d90fd5b5f80fd5b506108fc611124565b634e487b7160e01b5f52601160045260245ffd5b60405162461bcd60e51b815260206004820152601a60248201527f436f6c6c61746572616c20616c726561647920736c61736865640000000000006044820152606490fd5b606460405162461bcd60e51b815260206004820152602060248201527f496e73756666696369656e7420636f6c6c61746572616c20746f20736c6173686044820152fd5b6112c09195503d805f833e61077881836117d6565b935f611016565b34611201575f366003190112611201576020600654604051908152f35b3461120157604036600319011261120157600435611300611707565b9061131660018060a01b03600254163314611a2a565b60065491828211611359575f80808481946113318289611a6e565b6006558290821561134f575b6001600160a01b031690f1156111f657005b6108fc915061133d565b60405162461bcd60e51b815260206004820152602360248201527f496e73756666696369656e7420696e737572616e636520706f6f6c2062616c616044820152626e636560e81b6064820152608490fd5b34611201576020366003190112611201576001600160a01b036113cb6116f1565b165f526008602052602060405f2054604051908152f35b6020366003190112611201576004356114006002600154141561171d565b600260015560ff5f5460a01c166116b9576114256001600160a01b0361046583611d52565b34156116665760245f6001600160a01b0361143f84611d52565b1660405192838092635f8439e360e01b82528660048301525afa9081156111f6575f9161164c575b506101408101516001600160a01b031633036116085760608101519060088210156115f45761149c9160a03392015190611a8e565b5f828152600760209081526040808320338452909152902054906114c03483611a1d565b106115af576114d0903490611a1d565b6276a700420180421161120e57600490604051926114ed846117a7565b835260208301904282526040840190815260608401905f825260808501925f8452865f52600760205260405f2060018060a01b0333165f5260205260405f2095518655516001860155516002850155600384019051151560ff801983541691161790555191015561156034600454611a1d565b600455335f52600860205260405f2061157a348254611a1d565b9055604051903482527fd1e1405c40c8dd98a899bf9b11a78c29d250a12e51b951b2f9eb7c1aaa866da860203393a360018055005b60405162461bcd60e51b815260206004820152601760248201527f496e73756666696369656e7420636f6c6c61746572616c0000000000000000006044820152606490fd5b634e487b7160e01b5f52602160045260245ffd5b606460405162461bcd60e51b815260206004820152602060248201527f4f6e6c792070726f6a656374206f7267616e697a65722063616e207374616b656044820152fd5b61166091503d805f833e61077881836117d6565b82611467565b60405162461bcd60e51b815260206004820152602560248201527f5374616b696e6720616d6f756e74206d75737420626520677265617465722074604482015264068616e20360dc1b6064820152608490fd5b60405162461bcd60e51b815260206004820152601060248201526f14185d5cd8589b194e881c185d5cd95960821b6044820152606490fd5b600435906001600160a01b038216820361120157565b602435906001600160a01b038216820361120157565b1561172457565b60405162461bcd60e51b815260206004820152601f60248201527f5265656e7472616e637947756172643a207265656e7472616e742063616c6c006044820152606490fd5b1561177057565b60405162461bcd60e51b815260206004820152600f60248201526e125b9d985b1a59081c1c9bda9958dd608a1b6044820152606490fd5b60a081019081106001600160401b038211176117c257604052565b634e487b7160e01b5f52604160045260245ffd5b90601f801991011681019081106001600160401b038211176117c257604052565b6001600160401b0381116117c257601f01601f191660200190565b81601f8201121561120157805190611829826117f7565b9261183760405194856117d6565b8284526020838301011161120157815f9260208093018386015e8301015290565b51906001600160a01b038216820361120157565b602081830312611201578051906001600160401b038211611201570161022081830312611201576040519161022083018381106001600160401b038211176117c2576040528151835260208201516001600160401b03811161120157816118d4918401611812565b602084015260408201516001600160401b03811161120157816118f8918401611812565b60408401526060820151600881101561120157606084015260808201516001600160401b038111611201578161192f918401611812565b608084015260a082015160a084015260c082015160c084015260e082015160e08401526101008201516101008401526101208201516001600160401b038111611201578161197e918401611812565b6101208401526119916101408301611858565b6101408401526101608201516007811015611201576101608401526101808201516101808401526101a08201516101a08401526101c08201516101c08401526101e08201516001600160401b03811161120157816119f0918401611812565b6101e08401526102008201516001600160401b03811161120157611a149201611812565b61020082015290565b9190820180921161120e57565b15611a3157565b60405162461bcd60e51b81526020600482015260156024820152744f6e6c7920706c6174666f726d20666163746f727960581b6044820152606490fd5b9190820391821161120e57565b8181029291811591840414171561120e57565b91909160088110156115f45780611b9f5750610bb8905b6003546001600160a01b03169081611acb575b5050611ac79061271092611a7b565b0490565b604051631d699f5760e21b81526001600160a01b03909116600482015290602090829060249082905afa9081156111f6575f91611b6d575b506101f4811115611b395750611f40810290808204611f40149015171561120e576127109182611ac79204905b92819250611ab8565b60c811611b4e575b611ac79061271092611b30565b612ee0810290808204612ee0149015171561120e576127109004611b41565b90506020813d602011611b97575b81611b88602093836117d6565b8101031261120157515f611b03565b3d9150611b7b565b60018103611bb157506107d090611aa5565b60028103611bc357506109c490611aa5565b600303611bd3576105dc90611aa5565b6107d090611aa5565b15611be357565b60405162461bcd60e51b815260206004820152601660248201527527b7363c90383937b532b1ba1037b933b0b734bd32b960511b6044820152606490fd5b6003546001600160a01b03169081611c3b5750506101f490565b604051631d699f5760e21b81526001600160a01b03909116600482015290602090829060249082905afa9081156111f6575f91611c76575090565b90506020813d602011611c9d575b81611c91602093836117d6565b81010312611201575190565b3d9150611c84565b6003546001600160a01b03169081611cde575050604051611cc76040826117d6565b600781526613995d5d1c985b60ca1b602082015290565b6040516391e2d42560e01b81526001600160a01b039091166004820152905f90829060249082905afa9081156111f6575f91611d18575090565b90503d805f833e611d2981836117d6565b81016020828203126112015781516001600160401b03811161120157611d4f9201611812565b90565b60025460405163107046bd60e01b602082019081526024808301949094529281525f9283926001600160a01b031691611d8c6044826117d6565b51915afa3d15611df9573d90611da1826117f7565b91611daf60405193846117d6565b82523d5f602084013e5b80611dee575b611dc857505f90565b60208180518101031261120157602001516001600160a01b038116908190036112015790565b506020815114611dbf565b606090611db9565b5f546001600160a01b03163303611e1457565b63118cdaa760e01b5f523360045260245ffdfea26469706673582212201c997fb5c7fe0ce98c5a767cc13e8144deda47c2164e98744b6dd93a546e354064736f6c634300081e0033","linkReferences":{}},"methodIdentifiers":{"INSURANCE_FEE_PERCENTAGE()":"904360b2","MIN_STAKING_DURATION()":"abc4cc40","SLASHING_PERCENTAGE()":"bd8d64d9","appealSlashing(uint256)":"6be0a2c9","calculateRequiredCollateral(uint8,uint256,address)":"3d7153e6","claimInsurance(uint256,address)":"a850496b","collateralInfo(uint256,address)":"efa42d16","getInsurancePoolBalance()":"16e572c0","getOrganizerStakingInfo(address)":"2d43365b","getReputationLevel(address)":"91e2d425","getReputationScore(address)":"75a67d5c","getStakedAmount(uint256,address)":"3a71ede8","insurancePoolBalance()":"c9559786","owner()":"8da5cb5b","paused()":"5c975abb","platformFactory()":"9f0972c4","renounceOwnership()":"715018a6","reputationContract()":"87bc1425","setPlatformFactory(address)":"e041ed41","setReputationContract(address)":"9584660f","slashCollateral(uint256,uint256,string)":"1d3090e0","slashingAppeals(uint256)":"4974fa05","stakeCollateral(uint256)":"0ce6152b","totalSlashed()":"a201bbdd","totalSlashedByOrganizer(address)":"b1e3371d","totalStaked()":"817b1cd2","totalStakedByOrganizer(address)":"108a4451","transferOwnership(address)":"f2fde38b","unstakeCollateral(uint256)":"a630dc93","updateReputation(address,uint256,bool)":"ec604e46","withdrawInsurancePool(uint256,address)":"1381a35e"},"id":62}