{"abi":[{"type":"constructor","inputs":[{"name":"_borrower","type":"address","internalType":"address"},{"name":"_loanAmount","type":"uint256","internalType":"uint256"},{"name":"_interestRate","type":"uint256","internalType":"uint256"},{"name":"_durationDays","type":"uint256","internalType":"uint256"}],"stateMutability":"nonpayable"},{"type":"function","name":"borrower","inputs":[],"outputs":[{"name":"","type":"address","internalType":"address"}],"stateMutability":"view"},{"type":"function","name":"claimRefund","inputs":[],"outputs":[],"stateMutability":"nonpayable"},{"type":"function","name":"deadline","inputs":[],"outputs":[{"name":"","type":"uint256","internalType":"uint256"}],"stateMutability":"view"},{"type":"function","name":"distributeToLenders","inputs":[],"outputs":[],"stateMutability":"nonpayable"},{"type":"function","name":"duration","inputs":[],"outputs":[{"name":"","type":"uint256","internalType":"uint256"}],"stateMutability":"view"},{"type":"function","name":"getLoanDetails","inputs":[],"outputs":[{"name":"","type":"address","internalType":"address"},{"name":"","type":"uint256","internalType":"uint256"},{"name":"","type":"uint256","internalType":"uint256"},{"name":"","type":"uint256","internalType":"uint256"},{"name":"","type":"uint256","internalType":"uint256"},{"name":"","type":"uint256","internalType":"uint256"},{"name":"","type":"bool","internalType":"bool"},{"name":"","type":"bool","internalType":"bool"}],"stateMutability":"view"},{"type":"function","name":"handleDefault","inputs":[],"outputs":[],"stateMutability":"nonpayable"},{"type":"function","name":"interestRate","inputs":[],"outputs":[{"name":"","type":"uint256","internalType":"uint256"}],"stateMutability":"view"},{"type":"function","name":"lend","inputs":[],"outputs":[],"stateMutability":"payable"},{"type":"function","name":"lenderAddresses","inputs":[{"name":"","type":"uint256","internalType":"uint256"}],"outputs":[{"name":"","type":"address","internalType":"address"}],"stateMutability":"view"},{"type":"function","name":"lenders","inputs":[{"name":"","type":"address","internalType":"address"}],"outputs":[{"name":"","type":"uint256","internalType":"uint256"}],"stateMutability":"view"},{"type":"function","name":"loanAmount","inputs":[],"outputs":[{"name":"","type":"uint256","internalType":"uint256"}],"stateMutability":"view"},{"type":"function","name":"loanFunded","inputs":[],"outputs":[{"name":"","type":"bool","internalType":"bool"}],"stateMutability":"view"},{"type":"function","name":"loanRepaid","inputs":[],"outputs":[{"name":"","type":"bool","internalType":"bool"}],"stateMutability":"view"},{"type":"function","name":"loanWithdrawn","inputs":[],"outputs":[{"name":"","type":"bool","internalType":"bool"}],"stateMutability":"view"},{"type":"function","name":"repayLoan","inputs":[],"outputs":[],"stateMutability":"payable"},{"type":"function","name":"repaymentDeadline","inputs":[],"outputs":[{"name":"","type":"uint256","internalType":"uint256"}],"stateMutability":"view"},{"type":"function","name":"totalRaised","inputs":[],"outputs":[{"name":"","type":"uint256","internalType":"uint256"}],"stateMutability":"view"},{"type":"function","name":"withdrawLoan","inputs":[],"outputs":[],"stateMutability":"nonpayable"},{"type":"event","name":"Default","inputs":[{"name":"borrower","type":"address","indexed":false,"internalType":"address"},{"name":"amountLost","type":"uint256","indexed":false,"internalType":"uint256"}],"anonymous":false},{"type":"event","name":"Funded","inputs":[{"name":"lender","type":"address","indexed":false,"internalType":"address"},{"name":"amount","type":"uint256","indexed":false,"internalType":"uint256"}],"anonymous":false},{"type":"event","name":"LoanFunded","inputs":[{"name":"totalRaised","type":"uint256","indexed":false,"internalType":"uint256"}],"anonymous":false},{"type":"event","name":"LoanRepaid","inputs":[{"name":"totalRepayment","type":"uint256","indexed":false,"internalType":"uint256"}],"anonymous":false}],"bytecode":{"object":"0x608060405234801561000f575f5ffd5b50604051610ded380380610ded83398101604081905261002e9161007c565b5f80546001600160a01b0319166001600160a01b0386161790556001839055600282905561005f81620151806100d7565b60035561006f4262278d006100f4565b6005555061010792505050565b5f5f5f5f6080858703121561008f575f5ffd5b84516001600160a01b03811681146100a5575f5ffd5b60208601516040870151606090970151919890975090945092505050565b634e487b7160e01b5f52601160045260245ffd5b80820281158282048414176100ee576100ee6100c3565b92915050565b808201808211156100ee576100ee6100c3565b610cd9806101145f395ff3fe608060405260043610610110575f3560e01c806397dffc611161009d578063c4c77e2511610062578063c4c77e2514610302578063c5c4744c14610316578063cbadca6f1461032b578063f7d3eaab14610344578063f966ade714610358575f5ffd5b806397dffc61146102405780639d585f7f14610248578063a3b9e39d1461025d578063b5545a3c146102d0578063bff1d2e3146102e4575f5ffd5b80632d6963ce116100e35780632d6963ce146101915780633718aa9e146101c85780636d59f4c7146101de5780637c3a00fd1461020d5780637df1f1b914610222575f5ffd5b80630fb5a6b41461011457806319cc3aaa1461013c57806328fd10d71461015157806329dcb0cf1461017c575b5f5ffd5b34801561011f575f5ffd5b5061012960035481565b6040519081526020015b60405180910390f35b348015610147575f5ffd5b5061012960065481565b34801561015c575f5ffd5b5061012961016b366004610be8565b60086020525f908152604090205481565b348015610187575f5ffd5b5061012960055481565b34801561019c575f5ffd5b506101b06101ab366004610c15565b610360565b6040516001600160a01b039091168152602001610133565b3480156101d3575f5ffd5b506101dc610388565b005b3480156101e9575f5ffd5b506007546101fd9062010000900460ff1681565b6040519015158152602001610133565b348015610218575f5ffd5b5061012960025481565b34801561022d575f5ffd5b505f546101b0906001600160a01b031681565b6101dc610468565b348015610253575f5ffd5b5061012960015481565b348015610268575f5ffd5b505f54600154600254600354600454600654600754604080516001600160a01b0390981688526020880196909652948601939093526060850191909152608084015260a083015260ff808216151560c08401526101009182900416151560e083015201610133565b3480156102db575f5ffd5b506101dc610670565b3480156102ef575f5ffd5b506007546101fd90610100900460ff1681565b34801561030d575f5ffd5b506101dc610799565b348015610321575f5ffd5b5061012960045481565b348015610336575f5ffd5b506007546101fd9060ff1681565b34801561034f575f5ffd5b506101dc610918565b6101dc610a04565b6009818154811061036f575f80fd5b5f918252602090912001546001600160a01b0316905081565b60065442116103d25760405162461bcd60e51b8152602060048201526011602482015270139bdd08191959985d5b1d1959081e595d607a1b60448201526064015b60405180910390fd5b600754610100900460ff161561041c5760405162461bcd60e51b815260206004820152600f60248201526e131bd85b881dd85cc81c995c185a59608a1b60448201526064016103c9565b5f54600154604080516001600160a01b03909316835260208301919091527f2cfb259995f422802646eab058f3ca041deeb1c2a1e6a9d9cfcd4062af1ea5bc91015b60405180910390a1565b60055442106104b05760405162461bcd60e51b8152602060048201526014602482015273119d5b991a5b99c81c195c9a5bd908195b99195960621b60448201526064016103c9565b60075460ff16156104f95760405162461bcd60e51b8152602060048201526013602482015272131bd85b88185b1c9958591e48199d5b991959606a1b60448201526064016103c9565b5f34116105385760405162461bcd60e51b815260206004820152600d60248201526c09aeae6e840e6cadcc8408aa89609b1b60448201526064016103c9565b335f90815260086020526040812054900361058f57600980546001810182555f919091527f6e1540171b6c0c960b71a7020d9f60077f6af931a8bbf590da0223dacf75c7af0180546001600160a01b031916331790555b335f90815260086020526040812080543492906105ad908490610c40565b925050819055503460045f8282546105c59190610c40565b9091555050604080513381523460208201527f5af8184bef8e4b45eb9f6ed7734d04da38ced226495548f46e0c8ff8d7d9a524910160405180910390a160015460045410158015610619575060075460ff16155b1561066e576007805460ff191660011790556003546106389042610c40565b6006556004546040519081527f9e71d2fb732e68272b7e74ecfd14638673c1d77e19a5d390a3ffff054d57c44b9060200161045e565b565b6005544210156106c25760405162461bcd60e51b815260206004820152601860248201527f46756e64696e6720706572696f64206e6f7420656e646564000000000000000060448201526064016103c9565b60075460ff16156107075760405162461bcd60e51b815260206004820152600f60248201526e131bd85b881dd85cc8199d5b991959608a1b60448201526064016103c9565b335f908152600860205260409020546107575760405162461bcd60e51b8152602060048201526012602482015271139bc8199d5b991cc81d1bc81c99599d5b9960721b60448201526064016103c9565b335f81815260086020526040808220805490839055905190929183156108fc02918491818181858888f19350505050158015610795573d5f5f3e3d5ffd5b5050565b5f546001600160a01b031633146107e25760405162461bcd60e51b815260206004820152600d60248201526c27b7363c903137b93937bbb2b960991b60448201526064016103c9565b60075460ff1661082c5760405162461bcd60e51b8152602060048201526015602482015274131bd85b881b9bdd08199d5b1b1e48199d5b991959605a1b60448201526064016103c9565b60075462010000900460ff161561087e5760405162461bcd60e51b81526020600482015260166024820152752637b0b71030b63932b0b23c903bb4ba34323930bbb760511b60448201526064016103c9565b600754610100900460ff16156108cc5760405162461bcd60e51b8152602060048201526013602482015272131bd85b88185b1c9958591e481c995c185a59606a1b60448201526064016103c9565b6007805462ff00001916620100001790555f80546001546040516001600160a01b039092169281156108fc029290818181858888f19350505050158015610915573d5f5f3e3d5ffd5b50565b600754610100900460ff166109615760405162461bcd60e51b815260206004820152600f60248201526e131bd85b881b9bdd081c995c185a59608a1b60448201526064016103c9565b475f5b600954811015610795575f6009828154811061098257610982610c59565b5f9182526020808320909101546004546001600160a01b0390911680845260089092526040832054919350906109b9908690610c6d565b6109c39190610c84565b6040519091506001600160a01b0383169082156108fc029083905f818181858888f193505050501580156109f9573d5f5f3e3d5ffd5b505050600101610964565b60075460ff16610a485760405162461bcd60e51b815260206004820152600f60248201526e131bd85b881b9bdd08199d5b991959608a1b60448201526064016103c9565b60075462010000900460ff16610a955760405162461bcd60e51b81526020600482015260126024820152712637b0b7103737ba103bb4ba34323930bbb760711b60448201526064016103c9565b600754610100900460ff1615610ae35760405162461bcd60e51b8152602060048201526013602482015272131bd85b88185b1c9958591e481c995c185a59606a1b60448201526064016103c9565b600654421115610b265760405162461bcd60e51b815260206004820152600e60248201526d131bd85b88191959985d5b1d195960921b60448201526064016103c9565b5f612710600254600154610b3a9190610c6d565b610b449190610c84565b600154610b519190610c40565b905080341015610b9c5760405162461bcd60e51b8152602060048201526016602482015275125b9cdd59999a58da595b9d081c995c185e5b595b9d60521b60448201526064016103c9565b6007805461ff0019166101001790556040517f9a7851747cd7ffb3fe0a32caf3da48b31f27cebe131267051640f8b72fc4718690610bdd9083815260200190565b60405180910390a150565b5f60208284031215610bf8575f5ffd5b81356001600160a01b0381168114610c0e575f5ffd5b9392505050565b5f60208284031215610c25575f5ffd5b5035919050565b634e487b7160e01b5f52601160045260245ffd5b80820180821115610c5357610c53610c2c565b92915050565b634e487b7160e01b5f52603260045260245ffd5b8082028115828204841417610c5357610c53610c2c565b5f82610c9e57634e487b7160e01b5f52601260045260245ffd5b50049056fea26469706673582212200d9c45e0a5261b66c3aa201cdc55ca2de3954c6171d182662b794546317693cb64736f6c634300081e0033","linkReferences":{}},"methodIdentifiers":{"borrower()":"7df1f1b9","claimRefund()":"b5545a3c","deadline()":"29dcb0cf","distributeToLenders()":"f7d3eaab","duration()":"0fb5a6b4","getLoanDetails()":"a3b9e39d","handleDefault()":"3718aa9e","interestRate()":"7c3a00fd","lend()":"97dffc61","lenderAddresses(uint256)":"2d6963ce","lenders(address)":"28fd10d7","loanAmount()":"9d585f7f","loanFunded()":"cbadca6f","loanRepaid()":"bff1d2e3","loanWithdrawn()":"6d59f4c7","repayLoan()":"f966ade7","repaymentDeadline()":"19cc3aaa","totalRaised()":"c5c4744c","withdrawLoan()":"c4c77e25"},"id":20}