{"abi":[{"type":"constructor","inputs":[{"name":"_borrower","type":"address","internalType":"address"},{"name":"_loanAmount","type":"uint256","internalType":"uint256"},{"name":"_interestRate","type":"uint256","internalType":"uint256"},{"name":"_durationDays","type":"uint256","internalType":"uint256"},{"name":"_productInfo","type":"tuple","internalType":"struct LendingProject.ProductInfo","components":[{"name":"productName","type":"string","internalType":"string"},{"name":"description","type":"string","internalType":"string"},{"name":"category","type":"string","internalType":"string"},{"name":"originCountry","type":"string","internalType":"string"},{"name":"estimatedCost","type":"uint256","internalType":"uint256"},{"name":"expectedSalePrice","type":"uint256","internalType":"uint256"},{"name":"expectedROI","type":"uint256","internalType":"uint256"},{"name":"businessPlan","type":"string","internalType":"string"}]}],"stateMutability":"payable"},{"type":"function","name":"STAKE_PERCENTAGE","inputs":[],"outputs":[{"name":"","type":"uint256","internalType":"uint256"}],"stateMutability":"view"},{"type":"function","name":"borrower","inputs":[],"outputs":[{"name":"","type":"address","internalType":"address"}],"stateMutability":"view"},{"type":"function","name":"borrowerStake","inputs":[],"outputs":[{"name":"","type":"uint256","internalType":"uint256"}],"stateMutability":"view"},{"type":"function","name":"calculateActualROI","inputs":[{"name":"_actualSaleAmount","type":"uint256","internalType":"uint256"}],"outputs":[{"name":"","type":"uint256","internalType":"uint256"}],"stateMutability":"view"},{"type":"function","name":"claimRefund","inputs":[],"outputs":[],"stateMutability":"nonpayable"},{"type":"function","name":"completeMilestone","inputs":[{"name":"_milestoneId","type":"uint256","internalType":"uint256"},{"name":"_evidence","type":"string","internalType":"string"}],"outputs":[],"stateMutability":"nonpayable"},{"type":"function","name":"completedMilestones","inputs":[],"outputs":[{"name":"","type":"uint256","internalType":"uint256"}],"stateMutability":"view"},{"type":"function","name":"deadline","inputs":[],"outputs":[{"name":"","type":"uint256","internalType":"uint256"}],"stateMutability":"view"},{"type":"function","name":"distributeToLenders","inputs":[],"outputs":[],"stateMutability":"nonpayable"},{"type":"function","name":"duration","inputs":[],"outputs":[{"name":"","type":"uint256","internalType":"uint256"}],"stateMutability":"view"},{"type":"function","name":"factory","inputs":[],"outputs":[{"name":"","type":"address","internalType":"address"}],"stateMutability":"view"},{"type":"function","name":"failMilestone","inputs":[{"name":"_milestoneId","type":"uint256","internalType":"uint256"},{"name":"_reason","type":"string","internalType":"string"}],"outputs":[],"stateMutability":"nonpayable"},{"type":"function","name":"getAllMilestones","inputs":[],"outputs":[{"name":"","type":"tuple[]","internalType":"struct LendingProject.Milestone[]","components":[{"name":"description","type":"string","internalType":"string"},{"name":"targetDate","type":"uint256","internalType":"uint256"},{"name":"status","type":"uint8","internalType":"enum LendingProject.MilestoneStatus"},{"name":"evidence","type":"string","internalType":"string"}]}],"stateMutability":"view"},{"type":"function","name":"getLoanDetails","inputs":[],"outputs":[{"name":"","type":"address","internalType":"address"},{"name":"","type":"uint256","internalType":"uint256"},{"name":"","type":"uint256","internalType":"uint256"},{"name":"","type":"uint256","internalType":"uint256"},{"name":"","type":"uint256","internalType":"uint256"},{"name":"","type":"uint256","internalType":"uint256"},{"name":"","type":"bool","internalType":"bool"},{"name":"","type":"bool","internalType":"bool"},{"name":"","type":"uint256","internalType":"uint256"}],"stateMutability":"view"},{"type":"function","name":"getMilestone","inputs":[{"name":"_milestoneId","type":"uint256","internalType":"uint256"}],"outputs":[{"name":"","type":"tuple","internalType":"struct LendingProject.Milestone","components":[{"name":"description","type":"string","internalType":"string"},{"name":"targetDate","type":"uint256","internalType":"uint256"},{"name":"status","type":"uint8","internalType":"enum LendingProject.MilestoneStatus"},{"name":"evidence","type":"string","internalType":"string"}]}],"stateMutability":"view"},{"type":"function","name":"getProductInfo","inputs":[],"outputs":[{"name":"","type":"tuple","internalType":"struct LendingProject.ProductInfo","components":[{"name":"productName","type":"string","internalType":"string"},{"name":"description","type":"string","internalType":"string"},{"name":"category","type":"string","internalType":"string"},{"name":"originCountry","type":"string","internalType":"string"},{"name":"estimatedCost","type":"uint256","internalType":"uint256"},{"name":"expectedSalePrice","type":"uint256","internalType":"uint256"},{"name":"expectedROI","type":"uint256","internalType":"uint256"},{"name":"businessPlan","type":"string","internalType":"string"}]}],"stateMutability":"view"},{"type":"function","name":"getProjectProgress","inputs":[],"outputs":[{"name":"completed","type":"uint256","internalType":"uint256"},{"name":"total","type":"uint256","internalType":"uint256"}],"stateMutability":"view"},{"type":"function","name":"handleDefault","inputs":[],"outputs":[],"stateMutability":"nonpayable"},{"type":"function","name":"interestRate","inputs":[],"outputs":[{"name":"","type":"uint256","internalType":"uint256"}],"stateMutability":"view"},{"type":"function","name":"lend","inputs":[],"outputs":[],"stateMutability":"payable"},{"type":"function","name":"lenderAddresses","inputs":[{"name":"","type":"uint256","internalType":"uint256"}],"outputs":[{"name":"","type":"address","internalType":"address"}],"stateMutability":"view"},{"type":"function","name":"lenders","inputs":[{"name":"","type":"address","internalType":"address"}],"outputs":[{"name":"","type":"uint256","internalType":"uint256"}],"stateMutability":"view"},{"type":"function","name":"loanAmount","inputs":[],"outputs":[{"name":"","type":"uint256","internalType":"uint256"}],"stateMutability":"view"},{"type":"function","name":"loanFunded","inputs":[],"outputs":[{"name":"","type":"bool","internalType":"bool"}],"stateMutability":"view"},{"type":"function","name":"loanRepaid","inputs":[],"outputs":[{"name":"","type":"bool","internalType":"bool"}],"stateMutability":"view"},{"type":"function","name":"loanWithdrawn","inputs":[],"outputs":[{"name":"","type":"bool","internalType":"bool"}],"stateMutability":"view"},{"type":"function","name":"milestones","inputs":[{"name":"","type":"uint256","internalType":"uint256"}],"outputs":[{"name":"description","type":"string","internalType":"string"},{"name":"targetDate","type":"uint256","internalType":"uint256"},{"name":"status","type":"uint8","internalType":"enum LendingProject.MilestoneStatus"},{"name":"evidence","type":"string","internalType":"string"}],"stateMutability":"view"},{"type":"function","name":"productInfo","inputs":[],"outputs":[{"name":"productName","type":"string","internalType":"string"},{"name":"description","type":"string","internalType":"string"},{"name":"category","type":"string","internalType":"string"},{"name":"originCountry","type":"string","internalType":"string"},{"name":"estimatedCost","type":"uint256","internalType":"uint256"},{"name":"expectedSalePrice","type":"uint256","internalType":"uint256"},{"name":"expectedROI","type":"uint256","internalType":"uint256"},{"name":"businessPlan","type":"string","internalType":"string"}],"stateMutability":"view"},{"type":"function","name":"repayLoan","inputs":[],"outputs":[],"stateMutability":"payable"},{"type":"function","name":"repaymentDeadline","inputs":[],"outputs":[{"name":"","type":"uint256","internalType":"uint256"}],"stateMutability":"view"},{"type":"function","name":"totalRaised","inputs":[],"outputs":[{"name":"","type":"uint256","internalType":"uint256"}],"stateMutability":"view"},{"type":"function","name":"updateProductInfo","inputs":[{"name":"_businessPlan","type":"string","internalType":"string"},{"name":"_expectedSalePrice","type":"uint256","internalType":"uint256"}],"outputs":[],"stateMutability":"nonpayable"},{"type":"function","name":"withdrawLoan","inputs":[],"outputs":[],"stateMutability":"nonpayable"},{"type":"event","name":"Default","inputs":[{"name":"borrower","type":"address","indexed":false,"internalType":"address"},{"name":"amountLost","type":"uint256","indexed":false,"internalType":"uint256"}],"anonymous":false},{"type":"event","name":"Funded","inputs":[{"name":"lender","type":"address","indexed":false,"internalType":"address"},{"name":"amount","type":"uint256","indexed":false,"internalType":"uint256"}],"anonymous":false},{"type":"event","name":"LoanFunded","inputs":[{"name":"totalRaised","type":"uint256","indexed":false,"internalType":"uint256"}],"anonymous":false},{"type":"event","name":"LoanRepaid","inputs":[{"name":"totalRepayment","type":"uint256","indexed":false,"internalType":"uint256"}],"anonymous":false},{"type":"event","name":"MilestoneCompleted","inputs":[{"name":"milestoneId","type":"uint256","indexed":true,"internalType":"uint256"},{"name":"evidence","type":"string","indexed":false,"internalType":"string"}],"anonymous":false},{"type":"event","name":"MilestoneFailed","inputs":[{"name":"milestoneId","type":"uint256","indexed":true,"internalType":"uint256"},{"name":"reason","type":"string","indexed":false,"internalType":"string"}],"anonymous":false},{"type":"event","name":"ProductInfoUpdated","inputs":[{"name":"productName","type":"string","indexed":false,"internalType":"string"},{"name":"expectedROI","type":"uint256","indexed":false,"internalType":"uint256"}],"anonymous":false},{"type":"event","name":"Refunded","inputs":[{"name":"lender","type":"address","indexed":false,"internalType":"address"},{"name":"amount","type":"uint256","indexed":false,"internalType":"uint256"}],"anonymous":false},{"type":"event","name":"StakeDeposited","inputs":[{"name":"borrower","type":"address","indexed":true,"internalType":"address"},{"name":"amount","type":"uint256","indexed":false,"internalType":"uint256"}],"anonymous":false}],"bytecode":{"object":"0x608060405260405161319c38038061319c8339810160408190526100229161077a565b5f34116100675760405162461bcd60e51b815260206004820152600e60248201526d14dd185ad9481c995c5d5a5c995960921b60448201526064015b60405180910390fd5b5f8160c00151116100ba5760405162461bcd60e51b815260206004820152601460248201527f524f49206d75737420626520706f736974697665000000000000000000000000604482015260640161005e565b8051516101095760405162461bcd60e51b815260206004820152601560248201527f50726f64756374206e616d652072657175697265640000000000000000000000604482015260640161005e565b5f80546001600160a01b0319166001600160a01b0387161790556001849055600283905561013a82620151806108fc565b60035561014a4262278d00610919565b600555600880546301000000600160b81b0319163363010000000217905580518190600b90819061017b90826109ad565b506020820151600182019061019090826109ad565b50604082015160028201906101a590826109ad565b50606082015160038201906101ba90826109ad565b506080820151600482015560a0820151600582015560c0820151600682015560e082015160078201906101ed90826109ad565b505f915060649050610200600a876108fc565b61020a9190610a67565b9050803410156102515760405162461bcd60e51b8152602060048201526012602482015271496e73756666696369656e74207374616b6560701b604482015260640161005e565b3460075561025e836102eb565b856001600160a01b03167f0a7bb2e28cc4698aac06db79cf9163bfcc20719286cf59fa7d492ceda1b8edc23460405161029991815260200190565b60405180910390a2815160c08301516040517f10566cc3678a90d48e259215c4dfaa89699615400ef442fe9a42541766b2ed71926102d8929091610a86565b60405180910390a1505050505050610ad6565b5f6102f7600483610a67565b6040805160c081019091526018608082019081527f5061796d656e74206d61646520746f20737570706c696572000000000000000060a083015281529091506013906020810161034a84620151806108fc565b6103549042610919565b81526020015f81526040805160208181019092525f8082529282015283546001810185559382529020815191926004020190819061039290826109ad565b50602082015181600101556040820151816002015f6101000a81548160ff021916908360028111156103c6576103c6610ac2565b0217905550606082015160038201906103df90826109ad565b50506040805160c08101909152601b608082019081527f50726f6475637420736869707065642066726f6d206f726967696e000000000060a0830152815260139150602081016104308460026108fc565b61043d90620151806108fc565b6104479042610919565b81526020015f81526040805160208181019092525f8082529282015283546001810185559382529020815191926004020190819061048590826109ad565b50602082015181600101556040820151816002015f6101000a81548160ff021916908360028111156104b9576104b9610ac2565b0217905550606082015160038201906104d290826109ad565b50506040805160c08101909152601e608082019081527f50726f6475637420617272697665642061742064657374696e6174696f6e000060a0830152815260139150602081016105238460036108fc565b61053090620151806108fc565b61053a9042610919565b81526020015f81526040805160208181019092525f8082529282015283546001810185559382529020815191926004020190819061057890826109ad565b50602082015181600101556040820151816002015f6101000a81548160ff021916908360028111156105ac576105ac610ac2565b0217905550606082015160038201906105c590826109ad565b50506040805160c081019091526016608082019081527f50526f6475637420726561647920666f722073616c650000000000000000000060a08301528152601391506020810161061885620151806108fc565b6106229042610919565b81526020015f81526040805160208181019092525f8082529282015283546001810185559382529020815191926004020190819061066090826109ad565b50602082015181600101556040820151816002015f6101000a81548160ff0219169083600281111561069457610694610ac2565b0217905550606082015160038201906106ad90826109ad565b5050505050565b634e487b7160e01b5f52604160045260245ffd5b60405161010081016001600160401b03811182821017156106eb576106eb6106b4565b60405290565b5f82601f830112610700575f5ffd5b81516001600160401b03811115610719576107196106b4565b604051601f8201601f19908116603f011681016001600160401b0381118282101715610747576107476106b4565b60405281815283820160200185101561075e575f5ffd5b8160208501602083015e5f918101602001919091529392505050565b5f5f5f5f5f60a0868803121561078e575f5ffd5b85516001600160a01b03811681146107a4575f5ffd5b60208701516040880151606089015160808a0151939850919650945092506001600160401b038111156107d5575f5ffd5b860161010081890312156107e7575f5ffd5b6107ef6106c8565b81516001600160401b03811115610804575f5ffd5b6108108a8285016106f1565b82525060208201516001600160401b0381111561082b575f5ffd5b6108378a8285016106f1565b60208301525060408201516001600160401b03811115610855575f5ffd5b6108618a8285016106f1565b60408301525060608201516001600160401b0381111561087f575f5ffd5b61088b8a8285016106f1565b6060830152506080828101519082015260a0808301519082015260c0808301519082015260e08201516001600160401b038111156108c7575f5ffd5b6108d38a8285016106f1565b60e08301525080925050509295509295909350565b634e487b7160e01b5f52601160045260245ffd5b8082028115828204841417610913576109136108e8565b92915050565b80820180821115610913576109136108e8565b600181811c9082168061094057607f821691505b60208210810361095e57634e487b7160e01b5f52602260045260245ffd5b50919050565b601f8211156109a857805f5260205f20601f840160051c810160208510156109895750805b601f840160051c820191505b818110156106ad575f8155600101610995565b505050565b81516001600160401b038111156109c6576109c66106b4565b6109da816109d4845461092c565b84610964565b6020601f821160018114610a0c575f83156109f55750848201515b5f19600385901b1c1916600184901b1784556106ad565b5f84815260208120601f198516915b82811015610a3b5787850151825560209485019460019092019101610a1b565b5084821015610a5857868401515f19600387901b60f8161c191681555b50505050600190811b01905550565b5f82610a8157634e487b7160e01b5f52601260045260245ffd5b500490565b604081525f83518060408401528060208601606085015e5f606082850101526060601f19601f8301168401019150508260208301529392505050565b634e487b7160e01b5f52602160045260245ffd5b6126b980610ae35f395ff3fe6080604052600436106101e6575f3560e01c806397dffc6111610108578063cbadca6f1161009d578063ec16cd801161006d578063ec16cd8014610588578063f6f5a1e1146105af578063f7d3eaab146105ce578063f966ade7146105e2578063fc72a385146105ea575f5ffd5b8063cbadca6f146104f9578063d969aeed14610512578063dab713c014610531578063e89e4ed614610559575f5ffd5b8063bff1d2e3116100d8578063bff1d2e31461048c578063c45a0155146104aa578063c4c77e25146104d0578063c5c4744c146104e4575f5ffd5b806397dffc61146103df5780639d585f7f146103e7578063a3b9e39d146103fc578063b5545a3c14610478575f5ffd5b80633718aa9e1161017e5780637c3a00fd1161014e5780637c3a00fd146103795780637df1f1b91461038e57806392cc4760146103ac57806397d1c46b146103c0575f5ffd5b80633718aa9e146103005780635c43dd991461031457806367b2d759146103355780636d59f4c71461034a575f5ffd5b80632442e1cb116101b95780632442e1cb1461025d57806328fd10d71461028957806329dcb0cf146102b45780632d6963ce146102c9575f5ffd5b8063026d0518146101ea57806304040c78146102125780630fb5a6b41461023357806319cc3aaa14610248575b5f5ffd5b3480156101f5575f5ffd5b506101ff60145481565b6040519081526020015b60405180910390f35b34801561021d575f5ffd5b5061023161022c366004612049565b61060b565b005b34801561023e575f5ffd5b506101ff60035481565b348015610253575f5ffd5b506101ff60065481565b348015610268575f5ffd5b5061027c61027736600461208d565b610763565b6040516102099190612159565b348015610294575f5ffd5b506101ff6102a3366004612172565b60096020525f908152604090205481565b3480156102bf575f5ffd5b506101ff60055481565b3480156102d4575f5ffd5b506102e86102e336600461208d565b610919565b6040516001600160a01b039091168152602001610209565b34801561030b575f5ffd5b50610231610941565b34801561031f575f5ffd5b50610328610b07565b6040516102099190612198565b348015610340575f5ffd5b506101ff60075481565b348015610355575f5ffd5b506008546103699062010000900460ff1681565b6040519015158152602001610209565b348015610384575f5ffd5b506101ff60025481565b348015610399575f5ffd5b505f546102e8906001600160a01b031681565b3480156103b7575f5ffd5b506101ff600a81565b3480156103cb575f5ffd5b506101ff6103da36600461208d565b610cbf565b610231610d31565b3480156103f2575f5ffd5b506101ff60015481565b348015610407575f5ffd5b505f54600154600254600354600454600654600854600754604080516001600160a01b0390991689526020890197909752958701949094526060860192909252608085015260a084015260ff808216151560c08501526101009182900416151560e084015282015261012001610209565b348015610483575f5ffd5b50610231610f3d565b348015610497575f5ffd5b5060085461036990610100900460ff1681565b3480156104b5575f5ffd5b506008546102e890630100000090046001600160a01b031681565b3480156104db575f5ffd5b50610231611099565b3480156104ef575f5ffd5b506101ff60045481565b348015610504575f5ffd5b506008546103699060ff1681565b34801561051d575f5ffd5b5061023161052c3660046121fb565b6111f8565b34801561053c575f5ffd5b506105456112f6565b60405161020998979695949392919061223d565b348015610564575f5ffd5b5061057861057336600461208d565b6115c8565b60405161020994939291906122c0565b348015610593575f5ffd5b5060145460135460408051928352602083019190915201610209565b3480156105ba575f5ffd5b506102316105c9366004612049565b611717565b3480156105d9575f5ffd5b5061023161189e565b6102316119d6565b3480156105f5575f5ffd5b506105fe611c2e565b6040516102099190612302565b5f546001600160a01b0316331461063d5760405162461bcd60e51b8152600401610634906123b5565b60405180910390fd5b601354821061065e5760405162461bcd60e51b8152600401610634906123dc565b5f6013838154811061067257610672612407565b5f9182526020909120600260049092020181015460ff1690811115610699576106996120d2565b146106de5760405162461bcd60e51b81526020600482015260156024820152744d696c6573746f6e65206e6f742070656e64696e6760581b6044820152606401610634565b6002601383815481106106f3576106f3612407565b905f5260205f2090600402016002015f6101000a81548160ff02191690836002811115610722576107226120d2565b0217905550817f05c8868272ad0cd1966de7e1a429e755483e8e07d5661ef132748aec8576884f82604051610757919061241b565b60405180910390a25050565b61076b611f73565b601354821061078c5760405162461bcd60e51b8152600401610634906123dc565b6013828154811061079f5761079f612407565b905f5260205f2090600402016040518060800160405290815f820180546107c59061242d565b80601f01602080910402602001604051908101604052809291908181526020018280546107f19061242d565b801561083c5780601f106108135761010080835404028352916020019161083c565b820191905f5260205f20905b81548152906001019060200180831161081f57829003601f168201915b50505091835250506001820154602082015260028083015460409092019160ff169081111561086d5761086d6120d2565b600281111561087e5761087e6120d2565b81526020016003820180546108929061242d565b80601f01602080910402602001604051908101604052809291908181526020018280546108be9061242d565b80156109095780601f106108e057610100808354040283529160200191610909565b820191905f5260205f20905b8154815290600101906020018083116108ec57829003601f168201915b5050505050815250509050919050565b600a8181548110610928575f80fd5b5f918252602090912001546001600160a01b0316905081565b60065442116109865760405162461bcd60e51b8152602060048201526011602482015270139bdd08191959985d5b1d1959081e595d607a1b6044820152606401610634565b600854610100900460ff16156109d05760405162461bcd60e51b815260206004820152600f60248201526e131bd85b881dd85cc81c995c185a59608a1b6044820152606401610634565b60085460ff16610a145760405162461bcd60e51b815260206004820152600f60248201526e131bd85b881b9bdd08199d5b991959608a1b6044820152606401610634565b6007545f5b600a54811015610ab9575f600a8281548110610a3757610a37612407565b5f9182526020808320909101546004546001600160a01b039091168084526009909252604083205491935090610a6e908690612479565b610a789190612490565b6040519091506001600160a01b0383169082156108fc029083905f818181858888f19350505050158015610aae573d5f5f3e3d5ffd5b505050600101610a19565b505f54600154604080516001600160a01b03909316835260208301919091527f2cfb259995f422802646eab058f3ca041deeb1c2a1e6a9d9cfcd4062af1ea5bc91015b60405180910390a150565b60606013805480602002602001604051908101604052809291908181526020015f905b82821015610cb6578382905f5260205f2090600402016040518060800160405290815f82018054610b5a9061242d565b80601f0160208091040260200160405190810160405280929190818152602001828054610b869061242d565b8015610bd15780601f10610ba857610100808354040283529160200191610bd1565b820191905f5260205f20905b815481529060010190602001808311610bb457829003601f168201915b50505091835250506001820154602082015260028083015460409092019160ff1690811115610c0257610c026120d2565b6002811115610c1357610c136120d2565b8152602001600382018054610c279061242d565b80601f0160208091040260200160405190810160405280929190818152602001828054610c539061242d565b8015610c9e5780601f10610c7557610100808354040283529160200191610c9e565b820191905f5260205f20905b815481529060010190602001808311610c8157829003601f168201915b50505050508152505081526020019060010190610b2a565b50505050905090565b600f545f908211610d085760405162461bcd60e51b815260206004820152601360248201527253616c6520616d6f756e7420746f6f206c6f7760681b6044820152606401610634565b600f54610d1581846124af565b610d2190612710612479565b610d2b9190612490565b92915050565b6005544210610d795760405162461bcd60e51b8152602060048201526014602482015273119d5b991a5b99c81c195c9a5bd908195b99195960621b6044820152606401610634565b60085460ff1615610dc25760405162461bcd60e51b8152602060048201526013602482015272131bd85b88185b1c9958591e48199d5b991959606a1b6044820152606401610634565b5f3411610e015760405162461bcd60e51b815260206004820152600d60248201526c09aeae6e840e6cadcc8408aa89609b1b6044820152606401610634565b335f908152600960205260408120549003610e5857600a80546001810182555f919091527fc65a7bb8d6351c1cf70c95a316cc6a92839c986682d98bc35f958f4883f9d2a80180546001600160a01b031916331790555b335f9081526009602052604081208054349290610e769084906124c2565b925050819055503460045f828254610e8e91906124c2565b9091555050604080513381523460208201527f5af8184bef8e4b45eb9f6ed7734d04da38ced226495548f46e0c8ff8d7d9a524910160405180910390a160015460045410158015610ee2575060085460ff16155b15610f3b576008805460ff19166001179055600354610f0190426124c2565b6006556004546040519081527f9e71d2fb732e68272b7e74ecfd14638673c1d77e19a5d390a3ffff054d57c44b9060200160405180910390a15b565b600554421015610f8f5760405162461bcd60e51b815260206004820152601860248201527f46756e64696e6720706572696f64206e6f7420656e64656400000000000000006044820152606401610634565b60085460ff1615610fd45760405162461bcd60e51b815260206004820152600f60248201526e131bd85b881dd85cc8199d5b991959608a1b6044820152606401610634565b335f908152600960205260409020546110245760405162461bcd60e51b8152602060048201526012602482015271139bc8199d5b991cc81d1bc81c99599d5b9960721b6044820152606401610634565b335f81815260096020526040808220805490839055905190929183156108fc02918491818181858888f19350505050158015611062573d5f5f3e3d5ffd5b5060408051338152602081018390527fd7dee2702d63ad89917b6a4da9981c90c4d24f8c2bdfd64c604ecae57d8d06519101610afc565b5f546001600160a01b031633146110c25760405162461bcd60e51b8152600401610634906123b5565b60085460ff1661110c5760405162461bcd60e51b8152602060048201526015602482015274131bd85b881b9bdd08199d5b1b1e48199d5b991959605a1b6044820152606401610634565b60085462010000900460ff161561115e5760405162461bcd60e51b81526020600482015260166024820152752637b0b71030b63932b0b23c903bb4ba34323930bbb760511b6044820152606401610634565b600854610100900460ff16156111ac5760405162461bcd60e51b8152602060048201526013602482015272131bd85b88185b1c9958591e481c995c185a59606a1b6044820152606401610634565b6008805462ff00001916620100001790555f80546001546040516001600160a01b039092169281156108fc029290818181858888f193505050501580156111f5573d5f5f3e3d5ffd5b50565b5f546001600160a01b031633146112215760405162461bcd60e51b8152600401610634906123b5565b60085460ff16156112745760405162461bcd60e51b815260206004820152601b60248201527f43616e6e6f74207570646174652061667465722066756e64696e6700000000006044820152606401610634565b60126112808382612521565b506010819055600f54156112b557600f5461129b81836124af565b6112a790612710612479565b6112b19190612490565b6011555b6011546040517f10566cc3678a90d48e259215c4dfaa89699615400ef442fe9a42541766b2ed71916112ea91600b91906125dc565b60405180910390a15050565b600b805481906113059061242d565b80601f01602080910402602001604051908101604052809291908181526020018280546113319061242d565b801561137c5780601f106113535761010080835404028352916020019161137c565b820191905f5260205f20905b81548152906001019060200180831161135f57829003601f168201915b5050505050908060010180546113919061242d565b80601f01602080910402602001604051908101604052809291908181526020018280546113bd9061242d565b80156114085780601f106113df57610100808354040283529160200191611408565b820191905f5260205f20905b8154815290600101906020018083116113eb57829003601f168201915b50505050509080600201805461141d9061242d565b80601f01602080910402602001604051908101604052809291908181526020018280546114499061242d565b80156114945780601f1061146b57610100808354040283529160200191611494565b820191905f5260205f20905b81548152906001019060200180831161147757829003601f168201915b5050505050908060030180546114a99061242d565b80601f01602080910402602001604051908101604052809291908181526020018280546114d59061242d565b80156115205780601f106114f757610100808354040283529160200191611520565b820191905f5260205f20905b81548152906001019060200180831161150357829003601f168201915b5050505050908060040154908060050154908060060154908060070180546115479061242d565b80601f01602080910402602001604051908101604052809291908181526020018280546115739061242d565b80156115be5780601f10611595576101008083540402835291602001916115be565b820191905f5260205f20905b8154815290600101906020018083116115a157829003601f168201915b5050505050905088565b601381815481106115d7575f80fd5b905f5260205f2090600402015f91509050805f0180546115f69061242d565b80601f01602080910402602001604051908101604052809291908181526020018280546116229061242d565b801561166d5780601f106116445761010080835404028352916020019161166d565b820191905f5260205f20905b81548152906001019060200180831161165057829003601f168201915b50505050600183015460028401546003850180549495929460ff9092169350906116969061242d565b80601f01602080910402602001604051908101604052809291908181526020018280546116c29061242d565b801561170d5780601f106116e45761010080835404028352916020019161170d565b820191905f5260205f20905b8154815290600101906020018083116116f057829003601f168201915b5050505050905084565b5f546001600160a01b031633146117405760405162461bcd60e51b8152600401610634906123b5565b60135482106117615760405162461bcd60e51b8152600401610634906123dc565b5f6013838154811061177557611775612407565b5f9182526020909120600260049092020181015460ff169081111561179c5761179c6120d2565b146117e15760405162461bcd60e51b81526020600482015260156024820152744d696c6573746f6e65206e6f742070656e64696e6760581b6044820152606401610634565b6001601383815481106117f6576117f6612407565b905f5260205f2090600402016002015f6101000a81548160ff02191690836002811115611825576118256120d2565b0217905550806013838154811061183e5761183e612407565b905f5260205f20906004020160030190816118599190612521565b5060148054905f6118698361266b565b9190505550817f596b9dbf4a34a065b97919d952a438e69135615bbbe14d29df893d0ee0d78e4882604051610757919061241b565b600854610100900460ff166118e75760405162461bcd60e51b815260206004820152600f60248201526e131bd85b881b9bdd081c995c185a59608a1b6044820152606401610634565b5f471161192f5760405162461bcd60e51b81526020600482015260166024820152754e6f2066756e647320746f206469737472696275746560501b6044820152606401610634565b475f5b600a548110156119d2575f600a828154811061195057611950612407565b5f9182526020808320909101546004546001600160a01b039091168084526009909252604083205491935090611987908690612479565b6119919190612490565b6040519091506001600160a01b0383169082156108fc029083905f818181858888f193505050501580156119c7573d5f5f3e3d5ffd5b505050600101611932565b5050565b5f546001600160a01b031633146119ff5760405162461bcd60e51b8152600401610634906123b5565b60085460ff16611a435760405162461bcd60e51b815260206004820152600f60248201526e131bd85b881b9bdd08199d5b991959608a1b6044820152606401610634565b60085462010000900460ff16611a905760405162461bcd60e51b81526020600482015260126024820152712637b0b7103737ba103bb4ba34323930bbb760711b6044820152606401610634565b600854610100900460ff1615611ade5760405162461bcd60e51b8152602060048201526013602482015272131bd85b88185b1c9958591e481c995c185a59606a1b6044820152606401610634565b600654421115611b215760405162461bcd60e51b815260206004820152600e60248201526d131bd85b88191959985d5b1d195960921b6044820152606401610634565b5f612710600254600154611b359190612479565b611b3f9190612490565b600154611b4c91906124c2565b905080341015611b975760405162461bcd60e51b8152602060048201526016602482015275125b9cdd59999a58da595b9d081c995c185e5b595b9d60521b6044820152606401610634565b6008805461ff0019166101001790555f611bb182346124af565b600754611bbe91906124c2565b90508015611bfe575f80546040516001600160a01b039091169183156108fc02918491818181858888f19350505050158015611bfc573d5f5f3e3d5ffd5b505b6040518281527f9a7851747cd7ffb3fe0a32caf3da48b31f27cebe131267051640f8b72fc47186906020016112ea565b611c73604051806101000160405280606081526020016060815260200160608152602001606081526020015f81526020015f81526020015f8152602001606081525090565b600b604051806101000160405290815f82018054611c909061242d565b80601f0160208091040260200160405190810160405280929190818152602001828054611cbc9061242d565b8015611d075780601f10611cde57610100808354040283529160200191611d07565b820191905f5260205f20905b815481529060010190602001808311611cea57829003601f168201915b50505050508152602001600182018054611d209061242d565b80601f0160208091040260200160405190810160405280929190818152602001828054611d4c9061242d565b8015611d975780601f10611d6e57610100808354040283529160200191611d97565b820191905f5260205f20905b815481529060010190602001808311611d7a57829003601f168201915b50505050508152602001600282018054611db09061242d565b80601f0160208091040260200160405190810160405280929190818152602001828054611ddc9061242d565b8015611e275780601f10611dfe57610100808354040283529160200191611e27565b820191905f5260205f20905b815481529060010190602001808311611e0a57829003601f168201915b50505050508152602001600382018054611e409061242d565b80601f0160208091040260200160405190810160405280929190818152602001828054611e6c9061242d565b8015611eb75780601f10611e8e57610100808354040283529160200191611eb7565b820191905f5260205f20905b815481529060010190602001808311611e9a57829003601f168201915b50505050508152602001600482015481526020016005820154815260200160068201548152602001600782018054611eee9061242d565b80601f0160208091040260200160405190810160405280929190818152602001828054611f1a9061242d565b8015611f655780601f10611f3c57610100808354040283529160200191611f65565b820191905f5260205f20905b815481529060010190602001808311611f4857829003601f168201915b505050505081525050905090565b6040518060800160405280606081526020015f81526020015f6002811115611f9d57611f9d6120d2565b8152602001606081525090565b634e487b7160e01b5f52604160045260245ffd5b5f82601f830112611fcd575f5ffd5b813567ffffffffffffffff811115611fe757611fe7611faa565b604051601f8201601f19908116603f0116810167ffffffffffffffff8111828210171561201657612016611faa565b60405281815283820160200185101561202d575f5ffd5b816020850160208301375f918101602001919091529392505050565b5f5f6040838503121561205a575f5ffd5b82359150602083013567ffffffffffffffff811115612077575f5ffd5b61208385828601611fbe565b9150509250929050565b5f6020828403121561209d575f5ffd5b5035919050565b5f81518084528060208401602086015e5f602082860101526020601f19601f83011685010191505092915050565b634e487b7160e01b5f52602160045260245ffd5b6003811061210257634e487b7160e01b5f52602160045260245ffd5b9052565b5f81516080845261211a60808501826120a4565b905060208301516020850152604083015161213860408601826120e6565b506060830151848203606086015261215082826120a4565b95945050505050565b602081525f61216b6020830184612106565b9392505050565b5f60208284031215612182575f5ffd5b81356001600160a01b038116811461216b575f5ffd5b5f602082016020835280845180835260408501915060408160051b8601019250602086015f5b828110156121ef57603f198786030184526121da858351612106565b945060209384019391909101906001016121be565b50929695505050505050565b5f5f6040838503121561220c575f5ffd5b823567ffffffffffffffff811115612222575f5ffd5b61222e85828601611fbe565b95602094909401359450505050565b61010081525f61225161010083018b6120a4565b8281036020840152612263818b6120a4565b90508281036040840152612277818a6120a4565b9050828103606084015261228b81896120a4565b90508660808401528560a08401528460c084015282810360e08401526122b181856120a4565b9b9a5050505050505050505050565b608081525f6122d260808301876120a4565b8560208401526122e560408401866120e6565b82810360608401526122f781856120a4565b979650505050505050565b602081525f8251610100602084015261231f6101208401826120a4565b90506020840151601f1984830301604085015261233c82826120a4565b9150506040840151601f1984830301606085015261235a82826120a4565b9150506060840151601f1984830301608085015261237882826120a4565b915050608084015160a084015260a084015160c084015260c084015160e084015260e0840151601f198483030161010085015261215082826120a4565b6020808252600d908201526c27b7363c903137b93937bbb2b960991b604082015260600190565b602080825260119082015270496e76616c6964206d696c6573746f6e6560781b604082015260600190565b634e487b7160e01b5f52603260045260245ffd5b602081525f61216b60208301846120a4565b600181811c9082168061244157607f821691505b60208210810361245f57634e487b7160e01b5f52602260045260245ffd5b50919050565b634e487b7160e01b5f52601160045260245ffd5b8082028115828204841417610d2b57610d2b612465565b5f826124aa57634e487b7160e01b5f52601260045260245ffd5b500490565b81810381811115610d2b57610d2b612465565b80820180821115610d2b57610d2b612465565b601f82111561251c57805f5260205f20601f840160051c810160208510156124fa5750805b601f840160051c820191505b81811015612519575f8155600101612506565b50505b505050565b815167ffffffffffffffff81111561253b5761253b611faa565b61254f81612549845461242d565b846124d5565b6020601f821160018114612581575f831561256a5750848201515b5f19600385901b1c1916600184901b178455612519565b5f84815260208120601f198516915b828110156125b05787850151825560209485019460019092019101612590565b50848210156125cd57868401515f19600387901b60f8161c191681555b50505050600190811b01905550565b604081525f5f84546125ed8161242d565b806040860152600182165f811461260b576001811461262757612658565b60ff1983166060870152606082151560051b8701019350612658565b875f5260205f205f5b8381101561264f57815488820160600152600190910190602001612630565b87016060019450505b5050506020929092019290925292915050565b5f6001820161267c5761267c612465565b506001019056fea2646970667358221220d3ffe11b2d8b5e73ee4d7138d020c0afbff4b22f921bcca8ae9053d791abb6f964736f6c634300081e0033","linkReferences":{}},"methodIdentifiers":{"STAKE_PERCENTAGE()":"92cc4760","borrower()":"7df1f1b9","borrowerStake()":"67b2d759","calculateActualROI(uint256)":"97d1c46b","claimRefund()":"b5545a3c","completeMilestone(uint256,string)":"f6f5a1e1","completedMilestones()":"026d0518","deadline()":"29dcb0cf","distributeToLenders()":"f7d3eaab","duration()":"0fb5a6b4","factory()":"c45a0155","failMilestone(uint256,string)":"04040c78","getAllMilestones()":"5c43dd99","getLoanDetails()":"a3b9e39d","getMilestone(uint256)":"2442e1cb","getProductInfo()":"fc72a385","getProjectProgress()":"ec16cd80","handleDefault()":"3718aa9e","interestRate()":"7c3a00fd","lend()":"97dffc61","lenderAddresses(uint256)":"2d6963ce","lenders(address)":"28fd10d7","loanAmount()":"9d585f7f","loanFunded()":"cbadca6f","loanRepaid()":"bff1d2e3","loanWithdrawn()":"6d59f4c7","milestones(uint256)":"e89e4ed6","productInfo()":"dab713c0","repayLoan()":"f966ade7","repaymentDeadline()":"19cc3aaa","totalRaised()":"c5c4744c","updateProductInfo(string,uint256)":"d969aeed","withdrawLoan()":"c4c77e25"},"id":20}