{"abi":[{"type":"constructor","inputs":[],"stateMutability":"nonpayable"},{"type":"function","name":"MAX_DURATION","inputs":[],"outputs":[{"name":"","type":"uint256","internalType":"uint256"}],"stateMutability":"view"},{"type":"function","name":"MAX_LOAN_AMOUNT","inputs":[],"outputs":[{"name":"","type":"uint256","internalType":"uint256"}],"stateMutability":"view"},{"type":"function","name":"MIN_DURATION","inputs":[],"outputs":[{"name":"","type":"uint256","internalType":"uint256"}],"stateMutability":"view"},{"type":"function","name":"MIN_LOAN_AMOUNT","inputs":[],"outputs":[{"name":"","type":"uint256","internalType":"uint256"}],"stateMutability":"view"},{"type":"function","name":"allLoans","inputs":[{"name":"","type":"uint256","internalType":"uint256"}],"outputs":[{"name":"","type":"address","internalType":"address"}],"stateMutability":"view"},{"type":"function","name":"approveBorrower","inputs":[{"name":"_borrower","type":"address","internalType":"address"}],"outputs":[],"stateMutability":"nonpayable"},{"type":"function","name":"approvedBorrowers","inputs":[{"name":"","type":"address","internalType":"address"}],"outputs":[{"name":"","type":"bool","internalType":"bool"}],"stateMutability":"view"},{"type":"function","name":"calculateInterestRate","inputs":[{"name":"_loanAmount","type":"uint256","internalType":"uint256"},{"name":"_durationDays","type":"uint256","internalType":"uint256"}],"outputs":[{"name":"","type":"uint256","internalType":"uint256"}],"stateMutability":"pure"},{"type":"function","name":"createLoan","inputs":[{"name":"_loanAmount","type":"uint256","internalType":"uint256"},{"name":"_durationDays","type":"uint256","internalType":"uint256"}],"outputs":[{"name":"","type":"address","internalType":"address"}],"stateMutability":"payable"},{"type":"function","name":"getAllLoans","inputs":[],"outputs":[{"name":"","type":"address[]","internalType":"address[]"}],"stateMutability":"view"},{"type":"function","name":"getLoansByBorrower","inputs":[{"name":"_borrower","type":"address","internalType":"address"}],"outputs":[{"name":"","type":"address[]","internalType":"address[]"}],"stateMutability":"view"},{"type":"function","name":"getTotalLoans","inputs":[],"outputs":[{"name":"","type":"uint256","internalType":"uint256"}],"stateMutability":"view"},{"type":"function","name":"loansByBorrower","inputs":[{"name":"","type":"address","internalType":"address"},{"name":"","type":"uint256","internalType":"uint256"}],"outputs":[{"name":"","type":"address","internalType":"address"}],"stateMutability":"view"},{"type":"function","name":"owner","inputs":[],"outputs":[{"name":"","type":"address","internalType":"address"}],"stateMutability":"view"},{"type":"function","name":"revokeBorrower","inputs":[{"name":"_borrower","type":"address","internalType":"address"}],"outputs":[],"stateMutability":"nonpayable"},{"type":"event","name":"BorrowerApproved","inputs":[{"name":"borrower","type":"address","indexed":true,"internalType":"address"}],"anonymous":false},{"type":"event","name":"BorrowerRevoked","inputs":[{"name":"borrower","type":"address","indexed":true,"internalType":"address"}],"anonymous":false},{"type":"event","name":"LoanCreated","inputs":[{"name":"loanAddress","type":"address","indexed":true,"internalType":"address"},{"name":"borrower","type":"address","indexed":true,"internalType":"address"},{"name":"loanAmount","type":"uint256","indexed":false,"internalType":"uint256"},{"name":"interestRate","type":"uint256","indexed":false,"internalType":"uint256"},{"name":"durationDays","type":"uint256","indexed":false,"internalType":"uint256"}],"anonymous":false}],"bytecode":{"object":"0x6080604052348015600e575f5ffd5b505f80546001600160a01b03191633179055611b3c8061002d5f395ff3fe6080604052600436106100e4575f3560e01c80639a47192011610087578063b1724b4611610057578063b1724b461461024c578063b6a6d17714610261578063c936c62414610275578063ceba1794146102b3575f5ffd5b80639a471920146101d95780639bbb767c146101fa578063a579678514610219578063a5bfd16a14610238575f5ffd5b806386a2a438116100c257806386a2a438146101615780638da5cb5b1461018d57806396fa212f146101ab57806398cd90b5146101c6575f5ffd5b80631b8a3548146100e85780634b7f1e5a14610124578063833be5d514610143575b5f5ffd5b3480156100f3575f5ffd5b50610107610102366004610839565b6102cf565b6040516001600160a01b0390911681526020015b60405180910390f35b34801561012f575f5ffd5b5061010761013e36600461086b565b6102f7565b34801561014e575f5ffd5b506001545b60405190815260200161011b565b34801561016c575f5ffd5b5061018061017b366004610893565b61032b565b60405161011b91906108b3565b348015610198575f5ffd5b505f54610107906001600160a01b031681565b3480156101b6575f5ffd5b5061015367016345785d8a000081565b6101076101d43660046108fe565b61039e565b3480156101e4575f5ffd5b506101f86101f3366004610893565b61062d565b005b348015610205575f5ffd5b506101f8610214366004610893565b6106be565b348015610224575f5ffd5b506101536102333660046108fe565b61074c565b348015610243575f5ffd5b506101806107cc565b348015610257575f5ffd5b5061015361016d81565b34801561026c575f5ffd5b50610153600781565b348015610280575f5ffd5b506102a361028f366004610893565b60036020525f908152604090205460ff1681565b604051901515815260200161011b565b3480156102be575f5ffd5b50610153683635c9adc5dea0000081565b600181815481106102de575f80fd5b5f918252602090912001546001600160a01b0316905081565b6002602052815f5260405f208181548110610310575f80fd5b5f918252602090912001546001600160a01b03169150829050565b6001600160a01b0381165f9081526002602090815260409182902080548351818402810184019094528084526060939283018282801561039257602002820191905f5260205f20905b81546001600160a01b03168152600190910190602001808311610374575b50505050509050919050565b335f9081526003602052604081205460ff166103f95760405162461bcd60e51b81526020600482015260156024820152742737ba1030b8383937bb32b2103137b93937bbb2b960591b60448201526064015b60405180910390fd5b67016345785d8a0000831015801561041a5750683635c9adc5dea000008311155b61045c5760405162461bcd60e51b8152602060048201526013602482015272125b9d985b1a59081b1bd85b88185b5bdd5b9d606a1b60448201526064016103f0565b6007821015801561046f575061016d8211155b6104ae5760405162461bcd60e51b815260206004820152601060248201526f24b73b30b634b210323ab930ba34b7b760811b60448201526064016103f0565b5f60646104bc85600a610932565b6104c69190610949565b90508034101561050d5760405162461bcd60e51b8152602060048201526012602482015271496e73756666696369656e74207374616b6560701b60448201526064016103f0565b5f610518858561074c565b90505f343387848860405161052c9061082c565b6001600160a01b0390941684526020840192909252604083015260608201526080016040518091039082f0905080158015610569573d5f5f3e3d5ffd5b506001805480820182557fb10e2d527612073b26eecdfd717e6a320cf44b4afac2b0732d9fcbe2b7fa0cf60180546001600160a01b0384166001600160a01b03199182168117909255335f818152600260209081526040808320805497880181558352918190209095018054909316841790925581518b81529384018790529083018990529293508392917fde636d638630facb15ec6c1d7316206e1f6f4ab5ff6d1deca5d52207f567a3349060600160405180910390a393505050505b92915050565b5f546001600160a01b031633146106735760405162461bcd60e51b815260206004820152600a60248201526927b7363c9037bbb732b960b11b60448201526064016103f0565b6001600160a01b0381165f81815260036020526040808220805460ff19166001179055517fedc2944c98c5f002ed2a9c43a72e74b11409dfbf0ed4161d88bccd6d3369e0f59190a250565b5f546001600160a01b031633146107045760405162461bcd60e51b815260206004820152600a60248201526927b7363c9037bbb732b960b11b60448201526064016103f0565b6001600160a01b0381165f81815260036020526040808220805460ff19169055517f90735889e886ae0281a27877dde978b5bb1ee18692b23268e202e20d4fb3787d9190a250565b5f6101f481601e61075e85600a610932565b6107689190610949565b90505f683635c9adc5dea00000610780876064610932565b61078a9190610949565b90505f816107988486610968565b6107a29190610968565b90506101f48110156107b357506101f45b6109c48111156107c257506109c45b9695505050505050565b6060600180548060200260200160405190810160405280929190818152602001828054801561082257602002820191905f5260205f20905b81546001600160a01b03168152600190910190602001808311610804575b5050505050905090565b61118b8061097c83390190565b5f60208284031215610849575f5ffd5b5035919050565b80356001600160a01b0381168114610866575f5ffd5b919050565b5f5f6040838503121561087c575f5ffd5b61088583610850565b946020939093013593505050565b5f602082840312156108a3575f5ffd5b6108ac82610850565b9392505050565b602080825282518282018190525f918401906040840190835b818110156108f35783516001600160a01b03168352602093840193909201916001016108cc565b509095945050505050565b5f5f6040838503121561090f575f5ffd5b50508035926020909101359150565b634e487b7160e01b5f52601160045260245ffd5b80820281158282048414176106275761062761091e565b5f8261096357634e487b7160e01b5f52601260045260245ffd5b500490565b808201808211156106275761062761091e56fe608060405260405161118b38038061118b83398101604081905261002291610173565b5f34116100675760405162461bcd60e51b815260206004820152600e60248201526d14dd185ad9481c995c5d5a5c995960921b60448201526064015b60405180910390fd5b5f80546001600160a01b0319166001600160a01b0386161790556001839055600282905561009881620151806101ce565b6003556100a84262278d006101eb565b600555600880546301000000600160b81b031916336301000000021790555f60646100d4600a866101ce565b6100de91906101fe565b9050803410156101255760405162461bcd60e51b8152602060048201526012602482015271496e73756666696369656e74207374616b6560701b604482015260640161005e565b3460078190556040519081526001600160a01b038616907f0a7bb2e28cc4698aac06db79cf9163bfcc20719286cf59fa7d492ceda1b8edc29060200160405180910390a2505050505061021d565b5f5f5f5f60808587031215610186575f5ffd5b84516001600160a01b038116811461019c575f5ffd5b60208601516040870151606090970151919890975090945092505050565b634e487b7160e01b5f52601160045260245ffd5b80820281158282048414176101e5576101e56101ba565b92915050565b808201808211156101e5576101e56101ba565b5f8261021857634e487b7160e01b5f52601260045260245ffd5b500490565b610f618061022a5f395ff3fe608060405260043610610131575f3560e01c806397dffc61116100a8578063c45a01551161006d578063c45a015514610355578063c4c77e251461037b578063c5c4744c1461038f578063cbadca6f146103a4578063f7d3eaab146103bd578063f966ade7146103d1575f5ffd5b806397dffc611461028a5780639d585f7f14610292578063a3b9e39d146102a7578063b5545a3c14610323578063bff1d2e314610337575f5ffd5b80633718aa9e116100f95780633718aa9e146101e957806367b2d759146101ff5780636d59f4c7146102145780637c3a00fd146102435780637df1f1b91461025857806392cc476014610276575f5ffd5b80630fb5a6b41461013557806319cc3aaa1461015d57806328fd10d71461017257806329dcb0cf1461019d5780632d6963ce146101b2575b5f5ffd5b348015610140575f5ffd5b5061014a60035481565b6040519081526020015b60405180910390f35b348015610168575f5ffd5b5061014a60065481565b34801561017d575f5ffd5b5061014a61018c366004610e5d565b60096020525f908152604090205481565b3480156101a8575f5ffd5b5061014a60055481565b3480156101bd575f5ffd5b506101d16101cc366004610e8a565b6103d9565b6040516001600160a01b039091168152602001610154565b3480156101f4575f5ffd5b506101fd610401565b005b34801561020a575f5ffd5b5061014a60075481565b34801561021f575f5ffd5b506008546102339062010000900460ff1681565b6040519015158152602001610154565b34801561024e575f5ffd5b5061014a60025481565b348015610263575f5ffd5b505f546101d1906001600160a01b031681565b348015610281575f5ffd5b5061014a600a81565b6101fd6105cc565b34801561029d575f5ffd5b5061014a60015481565b3480156102b2575f5ffd5b505f54600154600254600354600454600654600854600754604080516001600160a01b0390991689526020890197909752958701949094526060860192909252608085015260a084015260ff808216151560c08501526101009182900416151560e084015282015261012001610154565b34801561032e575f5ffd5b506101fd6107d8565b348015610342575f5ffd5b5060085461023390610100900460ff1681565b348015610360575f5ffd5b506008546101d190630100000090046001600160a01b031681565b348015610386575f5ffd5b506101fd610934565b34801561039a575f5ffd5b5061014a60045481565b3480156103af575f5ffd5b506008546102339060ff1681565b3480156103c8575f5ffd5b506101fd610ab3565b6101fd610beb565b600a81815481106103e8575f80fd5b5f918252602090912001546001600160a01b0316905081565b600654421161044b5760405162461bcd60e51b8152602060048201526011602482015270139bdd08191959985d5b1d1959081e595d607a1b60448201526064015b60405180910390fd5b600854610100900460ff16156104955760405162461bcd60e51b815260206004820152600f60248201526e131bd85b881dd85cc81c995c185a59608a1b6044820152606401610442565b60085460ff166104d95760405162461bcd60e51b815260206004820152600f60248201526e131bd85b881b9bdd08199d5b991959608a1b6044820152606401610442565b6007545f5b600a5481101561057e575f600a82815481106104fc576104fc610ea1565b5f9182526020808320909101546004546001600160a01b039091168084526009909252604083205491935090610533908690610ec9565b61053d9190610ee6565b6040519091506001600160a01b0383169082156108fc029083905f818181858888f19350505050158015610573573d5f5f3e3d5ffd5b5050506001016104de565b505f54600154604080516001600160a01b03909316835260208301919091527f2cfb259995f422802646eab058f3ca041deeb1c2a1e6a9d9cfcd4062af1ea5bc91015b60405180910390a150565b60055442106106145760405162461bcd60e51b8152602060048201526014602482015273119d5b991a5b99c81c195c9a5bd908195b99195960621b6044820152606401610442565b60085460ff161561065d5760405162461bcd60e51b8152602060048201526013602482015272131bd85b88185b1c9958591e48199d5b991959606a1b6044820152606401610442565b5f341161069c5760405162461bcd60e51b815260206004820152600d60248201526c09aeae6e840e6cadcc8408aa89609b1b6044820152606401610442565b335f9081526009602052604081205490036106f357600a80546001810182555f919091527fc65a7bb8d6351c1cf70c95a316cc6a92839c986682d98bc35f958f4883f9d2a80180546001600160a01b031916331790555b335f9081526009602052604081208054349290610711908490610f05565b925050819055503460045f8282546107299190610f05565b9091555050604080513381523460208201527f5af8184bef8e4b45eb9f6ed7734d04da38ced226495548f46e0c8ff8d7d9a524910160405180910390a16001546004541015801561077d575060085460ff16155b156107d6576008805460ff1916600117905560035461079c9042610f05565b6006556004546040519081527f9e71d2fb732e68272b7e74ecfd14638673c1d77e19a5d390a3ffff054d57c44b9060200160405180910390a15b565b60055442101561082a5760405162461bcd60e51b815260206004820152601860248201527f46756e64696e6720706572696f64206e6f7420656e64656400000000000000006044820152606401610442565b60085460ff161561086f5760405162461bcd60e51b815260206004820152600f60248201526e131bd85b881dd85cc8199d5b991959608a1b6044820152606401610442565b335f908152600960205260409020546108bf5760405162461bcd60e51b8152602060048201526012602482015271139bc8199d5b991cc81d1bc81c99599d5b9960721b6044820152606401610442565b335f81815260096020526040808220805490839055905190929183156108fc02918491818181858888f193505050501580156108fd573d5f5f3e3d5ffd5b5060408051338152602081018390527fd7dee2702d63ad89917b6a4da9981c90c4d24f8c2bdfd64c604ecae57d8d065191016105c1565b5f546001600160a01b0316331461097d5760405162461bcd60e51b815260206004820152600d60248201526c27b7363c903137b93937bbb2b960991b6044820152606401610442565b60085460ff166109c75760405162461bcd60e51b8152602060048201526015602482015274131bd85b881b9bdd08199d5b1b1e48199d5b991959605a1b6044820152606401610442565b60085462010000900460ff1615610a195760405162461bcd60e51b81526020600482015260166024820152752637b0b71030b63932b0b23c903bb4ba34323930bbb760511b6044820152606401610442565b600854610100900460ff1615610a675760405162461bcd60e51b8152602060048201526013602482015272131bd85b88185b1c9958591e481c995c185a59606a1b6044820152606401610442565b6008805462ff00001916620100001790555f80546001546040516001600160a01b039092169281156108fc029290818181858888f19350505050158015610ab0573d5f5f3e3d5ffd5b50565b600854610100900460ff16610afc5760405162461bcd60e51b815260206004820152600f60248201526e131bd85b881b9bdd081c995c185a59608a1b6044820152606401610442565b5f4711610b445760405162461bcd60e51b81526020600482015260166024820152754e6f2066756e647320746f206469737472696275746560501b6044820152606401610442565b475f5b600a54811015610be7575f600a8281548110610b6557610b65610ea1565b5f9182526020808320909101546004546001600160a01b039091168084526009909252604083205491935090610b9c908690610ec9565b610ba69190610ee6565b6040519091506001600160a01b0383169082156108fc029083905f818181858888f19350505050158015610bdc573d5f5f3e3d5ffd5b505050600101610b47565b5050565b5f546001600160a01b03163314610c345760405162461bcd60e51b815260206004820152600d60248201526c27b7363c903137b93937bbb2b960991b6044820152606401610442565b60085460ff16610c785760405162461bcd60e51b815260206004820152600f60248201526e131bd85b881b9bdd08199d5b991959608a1b6044820152606401610442565b60085462010000900460ff16610cc55760405162461bcd60e51b81526020600482015260126024820152712637b0b7103737ba103bb4ba34323930bbb760711b6044820152606401610442565b600854610100900460ff1615610d135760405162461bcd60e51b8152602060048201526013602482015272131bd85b88185b1c9958591e481c995c185a59606a1b6044820152606401610442565b600654421115610d565760405162461bcd60e51b815260206004820152600e60248201526d131bd85b88191959985d5b1d195960921b6044820152606401610442565b5f612710600254600154610d6a9190610ec9565b610d749190610ee6565b600154610d819190610f05565b905080341015610dcc5760405162461bcd60e51b8152602060048201526016602482015275125b9cdd59999a58da595b9d081c995c185e5b595b9d60521b6044820152606401610442565b6008805461ff0019166101001790555f610de68234610f18565b90508015610e26575f80546040516001600160a01b039091169183156108fc02918491818181858888f19350505050158015610e24573d5f5f3e3d5ffd5b505b6040518281527f9a7851747cd7ffb3fe0a32caf3da48b31f27cebe131267051640f8b72fc471869060200160405180910390a15050565b5f60208284031215610e6d575f5ffd5b81356001600160a01b0381168114610e83575f5ffd5b9392505050565b5f60208284031215610e9a575f5ffd5b5035919050565b634e487b7160e01b5f52603260045260245ffd5b634e487b7160e01b5f52601160045260245ffd5b8082028115828204841417610ee057610ee0610eb5565b92915050565b5f82610f0057634e487b7160e01b5f52601260045260245ffd5b500490565b80820180821115610ee057610ee0610eb5565b81810381811115610ee057610ee0610eb556fea2646970667358221220d8af48c28c56ca135ad5bb0490f53bee9ce825793e6057ce03cffaec99d383e164736f6c634300081e0033a26469706673582212200dccc401caa9f8c0656e8c7b303e8ec99055781cf328b3f34b66aeabc58965d464736f6c634300081e0033","linkReferences":{}},"methodIdentifiers":{"MAX_DURATION()":"b1724b46","MAX_LOAN_AMOUNT()":"ceba1794","MIN_DURATION()":"b6a6d177","MIN_LOAN_AMOUNT()":"96fa212f","allLoans(uint256)":"1b8a3548","approveBorrower(address)":"9a471920","approvedBorrowers(address)":"c936c624","calculateInterestRate(uint256,uint256)":"a5796785","createLoan(uint256,uint256)":"98cd90b5","getAllLoans()":"a5bfd16a","getLoansByBorrower(address)":"86a2a438","getTotalLoans()":"833be5d5","loansByBorrower(address,uint256)":"4b7f1e5a","owner()":"8da5cb5b","revokeBorrower(address)":"9bbb767c"},"id":19}