{"abi":[{"type":"constructor","inputs":[{"name":"_platformFactory","type":"address","internalType":"address"}],"stateMutability":"nonpayable"},{"type":"function","name":"DOMAIN_SEPARATOR","inputs":[],"outputs":[{"name":"","type":"bytes32","internalType":"bytes32"}],"stateMutability":"view"},{"type":"function","name":"MAX_SUPPLY","inputs":[],"outputs":[{"name":"","type":"uint256","internalType":"uint256"}],"stateMutability":"view"},{"type":"function","name":"allowance","inputs":[{"name":"owner","type":"address","internalType":"address"},{"name":"spender","type":"address","internalType":"address"}],"outputs":[{"name":"","type":"uint256","internalType":"uint256"}],"stateMutability":"view"},{"type":"function","name":"approve","inputs":[{"name":"spender","type":"address","internalType":"address"},{"name":"value","type":"uint256","internalType":"uint256"}],"outputs":[{"name":"","type":"bool","internalType":"bool"}],"stateMutability":"nonpayable"},{"type":"function","name":"balanceOf","inputs":[{"name":"account","type":"address","internalType":"address"}],"outputs":[{"name":"","type":"uint256","internalType":"uint256"}],"stateMutability":"view"},{"type":"function","name":"burn","inputs":[{"name":"value","type":"uint256","internalType":"uint256"}],"outputs":[],"stateMutability":"nonpayable"},{"type":"function","name":"burnFrom","inputs":[{"name":"account","type":"address","internalType":"address"},{"name":"amount","type":"uint256","internalType":"uint256"}],"outputs":[],"stateMutability":"nonpayable"},{"type":"function","name":"decimals","inputs":[],"outputs":[{"name":"","type":"uint8","internalType":"uint8"}],"stateMutability":"view"},{"type":"function","name":"eip712Domain","inputs":[],"outputs":[{"name":"fields","type":"bytes1","internalType":"bytes1"},{"name":"name","type":"string","internalType":"string"},{"name":"version","type":"string","internalType":"string"},{"name":"chainId","type":"uint256","internalType":"uint256"},{"name":"verifyingContract","type":"address","internalType":"address"},{"name":"salt","type":"bytes32","internalType":"bytes32"},{"name":"extensions","type":"uint256[]","internalType":"uint256[]"}],"stateMutability":"view"},{"type":"function","name":"mint","inputs":[{"name":"to","type":"address","internalType":"address"},{"name":"amount","type":"uint256","internalType":"uint256"}],"outputs":[],"stateMutability":"nonpayable"},{"type":"function","name":"name","inputs":[],"outputs":[{"name":"","type":"string","internalType":"string"}],"stateMutability":"view"},{"type":"function","name":"nonces","inputs":[{"name":"owner","type":"address","internalType":"address"}],"outputs":[{"name":"","type":"uint256","internalType":"uint256"}],"stateMutability":"view"},{"type":"function","name":"owner","inputs":[],"outputs":[{"name":"","type":"address","internalType":"address"}],"stateMutability":"view"},{"type":"function","name":"permit","inputs":[{"name":"owner","type":"address","internalType":"address"},{"name":"spender","type":"address","internalType":"address"},{"name":"value","type":"uint256","internalType":"uint256"},{"name":"deadline","type":"uint256","internalType":"uint256"},{"name":"v","type":"uint8","internalType":"uint8"},{"name":"r","type":"bytes32","internalType":"bytes32"},{"name":"s","type":"bytes32","internalType":"bytes32"}],"outputs":[],"stateMutability":"nonpayable"},{"type":"function","name":"platformFactory","inputs":[],"outputs":[{"name":"","type":"address","internalType":"address"}],"stateMutability":"view"},{"type":"function","name":"renounceOwnership","inputs":[],"outputs":[],"stateMutability":"nonpayable"},{"type":"function","name":"setPlatformFactory","inputs":[{"name":"_platformFactory","type":"address","internalType":"address"}],"outputs":[],"stateMutability":"nonpayable"},{"type":"function","name":"symbol","inputs":[],"outputs":[{"name":"","type":"string","internalType":"string"}],"stateMutability":"view"},{"type":"function","name":"totalSupply","inputs":[],"outputs":[{"name":"","type":"uint256","internalType":"uint256"}],"stateMutability":"view"},{"type":"function","name":"transfer","inputs":[{"name":"to","type":"address","internalType":"address"},{"name":"value","type":"uint256","internalType":"uint256"}],"outputs":[{"name":"","type":"bool","internalType":"bool"}],"stateMutability":"nonpayable"},{"type":"function","name":"transferFrom","inputs":[{"name":"from","type":"address","internalType":"address"},{"name":"to","type":"address","internalType":"address"},{"name":"value","type":"uint256","internalType":"uint256"}],"outputs":[{"name":"","type":"bool","internalType":"bool"}],"stateMutability":"nonpayable"},{"type":"function","name":"transferOwnership","inputs":[{"name":"newOwner","type":"address","internalType":"address"}],"outputs":[],"stateMutability":"nonpayable"},{"type":"event","name":"Approval","inputs":[{"name":"owner","type":"address","indexed":true,"internalType":"address"},{"name":"spender","type":"address","indexed":true,"internalType":"address"},{"name":"value","type":"uint256","indexed":false,"internalType":"uint256"}],"anonymous":false},{"type":"event","name":"EIP712DomainChanged","inputs":[],"anonymous":false},{"type":"event","name":"OwnershipTransferred","inputs":[{"name":"previousOwner","type":"address","indexed":true,"internalType":"address"},{"name":"newOwner","type":"address","indexed":true,"internalType":"address"}],"anonymous":false},{"type":"event","name":"PlatformFactoryUpdated","inputs":[{"name":"newFactory","type":"address","indexed":false,"internalType":"address"}],"anonymous":false},{"type":"event","name":"Transfer","inputs":[{"name":"from","type":"address","indexed":true,"internalType":"address"},{"name":"to","type":"address","indexed":true,"internalType":"address"},{"name":"value","type":"uint256","indexed":false,"internalType":"uint256"}],"anonymous":false},{"type":"error","name":"ECDSAInvalidSignature","inputs":[]},{"type":"error","name":"ECDSAInvalidSignatureLength","inputs":[{"name":"length","type":"uint256","internalType":"uint256"}]},{"type":"error","name":"ECDSAInvalidSignatureS","inputs":[{"name":"s","type":"bytes32","internalType":"bytes32"}]},{"type":"error","name":"ERC20InsufficientAllowance","inputs":[{"name":"spender","type":"address","internalType":"address"},{"name":"allowance","type":"uint256","internalType":"uint256"},{"name":"needed","type":"uint256","internalType":"uint256"}]},{"type":"error","name":"ERC20InsufficientBalance","inputs":[{"name":"sender","type":"address","internalType":"address"},{"name":"balance","type":"uint256","internalType":"uint256"},{"name":"needed","type":"uint256","internalType":"uint256"}]},{"type":"error","name":"ERC20InvalidApprover","inputs":[{"name":"approver","type":"address","internalType":"address"}]},{"type":"error","name":"ERC20InvalidReceiver","inputs":[{"name":"receiver","type":"address","internalType":"address"}]},{"type":"error","name":"ERC20InvalidSender","inputs":[{"name":"sender","type":"address","internalType":"address"}]},{"type":"error","name":"ERC20InvalidSpender","inputs":[{"name":"spender","type":"address","internalType":"address"}]},{"type":"error","name":"ERC2612ExpiredSignature","inputs":[{"name":"deadline","type":"uint256","internalType":"uint256"}]},{"type":"error","name":"ERC2612InvalidSigner","inputs":[{"name":"signer","type":"address","internalType":"address"},{"name":"owner","type":"address","internalType":"address"}]},{"type":"error","name":"InvalidAccountNonce","inputs":[{"name":"account","type":"address","internalType":"address"},{"name":"currentNonce","type":"uint256","internalType":"uint256"}]},{"type":"error","name":"InvalidShortString","inputs":[]},{"type":"error","name":"OwnableInvalidOwner","inputs":[{"name":"owner","type":"address","internalType":"address"}]},{"type":"error","name":"OwnableUnauthorizedAccount","inputs":[{"name":"account","type":"address","internalType":"address"}]},{"type":"error","name":"StringTooLong","inputs":[{"name":"str","type":"string","internalType":"string"}]}],"bytecode":{"object":"0x610160806040523461058d576020816118f380380380916100208285610591565b83398101031261058d57516001600160a01b0381169081900361058d5760405161004b604082610591565b60188152602081017f43726f77646c656e6420506c6174666f726d20546f6b656e0000000000000000815260405190610085604083610591565b601882527f43726f77646c656e6420506c6174666f726d20546f6b656e00000000000000006020830152604051926100be604085610591565b600384526210d41560ea1b6020850152604051936100dd604086610591565b60018552603160f81b60208601908152845190946001600160401b0382116104905760035490600182811c92168015610583575b60208310146104725781601f849311610515575b50602090601f83116001146104af575f926104a4575b50508160011b915f199060031b1c1916176003555b8051906001600160401b0382116104905760045490600182811c92168015610486575b60208310146104725781601f849311610404575b50602090601f831160011461039e575f92610393575b50508160011b915f199060031b1c1916176004555b6101bb816105b4565b610120526101c88461073b565b61014052519020918260e05251902080610100524660a0526040519060208201927f8b73c3c69bb8fe3d512ecc4cf759cc79239f7b179b0ffacaa9a75d522b39400f8452604083015260608201524660808201523060a082015260a0815261023160c082610591565b5190206080523060c05233156103805760088054336001600160a01b0319821681179092556001600160a01b03167f8be0079c531659141344cd1fd0a4f28419497f9722a3daafe3b4186f6b6457e05f80a3600980546001600160a01b03191682179055801561036d576002546a52b7d2dcc80cd2e4000000810180911161035957600255805f525f60205260405f206a52b7d2dcc80cd2e400000081540190555f7fddf252ad1be2c89b69c2b068fc378daa952ba7f163c4a11628f55a4df523b3ef60206040516a52b7d2dcc80cd2e40000008152a360405161107f9081610874823960805181610cbd015260a05181610d7a015260c05181610c87015260e05181610d0c01526101005181610d32015261012051816105140152610140518161053d0152f35b634e487b7160e01b5f52601160045260245ffd5b63ec442f0560e01b5f525f60045260245ffd5b631e4fbdf760e01b5f525f60045260245ffd5b015190505f8061019d565b60045f9081528281209350601f198516905b8181106103ec57509084600195949392106103d4575b505050811b016004556101b2565b01515f1960f88460031b161c191690555f80806103c6565b929360206001819287860151815501950193016103b0565b60045f529091507f8a35acfbc15ff81a39ae7d344fd709f28e8600b4aa8c65c6b64bfe7fe36bd19b601f840160051c81019160208510610468575b90601f859493920160051c01905b81811061045a5750610187565b5f815584935060010161044d565b909150819061043f565b634e487b7160e01b5f52602260045260245ffd5b91607f1691610173565b634e487b7160e01b5f52604160045260245ffd5b015190505f8061013b565b60035f9081528281209350601f198516905b8181106104fd57509084600195949392106104e5575b505050811b01600355610150565b01515f1960f88460031b161c191690555f80806104d7565b929360206001819287860151815501950193016104c1565b60035f529091507fc2575a0e9e593c00f959f8c92f12db2869c3395a3b0502d05e2516446f71f85b601f840160051c81019160208510610579575b90601f859493920160051c01905b81811061056b5750610125565b5f815584935060010161055e565b9091508190610550565b91607f1691610111565b5f80fd5b601f909101601f19168101906001600160401b0382119082101761049057604052565b908151602081105f1461062e575090601f8151116105ee5760208151910151602082106105df571790565b5f198260200360031b1b161790565b604460209160405192839163305a27a960e01b83528160048401528051918291826024860152018484015e5f828201840152601f01601f19168101030190fd5b6001600160401b03811161049057600554600181811c91168015610731575b602082101461047257601f81116106fe575b50602092601f821160011461069d57928192935f92610692575b50508160011b915f199060031b1c19161760055560ff90565b015190505f80610679565b601f1982169360055f52805f20915f5b8681106106e657508360019596106106ce575b505050811b0160055560ff90565b01515f1960f88460031b161c191690555f80806106c0565b919260206001819286850151815501940192016106ad565b60055f52601f60205f20910160051c810190601f830160051c015b818110610726575061065f565b5f8155600101610719565b90607f169061064d565b908151602081105f14610766575090601f8151116105ee5760208151910151602082106105df571790565b6001600160401b03811161049057600654600181811c91168015610869575b602082101461047257601f8111610836575b50602092601f82116001146107d557928192935f926107ca575b50508160011b915f199060031b1c19161760065560ff90565b015190505f806107b1565b601f1982169360065f52805f20915f5b86811061081e5750836001959610610806575b505050811b0160065560ff90565b01515f1960f88460031b161c191690555f80806107f8565b919260206001819286850151815501940192016107e5565b60065f52601f60205f20910160051c810190601f830160051c015b81811061085e5750610797565b5f8155600101610851565b90607f169061078556fe6080806040526004361015610012575f80fd5b5f3560e01c90816306fdde031461099457508063095ea7b31461096e57806318160ddd1461095157806323b872dd14610872578063313ce5671461085757806332cb6b0c146108315780633644e5151461080f57806340c10f191461071557806342966c68146106f857806370a08231146106c1578063715018a61461066657806379cc67901461062c5780637ecebe00146105f457806384b0196e146104fc5780638da5cb5b146104d457806395d89b41146103f25780639f0972c4146103ca578063a9059cbb14610399578063d505accf14610254578063dd62ed3e14610204578063e041ed41146101985763f2fde38b1461010e575f80fd5b3461019457602036600319011261019457610127610a5a565b61012f610e24565b6001600160a01b0316801561018157600880546001600160a01b0319811683179091556001600160a01b03167f8be0079c531659141344cd1fd0a4f28419497f9722a3daafe3b4186f6b6457e05f80a3005b631e4fbdf760e01b5f525f60045260245ffd5b5f80fd5b34610194576020366003190112610194577fd9147c5fafb4c0ea4cbeca7cc97ac461a2078deb741894135759652188f066c460206101d4610a5a565b6101dc610e24565b600980546001600160a01b0319166001600160a01b03929092169182179055604051908152a1005b346101945760403660031901126101945761021d610a5a565b610225610a70565b6001600160a01b039182165f908152600160209081526040808320949093168252928352819020549051908152f35b346101945760e03660031901126101945761026d610a5a565b610275610a70565b604435906064359260843560ff8116810361019457844211610386576103496103529160018060a01b03841696875f52600760205260405f20908154916001830190556040519060208201927f6e71edae12b1b97f4d1f60370fef10105fa2faae0126114a169c64845d6126c984528a604084015260018060a01b038916606084015289608084015260a083015260c082015260c0815261031760e082610b3f565b519020610322610c84565b906040519161190160f01b83526002830152602282015260c43591604260a4359220610f48565b90929192610fd5565b6001600160a01b031684810361036f575061036d9350610e4b565b005b84906325c0072360e11b5f5260045260245260445ffd5b8463313c898160e11b5f5260045260245ffd5b34610194576040366003190112610194576103bf6103b5610a5a565b6024359033610bda565b602060405160018152f35b34610194575f366003190112610194576009546040516001600160a01b039091168152602090f35b34610194575f366003190112610194576040515f60045461041281610a86565b80845290600181169081156104b05750600114610452575b61044e8361043a81850382610b3f565b604051918291602083526020830190610a36565b0390f35b60045f9081527f8a35acfbc15ff81a39ae7d344fd709f28e8600b4aa8c65c6b64bfe7fe36bd19b939250905b8082106104965750909150810160200161043a61042a565b91926001816020925483858801015201910190929161047e565b60ff191660208086019190915291151560051b8401909101915061043a905061042a565b34610194575f366003190112610194576008546040516001600160a01b039091168152602090f35b34610194575f366003190112610194576105986105387f0000000000000000000000000000000000000000000000000000000000000000610eae565b6105617f0000000000000000000000000000000000000000000000000000000000000000610f11565b60206105a6604051926105748385610b3f565b5f84525f368137604051958695600f60f81b875260e08588015260e0870190610a36565b908582036040870152610a36565b4660608501523060808501525f60a085015283810360c08501528180845192838152019301915f5b8281106105dd57505050500390f35b8351855286955093810193928101926001016105ce565b34610194576020366003190112610194576001600160a01b03610615610a5a565b165f526007602052602060405f2054604051908152f35b346101945760403660031901126101945761036d610648610a5a565b61065d60018060a01b03600954163314610b75565b60243590610da0565b34610194575f3660031901126101945761067e610e24565b600880546001600160a01b031981169091555f906001600160a01b03167f8be0079c531659141344cd1fd0a4f28419497f9722a3daafe3b4186f6b6457e08280a3005b34610194576020366003190112610194576001600160a01b036106e2610a5a565b165f525f602052602060405f2054604051908152f35b346101945760203660031901126101945761036d60043533610da0565b346101945760403660031901126101945761072e610a5a565b6024359061074760018060a01b03600954163314610b75565b6b033b2e3c9fd0803ce800000061076083600254610bb9565b116107d5576001600160a01b03169081156107c2577fddf252ad1be2c89b69c2b068fc378daa952ba7f163c4a11628f55a4df523b3ef6020826107a65f94600254610bb9565b60025584845283825260408420818154019055604051908152a3005b63ec442f0560e01b5f525f60045260245ffd5b60405162461bcd60e51b815260206004820152601260248201527145786365656473206d617820737570706c7960701b6044820152606490fd5b34610194575f366003190112610194576020610829610c84565b604051908152f35b34610194575f3660031901126101945760206040516b033b2e3c9fd0803ce80000008152f35b34610194575f36600319011261019457602060405160128152f35b346101945760603660031901126101945761088b610a5a565b610893610a70565b6001600160a01b0382165f818152600160209081526040808320338452909152902054909260443592915f1981106108d1575b506103bf9350610bda565b838110610936578415610923573315610910576103bf945f52600160205260405f2060018060a01b0333165f526020528360405f2091039055846108c6565b634a1406b160e11b5f525f60045260245ffd5b63e602df0560e01b5f525f60045260245ffd5b8390637dc7a0d960e11b5f523360045260245260445260645ffd5b34610194575f366003190112610194576020600254604051908152f35b34610194576040366003190112610194576103bf61098a610a5a565b6024359033610e4b565b34610194575f366003190112610194575f6003546109b181610a86565b80845290600181169081156104b057506001146109d85761044e8361043a81850382610b3f565b60035f9081527fc2575a0e9e593c00f959f8c92f12db2869c3395a3b0502d05e2516446f71f85b939250905b808210610a1c5750909150810160200161043a61042a565b919260018160209254838588010152019101909291610a04565b805180835260209291819084018484015e5f828201840152601f01601f1916010190565b600435906001600160a01b038216820361019457565b602435906001600160a01b038216820361019457565b90600182811c92168015610ab4575b6020831014610aa057565b634e487b7160e01b5f52602260045260245ffd5b91607f1691610a95565b5f9291815491610acd83610a86565b8083529260018116908115610b225750600114610ae957505050565b5f9081526020812093945091925b838310610b08575060209250010190565b600181602092949394548385870101520191019190610af7565b915050602093945060ff929192191683830152151560051b010190565b90601f8019910116810190811067ffffffffffffffff821117610b6157604052565b634e487b7160e01b5f52604160045260245ffd5b15610b7c57565b60405162461bcd60e51b81526020600482015260156024820152744f6e6c7920706c6174666f726d20666163746f727960581b6044820152606490fd5b91908201809211610bc657565b634e487b7160e01b5f52601160045260245ffd5b6001600160a01b0316908115610c71576001600160a01b03169182156107c257815f525f60205260405f2054818110610c5857817fddf252ad1be2c89b69c2b068fc378daa952ba7f163c4a11628f55a4df523b3ef92602092855f525f84520360405f2055845f525f825260405f20818154019055604051908152a3565b8263391434e360e21b5f5260045260245260445260645ffd5b634b637e8f60e11b5f525f60045260245ffd5b307f00000000000000000000000000000000000000000000000000000000000000006001600160a01b03161480610d77575b15610cdf577f000000000000000000000000000000000000000000000000000000000000000090565b60405160208101907f8b73c3c69bb8fe3d512ecc4cf759cc79239f7b179b0ffacaa9a75d522b39400f82527f000000000000000000000000000000000000000000000000000000000000000060408201527f000000000000000000000000000000000000000000000000000000000000000060608201524660808201523060a082015260a08152610d7160c082610b3f565b51902090565b507f00000000000000000000000000000000000000000000000000000000000000004614610cb6565b9091906001600160a01b03168015610c7157805f525f60205260405f2054838110610e0a576020845f94957fddf252ad1be2c89b69c2b068fc378daa952ba7f163c4a11628f55a4df523b3ef938587528684520360408620558060025403600255604051908152a3565b915063391434e360e21b5f5260045260245260445260645ffd5b6008546001600160a01b03163303610e3857565b63118cdaa760e01b5f523360045260245ffd5b6001600160a01b0316908115610923576001600160a01b03169182156109105760207f8c5be1e5ebec7d5bd14f71427d1e84f3dd0314c0f7b2291e5b200ac8c7c3b92591835f526001825260405f20855f5282528060405f2055604051908152a3565b60ff8114610ef45760ff811690601f8211610ee55760405191610ed2604084610b3f565b6020808452838101919036833783525290565b632cd44ac360e21b5f5260045ffd5b50604051610f0e81610f07816005610abe565b0382610b3f565b90565b60ff8114610f355760ff811690601f8211610ee55760405191610ed2604084610b3f565b50604051610f0e81610f07816006610abe565b91907f7fffffffffffffffffffffffffffffff5d576e7357a4501ddfe92f46681b20a08411610fca579160209360809260ff5f9560405194855216868401526040830152606082015282805260015afa15610fbf575f516001600160a01b03811615610fb557905f905f90565b505f906001905f90565b6040513d5f823e3d90fd5b5050505f9160039190565b60048110156110355780610fe7575050565b60018103610ffe5763f645eedf60e01b5f5260045ffd5b60028103611019575063fce698f760e01b5f5260045260245ffd5b6003146110235750565b6335e2f38360e21b5f5260045260245ffd5b634e487b7160e01b5f52602160045260245ffdfea2646970667358221220dd9a674231b439797a54c5fe718f8879c92061808d6ee77f6c927b6a475bb83564736f6c634300081e0033","linkReferences":{}},"methodIdentifiers":{"DOMAIN_SEPARATOR()":"3644e515","MAX_SUPPLY()":"32cb6b0c","allowance(address,address)":"dd62ed3e","approve(address,uint256)":"095ea7b3","balanceOf(address)":"70a08231","burn(uint256)":"42966c68","burnFrom(address,uint256)":"79cc6790","decimals()":"313ce567","eip712Domain()":"84b0196e","mint(address,uint256)":"40c10f19","name()":"06fdde03","nonces(address)":"7ecebe00","owner()":"8da5cb5b","permit(address,address,uint256,uint256,uint8,bytes32,bytes32)":"d505accf","platformFactory()":"9f0972c4","renounceOwnership()":"715018a6","setPlatformFactory(address)":"e041ed41","symbol()":"95d89b41","totalSupply()":"18160ddd","transfer(address,uint256)":"a9059cbb","transferFrom(address,address,uint256)":"23b872dd","transferOwnership(address)":"f2fde38b"},"id":64}